:100000000C9446000C9463000C9463000C94630001
:100010000C9463000C9463000C9463000C946300D4
:100020000C9463000C9463000C9463000C946300C4
:100030000C94C8070C9463000C9463000C94630048
:100040000C9463000C9463000C947C1D0C9463006E
:100050000C9463000C9463000C9463000C94630094
:100060000C9463000C9463000C9463000C94630084
:100070000C9463000C9463000C9463000C94630074
:100080000C9463000C9463000C94630011241FBE55
:10009000CFEFD0E1DEBFCDBF11E0A0E0B1E0E2E5FF
:1000A000FCE302C005900D92AC31B107D9F72DE009
:1000B000ACE1B1E001C01D92AC3BB207E1F70E9498
:1000C000931C0C94271E0C940000CF93DF93CDB7A4
:1000D000DEB727970FB6F894DEBF0FBECDBF9D8366
:1000E0008C836E834F838AE190E00E94CC079B83D0
:1000F0008A838A819B81892B09F477C080911C01B6
:1001000090911D01892B41F48A819B8190931D015F
:1001100080931C010E94EF028E81823010F081E0FA
:100120008E838A819B81FC01118E108E8A819B8136
:100130002E81FC01268B8A819B812F81FC01278BDC
:100140008A819B812C813D81FC01318320838A81BE
:100150009B8102960E9498038A819B810C960E9443
:1001600098038A819B812A813B81FC01318720870A
:100170008A819B812A813B81FC01338B228B8E817A
:10018000882F90E022E030E0281B390B8A819B8188
:10019000FC01358724878A819B81FC0196898091A7
:1001A0004F01891730F48A819B81FC0186898093F5
:1001B0004F018A819B81AC014E5F5F4F8A819B8199
:1001C000FC018689282F30E0C901880F991F880F0C
:1001D000991F880F991F820F931F825E9E4FBA014D
:1001E0000E94AA0381E0898302C08FEF89838981FD
:1001F00027960FB6F894DEBF0FBECDBFDF91CF912B
:100200000895CF93DF9300D000D000D0CDB7DEB7F4
:100210009C838B837E836D832091500130915101AB
:100220008B819C81820F931F9A83898380911C010B
:1002300090911D0102960E94710480911C01909181
:100240001D0129813A81FC01338322838091500171
:100250009091510129813A812817390778F48091CA
:100260001C0190911D019C012E5F3F4F8091440124
:1002700090914501B9010E94F9030EC080911C01C3
:1002800090911D019C012E5F3F4F80914201909102
:100290004301B9010E94F9038D819E81892B61F090
:1002A00080911C0190911D019C01245F3F4F8D8125
:1002B0009E81B9010E94F903000026960FB6F894BA
:1002C000DEBF0FBECDBFDF91CF910895CF93DF93F7
:1002D00000D0CDB7DEB73CC0F89480914B0190912F
:1002E0004C01FC01868197819A83898389819A8157
:1002F0000C960E947104789489819A8102960E94DA
:10030000710489819A81FC01968980914F01891736
:1003100030F489819A81FC01868980934F0189811B
:100320009A81AC014E5F5F4F89819A81FC01868979
:10033000282F30E0C901880F991F880F991F880F57
:10034000991F820F931F825E9E4FBA010E94AA03DB
:1003500080914601882309F0BFCF00000F900F90D5
:10036000DF91CF910895CF93DF9300D000D0CDB728
:10037000DEB70E94F8139C018091520190915301C5
:10038000A901481B590BCA01909355018093540150
:100390008AC0809150019091510101969093510132
:1003A0008093500180915401909155010197909351
:1003B0005501809354018091500190915101892BF6
:1003C00009F068C080914201909143019A8389832A
:1003D00080914401909145019093430180934201A3
:1003E00089819A81909345018093440153C0809103
:1003F000420190914301FC0185819681FC01868137
:1004000097819C838B838B819C81FC01228133812A
:1004100080915001909151018217930708F443C0D5
:10042000F8948B819C8102960E9471048B819C813F
:10043000FC0184899589892B29F08B819C810C96FC
:100440000E94710478948B819C81FC019689809133
:100450004F01891730F48B819C81FC018689809340
:100460004F018B819C81AC014E5F5F4F8B819C81E2
:10047000FC018689282F30E0C901880F991F880F59
:10048000991F880F991F820F931F825E9E4FBA019A
:100490000E94AA038091420190914301FC01808156
:1004A000882309F0A4CF8091540190915501892BA4
:1004B00009F06FCF809150019091510190935301B9
:1004C0008093520100000F900F900F900F90DF91DA
:1004D000CF910895CF93DF9300D0CDB7DEB70E94C0
:1004E00066010E94B3010AC080914F01882309F47C
:1004F00070C080914F01815080934F0180914F01D6
:10050000282F30E0C901880F991F880F991F880F85
:10051000991F820F931F825E9E4FFC01808188236A
:1005200019F380914F01282F30E0C901880F991FDE
:10053000880F991F880F991F820F931F825E9E4F0D
:100540009A83898389819A81FC0181819281FC014E
:100550002281338189819A81FC01328321838981BF
:100560009A81FC012181328189819A810396281721
:10057000390769F489819A81FC0181819281FC01AA
:100580002281338189819A81FC013283218389818F
:100590009A81FC0181819281FC01868197819093EF
:1005A0001D0180931C0180911C0190911D01FC0193
:1005B0002081318180911C0190911D01FC014789AE
:1005C00080911C0190911D01642FF9010995000093
:1005D00001C000000F900F90DF91CF910895CF934D
:1005E000DF931F92CDB7DEB7198213C08981282F00
:1005F00030E0C901880F991F880F991F880F991F34
:10060000820F931F825E9E4F0E94620389818F5FDB
:1006100089838981823050F380E391E00E946203F4
:1006200089E391E00E94620386E491E00E94620304
:1006300080E391E0909343018093420189E391E04C
:10064000909345018093440100000F90DF91CF917A
:100650000895CF93DF9300D000D01F92CDB7DEB7BF
:100660009D838C838C819D81FC0185819681FC0119
:10067000868197819B838A838A819B810C960E94C5
:1006800071048A819B810C96BC0186E491E00E94F2
:10069000AA038A819B81FC01268980911C0190918B
:1006A0001D01FC018689281718F081E0898301C0AB
:1006B000198289810F900F900F900F900F90DF910A
:1006C000CF910895CF93DF9300D0CDB7DEB79A8353
:1006D000898389819A819C012D5F3F4F89819A810D
:1006E000FC013283218389819A812FEF3FEFFC0146
:1006F0003483238389819A819C012D5F3F4F8981B7
:100700009A81FC013683258389819A819C012D5F22
:100710003F4F89819A81FC013087278389819A81A3
:10072000FC01108200000F900F90DF91CF9108958F
:10073000CF93DF9300D0CDB7DEB79A8389838981C9
:100740009A81FC011186108600000F900F90DF91B6
:10075000CF910895CF93DF9300D000D000D0CDB7D4
:10076000DEB79C838B837E836D838B819C81FC01B0
:10077000818192819A8389838D819E8129813A81A9
:10078000FC013383228389819A81FC012481358194
:100790008D819E81FC013583248389819A81FC01AE
:1007A000848195812D813E81FC013383228389815F
:1007B0009A812D813E81FC01358324838D819E8128
:1007C0002B813C81FC01318720878B819C81FC013E
:1007D000808121E0280F8B819C81FC012083000017
:1007E00026960FB6F894DEBF0FBECDBFDF91CF9136
:1007F0000895CF93DF93CDB7DEB728970FB6F8945F
:10080000DEBF0FBECDBF9E838D8378876F838F81C0
:100810009885FC01808191819C838B838B819C8155
:10082000019641F48D819E81FC01878190859A8398
:1008300089831AC08D819E8103969A83898307C01C
:1008400089819A81FC01828193819A83898389813C
:100850009A81FC0182819381FC01208131818B810D
:100860009C818217930760F789819A81FC0122811C
:1008700033818F819885FC01338322838F81988512
:10088000FC01828193812F813885FC01358324838B
:100890008F81988529813A81FC0135832483898160
:1008A0009A812F813885FC01338322838F8198853B
:1008B0002D813E81FC01318720878D819E81FC0145
:1008C000808121E0280F8D819E81FC012083000022
:1008D00028960FB6F894DEBF0FBECDBFDF91CF9143
:1008E0000895CF93DF9300D000D0CDB7DEB79C83BF
:1008F0008B838B819C81FC01808591859A83898380
:100900008B819C81FC01828193812B813C81F90147
:1009100024813581FC01358324838B819C81FC01FA
:10092000848195812B813C81F90122813381FC01F5
:100930003383228389819A81FC01218132818B81D9
:100940009C812817390751F48B819C81FC012481FB
:10095000358189819A81FC01328321838B819C813D
:10096000FC011186108689819A81FC0180812FEF1C
:10097000280F89819A81FC01208389819A81FC0159
:1009800080810F900F900F900F90DF91CF9108957D
:10099000CF93DF93CDB7DEB728970FB6F894DEBFBD
:1009A0000FBECDBF9C838B837E836D8358874F831F
:1009B0008B819C8121E1FC0120838B819C810197AB
:1009C0009C838B838B819C8122E2FC0120838B8121
:1009D0009C8101979C838B838B819C8123E3FC0109
:1009E00020838B819C8101979C838B838D819E8149
:1009F0009A83898329818B819C81FC0120838B814F
:100A00009C8101979C838B8389819A81892F992767
:100A10009A83898329818B819C81FC0120838B812E
:100A20009C8101979C838B838B819C81FC0110822C
:100A30008B819C8101979C838B838B819C8120E897
:100A4000FC0120838B819C8101979C838B838B810C
:100A50009C81FC0110828B819C8101979C838B83FC
:100A60008B819C8122E0FC0120838B819C810197FA
:100A70009C838B838B819C8123E0FC0120838B8171
:100A80009C8101979C838B838B819C8124E0FC015A
:100A900020838B819C8101979C838B838B819C819C
:100AA00025E0FC0120838B819C8101979C838B83B3
:100AB0008B819C8126E0FC0120838B819C810197A6
:100AC0009C838B838B819C8127E0FC0120838B811D
:100AD0009C8101979C838B838B819C8128E0FC0106
:100AE00020838B819C8101979C838B838B819C814C
:100AF00029E0FC0120838B819C8101979C838B835F
:100B00008B819C8120E1FC0120838B819C8101975A
:100B10009C838B838B819C8121E1FC0120838B81D1
:100B20009C8101979C838B838B819C8122E1FC01BA
:100B300020838B819C8101979C838B838B819C81FB
:100B400023E1FC0120838B819C8101979C838B8313
:100B50008B819C8124E1FC0120838B819C81019706
:100B60009C838B838B819C8125E1FC0120838B817D
:100B70009C8101979C838B838B819C8126E1FC0166
:100B800020838B819C8101979C838B838B819C81AB
:100B900027E1FC0120838B819C8101979C838B83BF
:100BA0008B819C8128E1FC0120838B819C810197B2
:100BB0009C838B838B819C8129E1FC0120838B8129
:100BC0009C8101979C838B838B819C8120E2FC011B
:100BD00020838B819C8101979C838B838B819C815B
:100BE00021E2FC0120838B819C8101979C838B8374
:100BF0008B819C8122E2FC0120838B819C81019767
:100C00009C838B838B819C8123E2FC0120838B81DD
:100C10009C8101979C838B838F8198859A8389839C
:100C200029818B819C81FC0120838B819C81019790
:100C30009C838B8389819A81892F99279A838983C1
:100C400029818B819C81FC0120838B819C81019770
:100C50009C838B838B819C8126E2FC0120838B818A
:100C60009C8101979C838B838B819C8127E2FC0173
:100C700020838B819C8101979C838B838B819C81BA
:100C800028E2FC0120838B819C8101979C838B83CC
:100C90008B819C8129E2FC0120838B819C810197BF
:100CA0009C838B838B819C8120E3FC0120838B813F
:100CB0009C8101979C838B838B819C8121E3FC0128
:100CC00020838B819C8101979C838B838B819C816A
:100CD00028960FB6F894DEBF0FBECDBFDF91CF913F
:100CE0000895CF93DF93CDB7DEB70E946607A0913A
:100CF0005A0DB0915B0DCD91CDBFDD91DEBFFF915F
:100D0000EF91DF91CF91BF91AF919F918F917F91A3
:100D10006F915F914F913F912F911F910F91FF9094
:100D2000EF90DF90CF90BF90AF909F908F907F908B
:100D30006F905F904F903F902F901F900F900FBE3D
:100D40000F90089581E0DF91CF910895CF93DF93C5
:100D5000CDB7DEB70000DF91CF9108950F920FB6A7
:100D6000F8940F921F9211242F923F924F925F920C
:100D70006F927F928F929F92AF92BF92CF92DF92AB
:100D8000EF92FF920F931F932F933F934F935F9395
:100D90006F937F938F939F93AF93BF93CF93DF9383
:100DA000EF93FF93A0915A0DB0915B0D0DB60D928C
:100DB0000EB60D920E943915A0915A0DB0915B0D9F
:100DC000CD91CDBFDD91DEBFFF91EF91DF91CF914E
:100DD000BF91AF919F918F917F916F915F914F9153
:100DE0003F912F911F910F91FF90EF90DF90CF9047
:100DF000BF90AF909F908F907F906F905F904F903B
:100E00003F902F901F900F900FBE0F9008950000FD
:100E10000F920FB6F8940F921F9211242F923F92C7
:100E20004F925F926F927F928F929F92AF92BF92FA
:100E3000CF92DF92EF92FF920F931F932F933F93E6
:100E40004F935F936F937F938F939F93AF93BF93D2
:100E5000CF93DF93EF93FF93A0915A0DB0915B0D69
:100E60000DB60D920EB60D920E944C14882311F00F
:100E70000E943915A0915A0DB0915B0DCD91CDBF57
:100E8000DD91DEBFFF91EF91DF91CF91BF91AF91E7
:100E90009F918F917F916F915F914F913F912F9192
:100EA0001F910F91FF90EF90DF90CF90BF90AF9088
:100EB0009F908F907F906F905F904F903F902F907A
:100EC0001F900F900FBE0F9008950000CF93DF93F7
:100ED00000D000D000D0CDB7DEB780E090EBA1E02D
:100EE000B0E089839A83AB83BC8389819A81AB818B
:100EF000BC81689415F8B695A79597958795169433
:100F0000D1F789839A83AB83BC8389819A81AB8132
:100F1000BC810197A109B10989839A83AB83BC8302
:100F200089818D8389819A81AB81BC81892F9A2F98
:100F3000AB2FBB2789839A83AB83BC8389818E8344
:100F40008BE490E02E81FC0120838AE490E02D81E7
:100F5000FC0120838BE08D838EE490E02D81FC01E9
:100F6000208387E590E0FC0180818D838D81806105
:100F70008D8387E590E02D81FC012083000026967B
:100F80000FB6F894DEBF0FBECDBFDF91CF910895AD
:100F90000E94080718950000CF93DF9300D000D07F
:100FA000CDB7DEB79C838B831A8219820E945413BB
:100FB0008091580D9091590D892B31F487E591E07E
:100FC0009093590D8093580D2091560D3091570DE7
:100FD0008B819C81820F931F8F3F9B4038F520911E
:100FE000560D3091570D8B819C81280F391F8091B0
:100FF000560D9091570D82179307C0F42091580D0C
:101000003091590D8091560D9091570D820F931F7D
:101010009A8389832091560D3091570D8B819C8145
:10102000820F931F9093570D8093560D0E9461136A
:1010300089819A810F900F900F900F90DF91CF913F
:101040000895CF93DF9300D0CDB7DEB79A8389831D
:1010500000000F900F90DF91CF910895CF93DF9311
:10106000CDB7DEB71092570D1092560D0000DF91EC
:10107000CF910895CF93DF93CDB7DEB78091560D12
:101080009091570D2FEF3BE0A901481B590BCA0166
:10109000DF91CF910895CF93DF9300D000D01F92BE
:1010A000CDB7DEB79C838B836D838B819C819A83C4
:1010B00089830FB6F8940F9289819A81FC0180810F
:1010C000918129813A81F901238D422F50E02981B4
:1010D0003A81F901248D222F30E0429FB001439FD5
:1010E000700D529F700D11249B01280F391F8981AB
:1010F0009A81FC013383228389819A81FC01128EBB
:1011000089819A81FC012081318189819A81FC0148
:101110003583248389819A81FC0180819181298191
:101120003A81F901238D222F30E0A9014150510964
:1011300029813A81F901248D222F30E0429FB001AC
:10114000439F700D529F700D11249B01280F391F72
:1011500089819A81FC013783268389819A812FEFC7
:10116000FC01258F89819A812FEFFC01268F8D81CB
:10117000882381F489819A81FC0180858823A1F0EC
:1011800089819A8108960E940216882369F00E943C
:10119000AE060AC089819A8108960E9462038981FD
:1011A0009A8141960E9462030F900FBE81E00F90DA
:1011B0000F900F900F900F90DF91CF9108950F93A4
:1011C0001F93CF93DF93CDB7DEB729970FB6F8946F
:1011D000DEBF0FBECDBF8F83688749878885882390
:1011E00019F41A8219820FC08F81482F50E0888528
:1011F000282F30E0429FC001439F900D529F900DD9
:1012000011249A83898389819A814F960E94CC0701
:101210009C838B838B819C81892B81F08B819C812A
:101220004F969E838D832B813C818D819E81890188
:101230002985AC0168858F810E942B098B819C8157
:1012400029960FB6F894DEBF0FBECDBFDF91CF91C8
:101250001F910F9108950F931F93CF93DF93CDB7F5
:10126000DEB727970FB6F894DEBF0FBECDBF8983D8
:101270006A835C834B832D831F830E838A8188233B
:1012800041F48E819F812E813F81FC013183208337
:1012900007C08E819F812B813C81FC01318320839B
:1012A0008E819F812981FC01238F8E819F812A81DC
:1012B000FC01248F8E819F8161E00E944B08000019
:1012C00027960FB6F894DEBF0FBECDBFDF91CF914A
:1012D0001F910F910895CF93DF93CDB7DEB72E976F
:1012E0000FB6F894DEBF0FBECDBF998788877B8786
:1012F0006A875D874C872E871982888599859B83AD
:101300008A830FB6F8940F928A819B81FC01228D0B
:101310008A819B81FC01838D281718F08E8582308D
:1013200011F52A853B858A819B814E85B9010E94F2
:10133000B00C8C838A819B81FC018189882351F0C8
:101340008A819B8141960E940216882341F00E9467
:10135000AE0605C08C81882311F00E94AE060F9066
:101360000FBE81E060C08C859D85892B21F40F9094
:101370000FBE80E058C08981882331F4CE010596E4
:101380000E94DA1681E089830F900FBE0E945413E9
:101390000FB6F8940F928A819B81FC01858D8F3F57
:1013A00021F48A819B81FC01158E8A819B81FC013D
:1013B000868D8F3F21F48A819B81FC01168E0F90D0
:1013C0000FBE9E01245F3F4FCE010596B9010E94DA
:1013D000F616882309F58A819B810E94510E882385
:1013E000A1F02C853D858A819B810896B9010E94D8
:1013F000AD158A819B810E94BC0D0E9461138823D8
:1014000009F07FCF0E94AE067CCF8A819B810E942B
:10141000BC0D0E94611375CF8A819B810E94BC0D17
:101420000E94611380E02E960FB6F894DEBF0FBEC7
:10143000CDBFDF91CF910895CF93DF93CDB7DEB7C6
:101440002C970FB6F894DEBF0FBECDBF9F838E835F
:10145000798768875B874A872C878E819F819B83EA
:101460008A831C828A819B81FC01228D8A819B81D7
:10147000FC01838D281718F08C85823089F58A81CC
:101480009B81FC01868D8D83288539858A819B818E
:101490004C85B9010E94B00C8D818F3FB9F48A81CF
:1014A0009B81FC0181898823C1F08A819B814196BF
:1014B0000E940216882389F08A859B85892B69F012
:1014C0008A859B8521E0FC01208307C08D818F5F89
:1014D000282F8A819B81FC01268F81E0898301C0AE
:1014E000198289812C960FB6F894DEBF0FBECDBF4E
:1014F000DF91CF910895CF93DF93CDB7DEB72A97D1
:101500000FB6F894DEBF0FBECDBF98878F837A8762
:1015100069878F8198859B838A831C828A819B81BE
:10152000FC01828D8D838A819B81FC01938D8D814D
:10153000891780F58A819B81FC01868D8E838D8140
:1015400021E0280F8A819B81FC01228F8E818F3FB1
:10155000B9F48A819B81FC0181898823C1F08A8149
:101560009B8141960E940216882389F089859A857D
:10157000892B69F089859A8521E0FC01208307C0C9
:101580008E818F5F282F8A819B81FC01268F81E0CD
:10159000898301C0198289812A960FB6F894DEBF2B
:1015A0000FBECDBFDF91CF910895CF93DF93CDB71D
:1015B000DEB760970FB6F894DEBF0FBECDBF9B8736
:1015C0008A877D876C875F874E87288B19828A85FB
:1015D0009B859B838A830FB6F8940F928A819B81A7
:1015E000FC01828D8C838C81882309F442C08A811E
:1015F0009B81FC01868197819E838D832C853D850F
:101600008A819B81B9010E946B0D88898823B9F476
:101610008C812FEF280F8A819B81FC01228F8A8188
:101620009B81FC018085882301F18A819B8108963A
:101630000E9402168823C9F00E94AE0616C08A8155
:101640009B812D813E81FC01378326838A819B818A
:10165000FC018189882349F08A819B8141960E94FF
:101660000216882311F00E94AE060F900FBE81E093
:1016700067C08E859F85892B21F40F900FBE80E077
:101680005FC08981882331F4CE0107960E94DA1663
:1016900081E089830F900FBE0E9454130FB6F89417
:1016A0000F928A819B81FC01858D8F3F21F48A8175
:1016B0009B81FC01158E8A819B81FC01868D8F3F69
:1016C00021F48A819B81FC01168E0F900FBE9E0132
:1016D000225F3F4FCE010796B9010E94F61688237C
:1016E00009F58A819B810E941A0E8823A1F02E851C
:1016F0003F858A819B814196B9010E94AD158A81FF
:101700009B810E94BC0D0E946113882309F063CF66
:101710000E94AE0660CF8A819B810E94BC0D0E9410
:10172000611359CF8A819B810E94BC0D0E94611375
:101730008A819B810E941A0E882309F44CCF80E095
:1017400060960FB6F894DEBF0FBECDBFDF91CF918C
:101750000895CF93DF93CDB7DEB72C970FB6F894EB
:10176000DEBF0FBECDBF98878F837A8769875C877E
:101770004B878F8198859B838A831C828A819B817A
:10178000FC01828D8D838D818823B9F18A819B81B3
:10179000FC01858D8E8329853A858A819B81B901DB
:1017A0000E946B0D8D812FEF280F8A819B81FC0198
:1017B000228F8E818F3FB9F48A819B81FC018085C5
:1017C0008823C1F08A819B8108960E940216882393
:1017D00089F08B859C85892B69F08B859C8521E020
:1017E000FC01208307C08E818F5F282F8A819B8117
:1017F000FC01258F81E0898301C0198289812C96A3
:101800000FB6F894DEBF0FBECDBFDF91CF91089524
:10181000CF93DF93CDB7DEB72A970FB6F894DEBF2C
:101820000FBECDBF98878F837A8769878F81988510
:101830009B838A831C828A819B81FC01828D882301
:10184000C1F08A819B81FC01868197819E838D8373
:1018500029853A858A819B81B9010E946B0D8A8115
:101860009B812D813E81FC013783268381E0898322
:1018700001C0198289812A960FB6F894DEBF0FBE87
:10188000CDBFDF91CF910895CF93DF9300D01F920A
:10189000CDB7DEB79B838A830FB6F8940F928A8107
:1018A0009B81FC01828D89830F900FBE89810F90EF
:1018B0000F900F90DF91CF910895CF93DF9300D0D9
:1018C00000D01F92CDB7DEB79D838C838C819D8124
:1018D0009A8389830FB6F8940F9289819A81FC01CB
:1018E000238D89819A81FC01828DF22FF81B8F2F25
:1018F0008B830F900FBE8B810F900F900F900F90E6
:101900000F90DF91CF910895CF93DF9300D01F9276
:10191000CDB7DEB79B838A838A819B81FC01828D50
:10192000898389810F900F900F90DF91CF91089557
:10193000CF93DF9300D000D0CDB7DEB79C838B83ED
:101940008B819C819A83898389819A810E94210855
:1019500000000F900F900F900F90DF91CF9108959E
:10196000CF93DF93CDB7DEB727970FB6F894DEBFDE
:101970000FBECDBF9C838B837E836D834F831A8282
:101980008B819C81FC01828D89838B819C81FC01F0
:10199000848D882309F48EC08F818823D9F58B81AB
:1019A0009C81FC01848D482F50E08B819C81FC013F
:1019B000848195812D813E81B9010E941E1E8B81FB
:1019C0009C81FC01248135818B819C81FC01848D6B
:1019D000882F90E0280F391F8B819C81FC01358373
:1019E00024838B819C81FC01248135818B819C81A6
:1019F000FC01828193812817390708F45BC08B8131
:101A00009C81FC01208131818B819C81FC0135838B
:101A1000248350C08B819C81FC01848D482F50E031
:101A20008B819C81FC01868197812D813E81B9014A
:101A30000E941E1E8B819C81FC01268137818B8137
:101A40009C81FC01848D882F90E09195819591096E
:101A5000280F391F8B819C81FC01378326838B8162
:101A60009C81FC01268137818B819C81FC018081D6
:101A7000918128173907A8F48B819C81FC01228170
:101A800033818B819C81FC01848D882F90E091951E
:101A900081959109280F391F8B819C81FC01378327
:101AA00026838F81823031F48981882319F08981DE
:101AB00081508983898121E0280F8B819C81FC01E1
:101AC000228F8A8127960FB6F894DEBF0FBECDBF56
:101AD000DF91CF910895CF93DF9300D000D0CDB7A1
:101AE000DEB79A8389837C836B8389819A81FC0129
:101AF000848D8823C9F189819A81FC0126813781EF
:101B000089819A81FC01848D882F90E0280F391FEC
:101B100089819A81FC013783268389819A81FC011E
:101B20002681378189819A81FC01828193812817DE
:101B3000390750F089819A81FC01208131818981A6
:101B40009A81FC013783268389819A81FC01848DE7
:101B5000482F50E089819A81FC01268137818B8151
:101B60009C81B9010E941E1E00000F900F900F90E3
:101B70000F90DF91CF910895CF93DF9300D000D0E5
:101B8000CDB7DEB79C838B830FB6F8940F928B8111
:101B90009C81FC01868D898312C08B819C81FC0114
:101BA0008189882381F08B819C8141960E94021655
:101BB000882311F00E945E17898181508983898171
:101BC00018165CF301C000008B819C812FEFFC0193
:101BD000268F0F900FBE0FB6F8940F928B819C81C9
:101BE000FC01858D8A8312C08B819C81FC018085DC
:101BF000882381F08B819C8108960E94021688239D
:101C000011F00E945E178A8181508A838A8118169A
:101C10005CF301C000008B819C812FEFFC01258FBC
:101C20000F900FBE00000F900F900F900F90DF915C
:101C3000CF910895CF93DF9300D01F92CDB7DEB739
:101C40009B838A830FB6F8940F928A819B81FC0153
:101C5000828D882319F481E0898301C019820F9055
:101C60000FBE89810F900F900F90DF91CF91089553
:101C7000CF93DF9300D01F92CDB7DEB79B838A83CB
:101C80008A819B81FC01828D882319F481E08983FC
:101C900001C0198289810F900F900F90DF91CF9131
:101CA0000895CF93DF9300D01F92CDB7DEB79B830B
:101CB0008A830FB6F8940F928A819B81FC01228D52
:101CC0008A819B81FC01838D281719F481E0898327
:101CD00001C019820F900FBE89810F900F900F9055
:101CE000DF91CF910895CF93DF9300D01F92CDB7AE
:101CF000DEB79B838A838A819B81FC01228D8A8146
:101D00009B81FC01838D281719F481E0898301C030
:101D1000198289810F900F900F90DF91CF910895D4
:101D2000CF93DF93CDB7DEB729970FB6F894DEBF18
:101D30000FBECDBF9D838C837F836E835987488779
:101D40008C819D819B838A83F8948A819B810E94E8
:101D5000510E8823A1F088859985892B69F08A81A5
:101D60009B819C01285F3F4F88859985B9010E941E
:101D7000010178948CEF2CC0789480E029C078948D
:101D8000F8948A819B81FC01228D8A819B81FC01D0
:101D9000838D2817D0F42E813F818A819B8140E07A
:101DA000B9010E94B00C81E089838A819B81FC018A
:101DB0008189882359F08A819B8141960E94290359
:101DC000882321F08BEF898301C01982789489815F
:101DD00029960FB6F894DEBF0FBECDBFDF91CF912D
:101DE0000895CF93DF93CDB7DEB729970FB6F89458
:101DF000DEBF0FBECDBF9D838C837F836E835987EB
:101E000048878C819D819B838A83F8948A819B81FA
:101E1000FC01828D8823A1F488859985892B69F03E
:101E20008A819B819C012F5E3F4F88859985B901EE
:101E30000E94010178948CEF64C0789480E061C0C6
:101E40007894F8948A819B81FC01828D882309F41F
:101E500055C08A819B81FC01268137818A819B81C3
:101E6000FC01848D882F90E0280F391F8A819B8187
:101E7000FC01378326838A819B81FC01268137817F
:101E80008A819B81FC01828193812817390750F058
:101E90008A819B81FC01208131818A819B81FC01A7
:101EA000378326838A819B81FC01828D2FEF280F47
:101EB0008A819B81FC01228F8A819B81FC01848D18
:101EC000482F50E08A819B81FC01268137818E81D9
:101ED0009F81B9010E941E1E81E089838A819B81B6
:101EE000FC018085882359F08A819B8108960E9495
:101EF0002903882321F08BEF898301C0198278940C
:101F0000898129960FB6F894DEBF0FBECDBFDF9151
:101F1000CF910895CF93DF93CDB7DEB727970FB654
:101F2000F894DEBF0FBECDBF9C838B837E836D8311
:101F30004F838B819C819A83898389819A81FC015B
:101F4000228D89819A81FC01838D2817D0F42D81FF
:101F50003E8189819A8140E0B9010E94B00C8F8155
:101F6000882379F489819A81FC018189882349F049
:101F700089819A8141960E942903882311F081E08A
:101F800001C08F8127960FB6F894DEBF0FBECDBF7C
:101F9000DF91CF910895CF93DF93CDB7DEB7299727
:101FA0000FB6F894DEBF0FBECDBF9D838C837F83B9
:101FB0006E83598748878C819D819B838A838A8120
:101FC0009B81FC01828D882309F45EC08A819B81FC
:101FD000FC01268137818A819B81FC01848D882FB9
:101FE00090E0280F391F8A819B81FC01378326836B
:101FF0008A819B81FC01268137818A819B81FC013A
:10200000828193812817390750F08A819B81FC01D6
:10201000208131818A819B81FC01378326838A81DB
:102020009B81FC01828D2FEF280F8A819B81FC010F
:10203000228F8A819B81FC01848D482F50E08A8108
:102040009B81FC01268137818E819F81B9010E948D
:102050001E1E88859985FC018081882391F48A81E0
:102060009B81FC018085882361F08A819B81089691
:102070000E942903882329F08885998521E0FC01A5
:10208000208381E0898301C01982898129960FB656
:10209000F894DEBF0FBECDBFDF91CF9108958F9230
:1020A0009F92AF92BF92CF92DF92EF92FF920F93E7
:1020B0001F93CF93DF93CDB7DEB760970FB6F89439
:1020C000DEBF0FBECDBF9F838E83798768875B8716
:1020D0004A873D872C870E87F88AEF868A859B85FD
:1020E0000E94CC079D838C838C819D81892BB9F0C4
:1020F00086E290E00E94CC079A83898389819A8145
:10210000892B41F089819A812C813D81FC01308F9E
:10211000278B07C08C819D810E94210802C01A82F2
:10212000198289819A81892B09F18A859B85CC0145
:10213000A0E0B0E009811A814F8558892C853D8542
:1021400068857985EE81FF81812C912C58016A0187
:10215000EE8489019C01AD01CF010E94CC108981E0
:102160009A810E948E1181E08B8302C08FEF8B8356
:102170008B8160960FB6F894DEBF0FBECDBFDF91A6
:10218000CF911F910F91FF90EF90DF90CF90BF9074
:10219000AF909F908F9008958F929F92AF92BF9231
:1021A000CF92DF92EF920F931F93CF93DF93CDB730
:1021B000DEB764970FB6F894DEBF0FBECDBF9D8328
:1021C0008C837F836E83288739874A875B871D8747
:1021D0000C87EE86D88ACF86BA8AA98A9C8A8B8A8F
:1021E00089899A89FC012789308D8885998501978D
:1021F000820F931F9B838A83198221C08981882F34
:1022000090E02981222F30E04E815F81240F351F1D
:10221000F901408129893A89820F931F4996FC016F
:1022200040838981882F90E02E813F81820F931F08
:10223000FC018081882339F089818F5F89838981BE
:102240008830E0F201C0000089899A89FC0110A25F
:102250008E85843010F083E08E8789899A892E8557
:10226000FC01268B89899A8902960E9498038989A4
:102270009A890C960E94980389899A8929893A89B2
:10228000FC01318720878E85882F90E024E030E0A4
:10229000281B390B89899A89FC013587248789890C
:1022A0009A8929893A89FC01338B228B89899A89F9
:1022B000FC0111A212A213A214A289899A89FC011D
:1022C00015A24C855D852C813D818A819B81B90158
:1022D0000E94C8049C0189899A89FC01318320836A
:1022E0008F859889892B39F08F85988929893A8932
:1022F000FC0131832083000064960FB6F894DEBFA2
:102300000FBECDBFDF91CF911F910F91EF90DF9066
:10231000CF90BF90AF909F908F900895CF93DF9311
:1023200000D0CDB7DEB79A8389830FB6F8940F92A9
:102330008091A90D8F5F8093A90D80915A0D909186
:102340005B0D892B69F489819A8190935B0D809351
:102350005A0D8091A90D8130C9F40E947B1716C0D7
:102360008091AD0D882391F480915A0D90915B0D71
:10237000FC01268989819A81FC018689821730F0C7
:1023800089819A8190935B0D80935A0D8091B10D54
:102390008F5F8093B10D89819A81FC01968980912C
:1023A000AC0D891730F489819A81FC01868980936C
:1023B000AC0D89819A81AC014E5F5F4F89819A8112
:1023C000FC018689282F30E0C901880F991F880FEA
:1023D000991F880F991F820F931F845A924FBA0139
:1023E0000E94AA030F900FBE8091AD0D882371F05B
:1023F00080915A0D90915B0DFC01268989819A810B
:10240000FC018689281710F40E94AE0600000F9088
:102410000F90DF91CF910895CF93DF9300D000D03C
:10242000CDB7DEB79C838B830FB6F8940F928B8168
:102430009C81892B29F480915A0D90915B0D02C0EB
:102440008B819C819A83898389819A8102960E94DB
:10245000710489819A81FC0184899589892B29F0ED
:1024600089819A810C960E9471048091B10D8F5FD1
:102470008093B10D80915A0D90915B0D29813A8125
:102480002817390771F489819A810296BC018FE976
:102490009DE00E94AA038091A80D8F5F8093A80DF4
:1024A0000BC08091A90D81508093A90D89819A81DB
:1024B0000E94FA170E9412180F900FBE8091AD0D66
:1024C000882359F080915A0D90915B0D29813A81B2
:1024D0002817390711F40E94AE0600000F900F90E4
:1024E0000F900F90DF91CF910895CF93DF93CDB7E9
:1024F000DEB72A970FB6F894DEBF0FBECDBF988720
:102500008F837A87698719820E9454138091AA0D5C
:102510009091AB0D9B838A838F819885FC012081EC
:10252000318189859A85820F931F9D838C838F814A
:102530009885FC01208131818A819B8182179307D4
:10254000A0F48F819885FC01208131818C819D814F
:1025500082179307E8F42C813D818A819B81821741
:102560009307B0F481E0898313C08F819885FC01C3
:10257000208131818C819D818217930738F02C81D5
:102580003D818A819B818217930710F481E08983C2
:102590008F8198852C813D81FC0131832083898145
:1025A000882359F02C813D818A819B81A901481B98
:1025B000590BCA0160E00E942B1C0E9461138E839C
:1025C0008E81882311F40E94AE0600002A960FB671
:1025D000F894DEBF0FBECDBFDF91CF910895CF93AA
:1025E000DF9300D01F92CDB7DEB79B838A83198219
:1025F0008A819B81892B51F00E9454138A819B818F
:1026000060E00E942B1C0E946113898389818823CA
:1026100011F40E94AE0600000F900F900F90DF9112
:10262000CF910895EF92FF920F93CF93DF931F9274
:10263000CDB7DEB70F2EF4EBEF2EFDE0FF2EF02D21
:1026400000E020E030E045E550E068E071E089E638
:1026500097E10E944F1089838981813081F4F89439
:102660008FEF9FEF9093B30D8093B20D81E0809335
:10267000AD0D1092AB0D1092AA0D0E9471060000D4
:102680000F90DF91CF910F91FF90EF900895CF932E
:10269000DF93CDB7DEB7F8941092AD0D0E94A60679
:1026A0000000DF91CF910895CF93DF93CDB7DEB7D0
:1026B0008091B60D8F5F8093B60D0000DF91CF91B2
:1026C0000895CF93DF9300D000D0CDB7DEB71A8244
:1026D00019821B820FB6F8940F928091B60D81502B
:1026E0008093B60D8091B60D882309F077C0809154
:1026F000A90D882309F472C049C080919B0D909167
:102700009C0DFC01868197819A83898389819A81B6
:102710000C960E94710489819A8102960E9471042C
:1027200089819A81FC0196898091AC0D891730F4DA
:1027300089819A81FC0186898093AC0D89819A8177
:10274000AC014E5F5F4F89819A81FC018689282FF9
:1027500030E0C901880F991F880F991F880F991FB2
:10276000820F931F845A924FBA010E94AA03898153
:102770009A81FC01268980915A0D90915B0DFC0194
:102780008689281718F081E08093AF0D8091960D0F
:10279000882309F0B2CF89819A81892B11F00E9498
:1027A00012188091AE0D8C838C81882379F00E9461
:1027B0004C14882319F081E08093AF0D8C818150F7
:1027C0008C838C81882399F71092AE0D8091AF0D88
:1027D000882321F081E08B830E94AE060F900FBE0C
:1027E0008B810F900F900F900F90DF91CF910895F4
:1027F000CF93DF9300D0CDB7DEB70FB6F8940F922A
:102800008091AA0D9091AB0D9A8389830F900FBE92
:1028100089819A810F900F90DF91CF910895CF9386
:10282000DF9300D01F92CDB7DEB719828091AA0D39
:102830009091AB0D9B838A838A819B810F900F902F
:102840000F90DF91CF910895CF93DF93CDB7DEB78F
:102850008091A90DDF91CF910895CF93DF9300D0A0
:1028600000D0CDB7DEB79C838B838B819C81892B75
:1028700029F480915A0D90915B0D02C08B819C814F
:102880009A83898389819A8149960F900F900F903E
:102890000F90DF91CF910895CF93DF93CDB7DEB73F
:1028A00029970FB6F894DEBF0FBECDBF1982809175
:1028B000B60D882309F0C8C08091AA0D9091AB0D88
:1028C00001969B838A838A819B819093AB0D809331
:1028D000AA0D8A819B81892BD9F48091920D9091C8
:1028E000930D9D838C838091940D9091950D909381
:1028F000930D8093920D8C819D819093950D809383
:10290000940D8091B00D8F5F8093B00D0E941218CE
:102910008091B20D9091B30D2A813B812817390720
:1029200008F478C08091920D9091930DFC01808104
:10293000882339F48FEF9FEF9093B30D8093B20DFE
:1029400069C08091920D9091930DFC0185819681D3
:10295000FC01868197819F838E838E819F81FC01FC
:1029600082819381998788872A813B81888599858F
:102970002817390738F4888599859093B30D80938B
:10298000B20D48C08E819F8102960E9471048E8193
:102990009F81FC0184899589892B29F08E819F81F3
:1029A0000C960E9471048E819F81FC019689809112
:1029B000AC0D891730F48E819F81FC01868980934C
:1029C000AC0D8E819F81AC014E5F5F4F8E819F81E8
:1029D000FC018689282F30E0C901880F991F880FD4
:1029E000991F880F991F820F931F845A924FBA0123
:1029F0000E94AA038E819F81FC01268980915A0D35
:102A000090915B0DFC018689281708F48BCF81E03B
:102A1000898388CF80915A0D90915B0DFC01868946
:102A2000282F30E0C901880F991F880F991F880F40
:102A3000991F820F931F845A924FFC01808182302C
:102A400040F081E0898305C08091AE0D8F5F809357
:102A5000AE0D8091AF0D882311F081E089838981CB
:102A600029960FB6F894DEBF0FBECDBFDF91CF9190
:102A70000895CF93DF9300D01F92CDB7DEB780913A
:102A8000B60D882321F081E08093AF0D5FC01092D6
:102A9000AF0D8091AC0D898303C0898181508983FA
:102AA0008981282F30E0C901880F991F880F991F4D
:102AB000880F991F820F931F845A924FFC018081C7
:102AC000882359F38981282F30E0C901880F991F85
:102AD000880F991F880F991F820F931F845A924F56
:102AE0009B838A838A819B81FC0181819281FC0185
:102AF000228133818A819B81FC01328321838A81F7
:102B00009B81FC01218132818A819B810396281758
:102B1000390769F48A819B81FC0181819281FC01E2
:102B2000228133818A819B81FC01328321838A81C6
:102B30009B81FC0181819281FC0186819781909328
:102B40005B0D80935A0D89818093AC0D00000F902E
:102B50000F900F90DF91CF910895CF93DF9300D026
:102B600000D0CDB7DEB79A8389837C836B83809155
:102B70005A0D90915B0D9C01245F3F4F89819A8192
:102B8000B9010E94F9038B819C8161E00E942B1C9A
:102B900000000F900F900F900F90DF91CF9108954C
:102BA000CF93DF9300D000D000D0CDB7DEB79A83AB
:102BB00089837C836B835E834D8380915A0D9091D2
:102BC0005B0D2B813C813068FC0135872487809127
:102BD0005A0D90915B0D9C01245F3F4F89819A8132
:102BE000B9010E94AA038D819E8161E00E942B1C85
:102BF000000026960FB6F894DEBF0FBECDBFDF9162
:102C0000CF910895CF93DF9300D000D01F92CDB71E
:102C1000DEB79D838C838C819D81FC0185819681AB
:102C2000FC01868197819B838A838A819B810C9694
:102C30000E9471048091B60D882369F58A819B8179
:102C400002960E9471048A819B81FC019689809181
:102C5000AC0D891730F48A819B81FC0186898093B1
:102C6000AC0D8A819B81AC014E5F5F4F8A819B8155
:102C7000FC018689282F30E0C901880F991F880F31
:102C8000991F880F991F820F931F845A924FBA0180
:102C90000E94AA0308C08A819B810C96BC0186E928
:102CA0009DE00E94AA038A819B81FC012689809174
:102CB0005A0D90915B0DFC018689821730F481E0FA
:102CC000898381E08093AF0D01C0198289810F90C3
:102CD0000F900F900F900F90DF91CF910895CF93A9
:102CE000DF93CDB7DEB727970FB6F894DEBF0FBEE0
:102CF000CDBF9D838C837F836E838E819F819C015A
:102D000030688C819D81FC01318320838C819D8181
:102D1000FC01868197819B838A838C819D810E949F
:102D200071048A819B8102960E9471048A819B8131
:102D3000FC0196898091AC0D891730F48A819B81C2
:102D4000FC0186898093AC0D8A819B81AC014E5F2A
:102D50005F4F8A819B81FC018689282F30E0C90161
:102D6000880F991F880F991F880F991F820F931F33
:102D7000845A924FBA010E94AA038A819B81FC0166
:102D8000268980915A0D90915B0DFC0186898217EE
:102D900030F481E0898381E08093AF0D01C0198216
:102DA000898127960FB6F894DEBF0FBECDBFDF91A5
:102DB000CF910895CF93DF9300D0CDB7DEB79A833C
:102DC00089832091B00D89819A81FC012083209113
:102DD000AA0D3091AB0D89819A81FC013283218348
:102DE00000000F900F90DF91CF910895CF93DF9364
:102DF000CDB7DEB727970FB6F894DEBF0FBECDBFB5
:102E00009D838C837F836E830FB6F8940F9280919D
:102E1000AA0D9091AB0D9B838A838C819D81FC01CF
:102E200090818091B00D981769F08C819D81FC0193
:102E3000218132818A819B818217930718F081E07A
:102E4000898330C08C819D81FC01818192812A819E
:102E50003B81281B390B8E819F81FC0180819181F0
:102E600028173907E8F48E819F81FC012081318188
:102E70008C819D81FC01418152818A819B81BA01B3
:102E8000681B790BCB01280F391F8E819F81FC01B4
:102E9000318320838C819D810E94DA16198202C0C1
:102EA00081E089830F900FBE898127960FB6F89431
:102EB000DEBF0FBECDBFDF91CF910895CF93DF93DB
:102EC000CDB7DEB781E08093AF0D0000DF91CF91E9
:102ED0000895CF93DF9300D0CDB7DEB79A8389836F
:102EE0000E94B91780915C0D823010F00E94AE06EE
:102EF0000E946A1DF5CFCF93DF931F92CDB7DEB747
:102F0000198213C08981282F30E0C901880F991FC9
:102F1000880F991F880F991F820F931F845A924F11
:102F20000E94620389818F5F89838981843050F395
:102F300080E89DE00E94620389E89DE00E946203B0
:102F400086E99DE00E9462038FE99DE00E94620392
:102F500080E89DE09093930D8093920D89E89DE029
:102F60009093950D8093940D00000F90DF91CF9179
:102F70000895CF93DF9300D01F92CDB7DEB72FC057
:102F80000E94541390919F0D81E0992309F080E0F5
:102F900089830E9461138981882309F50FB6F8940B
:102FA0000F928091A40D9091A50DFC0186819781CF
:102FB0009B838A838A819B8102960E9471048091FF
:102FC000A90D81508093A90D8091A80D8150809307
:102FD000A80D0F900FBE8A819B810E94FA178091E5
:102FE000A80D882369F600000F900F900F90DF91D5
:102FF000CF910895CF93DF9300D0CDB7DEB79A83FA
:10300000898389819A81FC018789908D0E9421089A
:1030100089819A810E94210800000F900F90DF9112
:10302000CF910895CF93DF9300D0CDB7DEB78091D5
:10303000920D9091930DFC018081882339F48FEFDC
:103040009FEF9093B30D8093B20D15C08091920DB8
:103050009091930DFC0185819681FC018681978179
:103060009A83898389819A81FC01828193819093DB
:10307000B30D8093B20D00000F900F90DF91CF91B0
:103080000895CF93DF9300D0CDB7DEB780915A0D6E
:1030900090915B0DFC01848595859A83898380914D
:1030A0005A0D90915B0D20915A0D30915B0DF901F5
:1030B0002689222F30E044E050E0BA01621B730BF6
:1030C0009B01FC013587248789819A810F900F909D
:1030D000DF91CF910895CF93DF93CDB7DEB72797D8
:1030E0000FB6F894DEBF0FBECDBF8D837F836E8396
:1030F0000FB6F8940F9280915A0D90915B0DFC01E0
:1031000081A192A1A3A1B4A1892B8A2B8B2B91F42D
:1031100080915A0D90915B0D21E0FC0125A38E81D9
:103120009F81892B39F08E819F8161E00E942B1C49
:103130000E94AE060F900FBE0FB6F8940F928091CA
:103140005A0D90915B0DFC0181A192A1A3A1B4A1A4
:1031500089839A83AB83BC8389819A81AB81BC814B
:10316000892B8A2B8B2BE9F08D81882351F080915C
:103170005A0D90915B0DFC0111A212A213A214A290
:1031800010C020915A0D30915B0D89819A81AB81DD
:10319000BC810197A109B109F90181A392A3A3A35D
:1031A000B4A380915A0D90915B0DFC0115A20F9074
:1031B0000FBE89819A81AB81BC81BC01CD0127966C
:1031C0000FB6F894DEBF0FBECDBFDF91CF9108954B
:1031D000EF92FF920F931F93CF93DF93CDB7DEB79C
:1031E0002D970FB6F894DEBF0FBECDBF6A837B83E9
:1031F0008C839D832E833F83488759871B870A874B
:10320000FD86EC860FB6F8940F9280915A0D90913E
:103210005B0DFC0185A1823061F160915A0D7091C6
:103220005B0DFB0121A132A143A154A18A819B81A5
:10323000AC81BD8180959095A095B0958223932314
:10324000A423B523FB0181A392A3A3A3B4A38091DC
:103250005A0D90915B0D21E0FC0125A38C859D8585
:10326000892B39F08C859D8561E00E942B1C0E9482
:10327000AE060F900FBE0FB6F8940F928A859B850D
:10328000892B81F080915A0D90915B0DFC0181A1F9
:1032900092A1A3A1B4A12A853B85F90180839183E2
:1032A000A283B38380915A0D90915B0DFC0185A19F
:1032B000813011F419821CC060915A0D70915B0D20
:1032C000FB0121A132A143A154A18E819F81A88538
:1032D000B98580959095A095B09582239323A423DA
:1032E000B523FB0181A392A3A3A3B4A381E08983A7
:1032F00080915A0D90915B0DFC0115A20F900FBEAD
:1033000089812D960FB6F894DEBF0FBECDBFDF9139
:10331000CF911F910F91FF90EF9008950F931F93FE
:10332000CF93DF93CDB7DEB72D970FB6F894DEBFFE
:103330000FBECDBF9E838D834F83588769877A8761
:103340002B871D870C8781E089838D819E819B83DC
:103350008A830FB6F8940F928C859D85892B71F026
:103360008A819B81FC0181A192A1A3A1B4A12C859A
:103370003D85F90180839183A283B3838A819B81F8
:10338000FC0185A18C838A819B8122E0FC0125A31D
:103390008B85882F90E08230910531F18330910543
:1033A00034F4009709F44FC0019739F04DC08330D1
:1033B000910561F10497B1F147C08A819B81FC01BD
:1033C00021A132A143A154A18F819885A985BA85F5
:1033D000822B932BA42BB52B2A813B81F90181A34E
:1033E00092A3A3A3B4A330C08A819B81FC0181A1D5
:1033F00092A1A3A1B4A10196A11DB11D2A813B8177
:10340000F90181A392A3A3A3B4A31EC02A813B8187
:103410008F819885A985BA85F90181A392A3A3A379
:10342000B4A312C08C81823061F02A813B818F81EC
:103430009885A985BA85F90181A392A3A3A3B4A312
:1034400003C0198201C000008C818130D1F58A81CE
:103450009B8102960E9471048A819B81FC0196895E
:103460008091AC0D891730F48A819B81FC0186899B
:103470008093AC0D8A819B81AC014E5F5F4F8A8146
:103480009B81FC018689282F30E0C901880F991F94
:10349000880F991F880F991F820F931F845A924F8C
:1034A000BA010E94AA038A819B81FC01268980912E
:1034B0005A0D90915B0DFC018689821710F40E94D1
:1034C000AE060F900FBE89812D960FB6F894DEBF21
:1034D0000FBECDBFDF91CF911F910F910895EF9255
:1034E000FF920F931F93CF93DF93CDB7DEB7609713
:1034F0000FB6F894DEBF0FBECDBF9F838E83488783
:1035000059876A877B872C871E870D87F88AEF8605
:1035100081E089838E819F819B838A831C828D8534
:103520009E85892B71F08A819B81FC0181A192A1EA
:10353000A3A1B4A12D853E85F90180839183A28347
:10354000B3838A819B81FC0185A18D838A819B81C4
:1035500022E0FC0125A38C85882F90E08230910524
:1035600031F18330910534F4009709F44FC001978D
:1035700039F04DC08330910561F10497B1F147C036
:103580008A819B81FC0121A132A143A154A188859C
:103590009985AA85BB85822B932BA42BB52B2A81D9
:1035A0003B81F90181A392A3A3A3B4A330C08A8174
:1035B0009B81FC0181A192A1A3A1B4A10196A11DAF
:1035C000B11D2A813B81F90181A392A3A3A3B4A3D6
:1035D0001EC02A813B8188859985AA85BB85F90112
:1035E00081A392A3A3A3B4A312C08D81823061F002
:1035F0002A813B8188859985AA85BB85F90181A3AC
:1036000092A3A3A3B4A303C0198201C000008D81BB
:10361000813009F052C08091B60D882369F58A8106
:103620009B8102960E9471048A819B81FC0196898C
:103630008091AC0D891730F48A819B81FC018689C9
:103640008093AC0D8A819B81AC014E5F5F4F8A8174
:103650009B81FC018689282F30E0C901880F991FC2
:10366000880F991F880F991F820F931F845A924FBA
:10367000BA010E94AA0308C08A819B810C96BC01F2
:1036800086E99DE00E94AA038A819B81FC0126892C
:1036900080915A0D90915B0DFC018689821768F428
:1036A0008F859889892B31F08F85988921E0FC01DD
:1036B000208303C081E08093AF0D898160960FB6AF
:1036C000F894DEBF0FBECDBFDF91CF911F910F9158
:1036D000FF90EF900895CF93DF93CDB7DEB7289793
:1036E0000FB6F894DEBF0FBECDBF9E838D83788763
:1036F0006F838D819E819A8389831B8289819A81C0
:10370000FC0185A18C8389819A8122E0FC0125A39B
:1037100089819A81FC0181A192A1A3A1B4A1019602
:10372000A11DB11D29813A81F90181A392A3A3A30F
:10373000B4A38C81813009F052C08091B60D8823EA
:1037400069F589819A8102960E94710489819A8122
:10375000FC0196898091AC0D891730F489819A819A
:10376000FC0186898093AC0D89819A81AC014E5F02
:103770005F4F89819A81FC018689282F30E0C90139
:10378000880F991F880F991F880F991F820F931F09
:10379000845A924FBA010E94AA0308C089819A8173
:1037A0000C96BC0186E99DE00E94AA0389819A815A
:1037B000FC01268980915A0D90915B0DFC01868950
:1037C000821768F48F819885892B31F08F819885D5
:1037D00021E0FC01208303C081E08093AF0D000055
:1037E00028960FB6F894DEBF0FBECDBFDF91CF9104
:1037F0000895CF93DF9300D000D01F92CDB7DEB7EE
:103800009D838C838C819D81892B29F480915A0D15
:1038100090915B0D02C08C819D819B838A830FB642
:10382000F8940F928A819B81FC0185A1823039F442
:103830008A819B81FC0115A281E0898301C01982E4
:103840000F900FBE89810F900F900F900F900F90E7
:10385000DF91CF910895CF93DF93CDB7DEB7279750
:103860000FB6F894DEBF0FBECDBF9E838D836F83EE
:103870008091AA0D9091AB0D9A83898380915A0D06
:1038800090915B0D02960E94710429813A818D818D
:103890009E81820F931F9C838B8380915A0D909100
:1038A0005B0D2B813C81FC01338322832B813C8186
:1038B00089819A812817390778F480915A0D90915F
:1038C0005B0D9C012E5F3F4F8091940D9091950D63
:1038D000B9010E94F9031DC080915A0D90915B0DB2
:1038E0009C012E5F3F4F8091920D9091930DB901F5
:1038F0000E94F9038091B20D9091B30D2B813C8110
:103900002817390730F48B819C819093B30D8093F5
:10391000B20D000027960FB6F894DEBF0FBECDBFE4
:10392000DF91CF910895EF92FF920F93CF93DF93A2
:10393000CDB7DEB740E061E080E10E94DF08909300
:10394000BA0D8093B90D40E061E080E10E94DF088C
:103950009093B80D8093B70D87E390E027E330E0B4
:10396000F90120812160FC01208387E390E027E3B7
:1039700030E0F90120812260FC0120830E949D1D1E
:10398000E12CF12C01E020E030E045E550E06DE075
:1039900071E084EE9CE10E944F10E12CF12C02E0DA
:1039A00020E030E045E550E064E171E089E19DE12F
:1039B0000E944F100E94121380E090E0DF91CF919F
:1039C0000F91FF90EF900895CF93DF9300D0CDB784
:1039D000DEB79A83898388E390E028E330E0F90139
:1039E000308121E02327FC0120838091B90D909143
:1039F000BA0DBC0180E091E00E94371D88E390E0A1
:103A000028E330E0F901308121E02327FC01208305
:103A100088EC90E00E94EF12DECFCF93DF9300D0CE
:103A2000CDB7DEB79A83898382E390E00E94EF12DC
:103A3000FBCFCF93DF9300D0CDB7DEB79A838983D6
:103A40008091B90D9091BA0D20E04FEF5FEF6CE2DD
:103A500070E00E94D50A00008BE290E0FC018081BA
:103A6000882F90E080729927892BB1F3E9CFCF930B
:103A7000DF9300D000D01F92CDB7DEB79B838A833F
:103A80007D836C83198212C08981882F90E02A81FE
:103A90003B81B901680F791F8C819D8120E045E051
:103AA00050E00E946B0989818F5F89838981882F0B
:103AB00090E02A813B81820F931FFC018081882343
:103AC00019F700000F900F900F900F900F90DF915B
:103AD000CF910895CF93DF93CDB7DEB788E390E021
:103AE00028E330E0F901308122E02327FC01208324
:103AF0000000DF91CF9108951F920F9200905F0018
:103B00000F9211248F939F93EF93FF93CF93DF93A3
:103B1000CDB7DEB78CE290E0FC0180818093BB0DD5
:103B20000000DF91CF91FF91EF919F918F910F90C6
:103B300000925F000F901F901895CF93DF93CDB741
:103B4000DEB780E990E0FC01108289E290E027E492
:103B5000FC0120838AE290E028E1FC012083000040
:103B6000DF91CF910895CF93DF931F92CDB7DEB74A
:103B7000898300008CE290E02981FC012083000011
:103B80000F90DF91CF910895CF93DF931F92CDB720
:103B9000DEB7898300008CE290E02981FC0120835C
:103BA00000000F90DF91CF910895CF93DF9300D065
:103BB0001F92CDB7DEB79B838A8319821BC000009A
:103BC0008BE290E0FC018081882F90E08072992741
:103BD000892BB1F38CE290E02981222F30E04A81D9
:103BE0005B81240F351FF9012081FC01208389812D
:103BF0008F5F89838981882F90E02A813B81820FA2
:103C0000931FFC0180818823D1F600000F900F9054
:103C10000F90DF91CF910895CF93DF93CDB7DEB7AB
:103C200000008BE290E0FC0180818823D4F78CE2D5
:103C300090E0FC018081DF91CF910895FB01DC01D0
:103C400002C001900D9241505040D8F70895F89469
:023C5000FFCFA4
:103C520048656C6C6F21200049444C4500526564F4
:0C3C62004C454400554152543054780049
:00000001FF
