:100000000C9446000C9463000C9463000C94630001
:100010000C9463000C9463000C9463000C946300D4
:100020000C9463000C9463000C9463000C946300C4
:100030000C9461040C9463000C9463000C946300B2
:100040000C9463000C9463000C94E2100C94630015
:100050000C9463000C9463000C9463000C94630094
:100060000C9463000C9463000C9463000C94630084
:100070000C9463000C9463000C9463000C94630074
:100080000C9463000C9463000C94630011241FBE55
:10009000CFEFD0E1DEBFCDBF11E0A0E0B1E0E2E7FD
:1000A000F2E202C005900D92AC31B107D9F72DE014
:1000B000ACE1B1E001C01D92AB3BB207E1F70E9499
:1000C0009C100C9437110C940000CF92DF92EF92A9
:1000D000FF921F93CF93DF936C01162FF42E8AE1CA
:1000E00090E00E946404EC01892B09F45DC08091CA
:1000F0001C0190911D01892B21F5D0931D01C09306
:100100001C0184E491E00E947F028DE491E00E9452
:100110007F028BE391E00E947F0282E391E00E94E4
:100120007F0285E291E00E947F028BE391E0909351
:1001300031018093300182E391E090932F0180930D
:100140002E01111111E0198E188E1E8BFF8AFE01EF
:10015000C192D1927F01CF010E948D02CE010C96F7
:100160000E948D02D987C887DB8BCA8B82E090E022
:10017000811B91099D878C878E8990912401981706
:1001800010F48093240190E09C01220F331F220F72
:10019000331F220F331F820F931FB7018C5B9E4FBB
:1001A0000E94910281E001C08FEFDF91CF911F91FA
:1001B000FF90EF90DF90CF9008950F931F93CF9310
:1001C000DF938B01C0912201D0912301C80FD91F69
:1001D00080911C0190911D0102960E94E302E09122
:1001E0001C01F0911D01D383C28380912201909163
:1001F0002301C817D90750F4BF016E5F7F4F80916C
:100200002E0190912F010E94B20209C0BF016E5FC2
:100210007F4F80913001909131010E94B20201150F
:10022000110549F060911C0170911D01645F7F4FC1
:10023000C8010E94B202DF91CF911F910F910895E2
:10024000EF92FF920F931F93CF93DF93809125013D
:10025000882399F10F2EF5E2EF2EF1E0FF2EF02D1D
:10026000F894D7011596ED91FC911697C681D78128
:10027000CE010C960E94E30278948E010E5F1F4F10
:10028000C8010E94E3028E8990912401981710F40E
:100290008093240190E09C01220F331F220F331F13
:1002A000220F331F820F931FB8018C5B9E4F0E9459
:1002B0009102F70180818111D3CF0E94CB0A209156
:1002C000200130912101821B930B90931F01809399
:1002D0001E016FC08091220190912301019690939D
:1002E0002301809322012150310930931F01209373
:1002F0001E01009781F4209130013091310140912D
:100300002E0150912F0150933101409330013093D1
:100310002F0120932E01E0913001F09131012081D5
:10032000222309F446C00580F681E02DC681D781DD
:100330002A813B818217930778F43BC00580F681C0
:10034000E02DC681D7812A813B8180912201909145
:1003500023018217930768F1F8948E010E5F1F4FF7
:10036000C8010E94E3028C899D89892B21F0CE016E
:100370000C960E94E30278948E899091240198173C
:1003800010F48093240190E09C01220F331F220F70
:10039000331F220F331F820F931FB8018C5B9E4FB8
:1003A0000E949102E0913001F09131018081811130
:1003B000C5CF20911E0130911F012115310509F093
:1003C00089CF809122019091230190932101809304
:1003D000200180912401282F30E0F901EE0FFF1F4A
:1003E000EE0FFF1FEE0FFF1FE20FF31FEC5BFE4F40
:1003F000908191111BC0811106C055C0811103C0AD
:100400001092240150C08150282F30E0F901EE0FE6
:10041000FF1FEE0FFF1FEE0FFF1FE20FF31FEC5B3E
:10042000FE4F9081992351F380932401C901880FD5
:10043000991F880F991F880F991F820F931FDC0146
:10044000AC5BBE4F1196ED91FC9112970280F38147
:10045000E02D1296FC93EE931197895B9E4FE8175F
:10046000F90729F482819381FD0192838183F90147
:10047000EE0FFF1FEE0FFF1FEE0FFF1F2E0F3F1F90
:10048000F901EC5BFE4F0180F281E02D86819781BE
:1004900090931D0180931C01DC01ED91FC9111975B
:1004A00057966C910995DF91CF911F910F91FF9015
:1004B000EF9008950F931F93CF93DF93DC01159670
:1004C000ED91FC911697C681D7818E01045F1F4F75
:1004D000C8010E94E302B80185E291E00E94910206
:1004E000E0911C01F0911D0181E02E899689291768
:1004F00008F480E0DF91CF911F910F910895FC01E6
:100500000396928381832FEF3FEF34832383968377
:1005100085839087878310820895FC011186108659
:100520000895CF93DF939C01FB01DC011196CD91DF
:10053000DC911297D383C2838C819D8195838483C0
:100540008C819D81DC0113967C936E9312977D8341
:100550006C8331872087F90180818F5F8083DF91F1
:10056000CF910895CF93DF93EB01488159814F3F9D
:100570002FEF520721F4FC01A781B0850DC0DC01EB
:10058000139601C0DF011296ED91FC911397208123
:10059000318142175307B0F71296ED91FC911397F2
:1005A000FB83EA83D583C483BD83AC831396DC933A
:1005B000CE93129799878887FC0120812F5F208333
:1005C000DF91CF910895CF93DF93FC01A085B18592
:1005D000C281D381848195819D838C83C481D5819F
:1005E000828193819B838A8311968D919C9112972E
:1005F000E817F90731F48481958112969C938E93C4
:100600001197118610868C9181508C93DF91CF9138
:10061000089531E1FC013083319722E22083319744
:10062000A3E3A08331976083319770833197108261
:10063000319760E8608331971082319762E0608380
:10064000319763E06083319764E06083319765E0C0
:100650006083319766E06083319767E0608331970C
:1006600068E06083319769E06083319760E160837F
:1006700031973083319732E13083319733E13083E2
:10068000319734E13083319735E13083319736E16A
:100690003083319737E13083319738E130833197B8
:1006A00039E13083319730E23083319731E2308362
:1006B00031972083319723E220833197408331970C
:1006C0005083319726E22083319727E220833197A8
:1006D00028E22083319729E22083319720E3208389
:1006E000319721E320838697089586E08BBD8FEBB9
:1006F0008ABD8BE08EBD87B7806187BFA0915A0D00
:10070000B0915B0DCD91CDBFDD91DEBFFF91EF913B
:10071000DF91CF91BF91AF919F918F917F916F9119
:100720005F914F913F912F911F910F91FF90EF900B
:10073000DF90CF90BF90AF909F908F907F906F9001
:100740005F904F903F902F901F900F900FBE0F9093
:10075000089581E0089508950F920FB6F8940F92CE
:100760001F9211242F923F924F925F926F927F922D
:100770008F929F92AF92BF92CF92DF92EF92FF92B1
:100780000F931F932F933F934F935F936F937F9399
:100790008F939F93AF93BF93CF93DF93EF93FF9389
:1007A000A0915A0DB0915B0D0DB60D920EB60D9243
:1007B0000E94B00CA0915A0DB0915B0DCD91CDBFB0
:1007C000DD91DEBFFF91EF91DF91CF91BF91AF91AE
:1007D0009F918F917F916F915F914F913F912F9159
:1007E0001F910F91FF90EF90DF90CF90BF90AF904F
:1007F0009F908F907F906F905F904F903F902F9041
:100800001F900F900FBE0F9008950F920FB6F8949F
:100810000F921F9211242F923F924F925F926F92EC
:100820007F928F929F92AF92BF92CF92DF92EF9280
:10083000FF920F931F932F933F934F935F936F9369
:100840007F938F939F93AF93BF93CF93DF93EF9358
:10085000FF93A0915A0DB0915B0D0DB60D920EB69F
:100860000D920E94E50A81110E94B00CA0915A0DD0
:10087000B0915B0DCD91CDBFDD91DEBFFF91EF91CA
:10088000DF91CF91BF91AF919F918F917F916F91A8
:100890005F914F913F912F911F910F91FF90EF909A
:1008A000DF90CF90BF90AF909F908F907F906F9090
:1008B0005F904F903F902F901F900F900FBE0F9022
:1008C00008950E9405041895CF93DF93EC010E94D0
:1008D000C50A8091560190915701892B31F48BE51F
:1008E00091E09093570180935601209158013091E7
:1008F0005901C9018C0F9D1F8F3F4BE0940770F485
:100900002817390770F4C0915601D0915701C20FD2
:10091000D31F909359018093580105C0C0E0D0E0E7
:1009200002C0C0E0D0E00E94A00BCE01DF91CF91C9
:100930000895089510925901109258010895209138
:100940005801309159018FEF9BE0821B930B089562
:100950000F931F93CF93DF93EC01042F1A8D4C8DCF
:100960004423B9F1011116C050E08C819D810E9491
:100970002E112C8D8C819D81820F911D9D838C83E6
:100980002A813B818217930720F1888199819D8379
:100990008C831FC050E08E819F810E942E118C8D10
:1009A00090E09195819591092E813F81280F391F03
:1009B0003F832E83488159812417350730F42A81DB
:1009C0003B81820F931F9F838E83023011F411119C
:1009D00011501F5F1A8F80E0DF91CF911F910F910F
:1009E0000895FC01448D4423A9F050E0268137810D
:1009F000240F351F37832683828193812817390777
:100A000020F08081918197838683CB0166817781F5
:100A10000E942E110895EF92FF920F931F93CF9390
:100A20008C010FB6F8940F92FC01C68D1C16ACF425
:100A30008189811106C011C0F8018189811105C029
:100A40000CC07801F1E1EF0EF11CC7010E94410DCD
:100A500081110E94000EC15079F78FEFF801868F47
:100A60000F900FBE0FB6F8940F92C58D1C16ACF404
:100A70008085811106C011C0F8018085811105C0F3
:100A80000CC07801F8E0EF0EF11CC7010E94410D87
:100A900081110E94000EC15079F78FEFF801858F08
:100AA0000F900FBECF911F910F91FF90EF9008957F
:100AB000CF93DF93EC010FB6F8940F9248815981E0
:100AC0002C8D30E07B8D729FC001739F900D11249F
:100AD000FA01E80FF91FFB83EA831A8E5D834C83CA
:100AE000821B930B840F951F9F838E838FEF8D8FB7
:100AF0008E8F61110CC08885882389F0CE010896FD
:100B00000E94410D882359F00E94AC0308C0CE0119
:100B100008960E947F02CE0141960E947F020F90AC
:100B20000FBE81E0DF91CF9108950F931F93CF9374
:100B3000DF93082F162F6623C1F0869FC001112472
:100B40004F960E946404EC01009741F415C00B8F8E
:100B50001C8F61E0CE010E9458050EC04F9699830C
:100B60008883F5CFD983C883F2CF8FE190E00E94CC
:100B70006404EC01892BB1F7CE01DF91CF911F9175
:100B80000F9108959F92AF92BF92CF92DF92EF9212
:100B9000FF920F931F93CF93DF9300D000D01F924B
:100BA000CDB7DEB78C016B015D834C83A22EB12CD7
:100BB000992493947C0188E0E80EF11C0FB6F89418
:100BC0000F92F801928D838D981718F0F2E0AF1212
:100BD00019C04A2DB601C8010E94A804F8019189E4
:100BE000992349F0C80141960E94410D882331F0B4
:100BF0000E94AC0303C081110E94AC030F900FBE92
:100C000081E050C08C819D81892B21F40F900FBE13
:100C100080E048C0B11005C0CE0101960E94C30D0E
:100C2000B92C0F900FBE0E94C50A0FB6F8940F9210
:100C3000F801858D8F3F09F4158EF801868D8F3F61
:100C400009F4168E0F900FBEBE016C5F7F4FCE0170
:100C500001960E94CE0D81111FC00FB6F8940F921D
:100C6000F801928D0F900FBE838D98130FC06C8189
:100C70007D81C7010E94160DC8010E940B050E94CC
:100C8000A00B81119BCF0E94AC0398CFC8010E949A
:100C90000B050E94A00B92CFC8010E940B050E9479
:100CA000A00B80E00F900F900F900F900F90DF91AE
:100CB000CF911F910F91FF90EF90DF90CF90BF9059
:100CC000AF909F900895EF92FF920F931F93CF9351
:100CD000DF938A01FC01528D338D531710F02230BF
:100CE000F1F4422F7801EC011E8D0E94A8041F3FF1
:100CF00081F489898823A9F0CE0141960E94410D93
:100D0000882389F0E114F10481F081E0F701808308
:100D10000DC0FF24F394F10EFE8E81E007C080E049
:100D200005C081E003C081E001C081E0DF91CF9187
:100D30001F910F91FF90EF900895CF93DF93FC01E7
:100D4000828D938D8917C0F4968D8F5F828F9F3F20
:100D500079F48189882391F0EB01CF0141960E94BB
:100D6000410D882369F0209769F081E088830BC0EA
:100D70009F5F968F81E007C080E005C081E003C0DF
:100D800081E001C081E0DF91CF9108958F929F9221
:100D9000AF92BF92CF92DF92EF92FF920F931F9389
:100DA000CF93DF9300D000D01F92CDB7DEB78C0178
:100DB0005B015D834C83822EE12C992493946C011A
:100DC00081E1C80ED11C0FB6F8940F92F801F28C95
:100DD000FF2041F1C680D780B501C8010E94F1040F
:100DE00081100FC0FA94F801F28E80858823B1F04B
:100DF000C80108960E94410D882381F00E94AC032F
:100E00000DC0F801D782C6828189882339F0C801D4
:100E100041960E94410D81110E94AC030F900FBEBC
:100E200081E057C08C819D81892B21F40F900FBEEA
:100E300080E04FC0E11005C0CE0101960E94C30DB5
:100E4000E92C0F900FBE0E94C50A0FB6F8940F92BE
:100E5000F801858D8F3F09F4158EF801868D8F3F3F
:100E600009F4168E0F900FBEBE016C5F7F4FCE014E
:100E700001960E94CE0D81111EC00FB6F8940F92FC
:100E8000F801828D0F900FBE81110FC06C817D81A2
:100E9000C6010E94160DC8010E940B050E94A00BFE
:100EA000811191CF0E94AC038ECFC8010E940B0527
:100EB0000E94A00B88CFC8010E940B050E94A00BC6
:100EC0000FB6F8940F92F801828D0F900FBE81112A
:100ED0007ACF0F900F900F900F900F90DF91CF91DE
:100EE0001F910F91FF90EF90DF90CF90BF90AF9048
:100EF0009F908F900895EF92FF920F931F93CF933F
:100F0000DF93FC01C28DCC23F9F07A018C01D58DE1
:100F10000E94F104C150F801C28FDF3F81F4808547
:100F20008823A1F0C80108960E94410D882381F012
:100F3000E114F10479F081E0F70180830CC0DF5FF8
:100F4000F801D58F81E007C080E005C081E003C0D3
:100F500081E001C081E0DF91CF911F910F91FF905F
:100F6000EF9008950F931F93CF93DF93FC01228D91
:100F7000222349F0EC01068117810E94F1041F83AE
:100F80000E8381E001C080E0DF91CF911F910F912E
:100F900008950FB6F8940F92FC01828D0F900FBE4A
:100FA00008950FB6F8940F92FC01228D0F900FBE9A
:100FB000838D821B0895FC01828D08950E949904FF
:100FC0000895FC01928D81E0911180E00895FC016B
:100FD000928D81E0238D291380E00895CF93DF93D4
:100FE000EC01F8940FB6F8940F922A8D9B8D0F9018
:100FF0000FBE29130FC04115510549F0BE01685FAE
:101000007F4FCA010E94DD0078948CEF1DC0789458
:1010100080E01AC07894F8948A8D891778F440E0BB
:10102000CE010E94A8048989882351F0CE014196FF
:101030000E945A02882331F08BEF05C080E003C084
:1010400081E001C081E07894DF91CF910895CF9342
:10105000DF93EC019B01F8949A8D91110FC041151B
:10106000510549F0BE016F5E7F4FCA010E94DD004D
:1010700078948CEF32C0789480E02FC07894F89404
:101080008A8D882321F14C8D50E08E819F81840FC1
:10109000951F9F838E836A817B818617970720F037
:1010A000888199819F838E838A8D81508A8F6E81FA
:1010B0007F81C9010E942E118885882351F0CE01BD
:1010C00008960E945A02882331F08BEF05C080E019
:1010D00003C081E001C081E07894DF91CF91089551
:1010E0000F931F93CF93FC01328D238D3217B8F4E9
:1010F000C42F8C0140E00E94A804C1110DC0F8016A
:101100008189882359F0C80141960E945A0241E022
:10111000811105C040E003C04C2F01C040E0842F86
:10112000CF911F910F9108950F931F93CF93DF934A
:10113000FC01828D882369F1248D30E0A681B7817E
:10114000A20FB31FB783A68382819381A817B90723
:1011500020F080819181978386838A01CB01EF0102
:10116000428D4150428F66817781A9010E942E11E4
:10117000F801808181110FC08885882371F0CE012C
:1011800008960E945A02882351F081E0F80180837A
:1011900007C080E005C081E003C081E001C081E0BC
:1011A000DF91CF911F910F910895E0917F0DF09104
:1011B000800D8081811107C08FEF9FEF9093600DAC
:1011C00080935F0D0895E0917F0DF091800D058073
:1011D000F681E02D0680F781E02D82819381909346
:1011E000600D80935F0D08950F931F93CF93DF934E
:1011F000EC010091670D1091680D80915A0D90914E
:101200005B0D02960E94E302C00FD11FE0915A0DC0
:10121000F0915B0DD383C283C017D10768F460914E
:101220005A0D70915B0D80917D0D90917E0D6E5FDA
:101230007F4F0E94B20217C060915A0D70915B0DF2
:1012400080917F0D9091800D6E5F7F4F0E94B20262
:1012500080915F0D9091600DC817D90720F4D0934D
:10126000600DC0935F0DDF91CF911F910F91089595
:101270004F925F926F927F928F929F92AF92BF92A6
:10128000CF92DF92EF92FF920F93CF93DF934C01B7
:101290006B015A012901CA010E9464043C01892B97
:1012A00009F4DDC086E290E00E946404EC01892B21
:1012B00071F0788E6F8A81E0A81AB108A60CB71C6D
:1012C000D6018C91898F8C91811105C018C0C30102
:1012D0000E949904C4C0AE01465E5F4FF60131968C
:1012E000B8E0CB0ED11CCF012191DA012D93AD01D5
:1012F000DC018C91882319F0EC15FD05A1F718A2EB
:10130000043008F003E00E8B6E01B2E0CB0ED11C6E
:10131000C6010E948D02CE010C960E948D02D987D3
:10132000C88784E090E0801B91099D878C87DB8BC8
:10133000CA8B19A21AA21BA21CA21DA2A201B4014F
:10134000C5010E94090399838883E114F10419F00F
:10135000F701D183C0830FB6F8940F928091690D85
:101360008F5F8093690D80915A0D90915B0D892B51
:10137000A9F5D0935B0DC0935A0D8091690D813012
:10138000E9F583E99DE00E947F028CE99DE00E94DF
:101390007F0285EA9DE00E947F028EEA9DE00E9426
:1013A0007F028AE89DE00E947F0281E89DE00E9422
:1013B0007F0284E79DE00E947F028BE69DE00E9411
:1013C0007F028AE89DE09093800D80937F0D81E8F5
:1013D0009DE090937E0D80937D0D10C08091650DF2
:1013E00081110CC0E0915A0DF0915B0D96898E89A8
:1013F000891720F0D0935B0DC0935A0D8091610D39
:101400008F5F8093610D8E899091660D981710F40F
:101410008093660D90E09C01220F331F220F331F33
:10142000220F331F820F931FB6018D56924F0E94D9
:1014300091020F900FBE8091650D882361F0E091BD
:101440005A0DF0915B0D96898E89981730F40E94A1
:10145000AC0381E005C081E003C081E001C08FEFF3
:10146000DF91CF910F91FF90EF90DF90CF90BF90E1
:10147000AF909F908F907F906F905F904F90089566
:101480000F931F93CF93DF93EC010FB6F8940F9255
:10149000892B21F4C0915A0DD0915B0D8E010E5F06
:1014A0001F4FC8010E94E3028C899D89892B21F07E
:1014B000CE010C960E94E3028091610D8F5F8093B4
:1014C000610D80915A0D90915B0DC817D90759F4A1
:1014D000B8018BE69DE00E94910280916A0D8F5FBA
:1014E00080936A0D0EC08091690D81508093690DC3
:1014F0008F89988D0E949904CE010E9499040E94C0
:10150000D5080F900FBE8091650D882349F080911A
:101510005A0D90915B0DC817D90711F40E94AC03C6
:10152000DF91CF911F910F910895EF92FF920F934A
:101530000F2EFDE5EF2EFDE0FF2EF02D00E020E068
:1015400030E045E550E060E071E081E79CE00E941A
:101550003809813081F4F8948FEF9FEF9093600DFC
:1015600080935F0D81E08093650D1092680D10925D
:10157000670D0E9475030F91FF90EF900895F89406
:101580001092650D0E94AB03089580915C0D8F5FF2
:1015900080935C0D08950FB6F8940F928091670DBB
:1015A0009091680D0F900FBE08958091670D9091F6
:1015B000680D08958091690D0895009721F4809138
:1015C0005A0D90915B0D49960895CF92DF92EF925C
:1015D000FF920F931F93CF93DF9380915C0D811146
:1015E00099C0E090670DF090680D8FEFE81AF80A47
:1015F000F092680DE092670DE114F104B9F4809166
:101600007F0D9091800D20917D0D30917E0D309356
:10161000800D20937F0D90937E0D80937D0D8091A2
:10162000620D8F5F8093620D0E94D50880915F0DDF
:101630009091600DE816F90610F4D12C53C0D12C0E
:10164000CC24C394E0917F0DF091800D80818111B5
:1016500007C08FEF9FEF9093600D80935F0D42C0A6
:10166000E0917F0DF091800D0580F681E02DC6811F
:10167000D7818A819B81E816F90628F49093600D42
:1016800080935F0D2FC08E010E5F1F4FC8010E9417
:10169000E3028C899D89892B21F0CE010C960E9452
:1016A000E3028E899091660D981710F48093660D71
:1016B00090E09C01220F331F220F331F220F331F94
:1016C000820F931FB8018D56924F0E949102E091B4
:1016D0005A0DF0915B0D9E898689981708F4B2CF58
:1016E000DC2CB0CFE0915A0DF0915B0D868990E033
:1016F000FC01EE0FFF1FEE0FFF1FEE0FFF1F8E0FFF
:101700009F1FFC01ED56F24F8081823048F0DD24AE
:10171000D39406C08091640D8F5F8093640DD12CAB
:101720008091630D882311F0DD24D3948D2DDF91FA
:10173000CF911F910F91FF90EF90DF90CF90089580
:10174000DF92EF92FF920F931F93CF93DF930FB629
:10175000F8940F9280915C0D815080935C0D809184
:101760005C0D81115FC08091690D811133C05DC036
:10177000D7011596ED91FC911697C681D781CE01C0
:101780000C960E94E3028E010E5F1F4FC8010E945B
:10179000E3028E899091660D981710F48093660D80
:1017A00090E09C01220F331F220F331F220F331FA3
:1017B000820F931FB8018D56924F0E949102E091C3
:1017C0005A0DF0915B0D9E898689981768F0D0922A
:1017D000630D0AC0C0E0D0E00F2EF4E7EF2EFDE06D
:1017E000FF2EF02DDD24D394F70180818111C0CF2D
:1017F000CD2B11F00E94D508C091640DCC2351F07F
:10180000D1E00E94E50A8111D093630DC150C9F760
:101810001092640D8091630D882331F00E94AC0317
:1018200081E003C080E001C080E00F900FBEDF9137
:10183000CF911F910F91FF90EF90DF9008950F933C
:101840001F93CF93DF938C01EB010E94C50A409157
:10185000670D5091680DF80120813181C9018C0F0D
:101860009D1F4217530748F482179307E8F49183AA
:1018700080834817590768F407C08217930780F0E0
:101880004817590768F010C060E0841B950B0E9450
:10189000F4080E94A00B81110BC00E94AC0308C089
:1018A000F80191838083F0CFF80191838083F1CF99
:1018B000DF91CF911F910F910895CF93DF93EC01AA
:1018C000892B51F00E94C50A60E0CE010E94F40805
:1018D0000E94A00B811102C00E94AC03DF91CF9146
:1018E00008950BE61DE00F2EF3E9EF2EFDE0FF2E2D
:1018F000F02D29C00E94C50AD801CC910E94A00BEE
:10190000CC2309F10FB6F8940F92D8011596ED91FA
:10191000FC911697C681D781CE0102960E94E30200
:101920008091690D81508093690D80916A0D81507D
:1019300080936A0D0F900FBE8F89988D0E94990435
:10194000CE010E94990480916A0D8111D3CFF701D5
:101950008081823010F00E94AC030E94E110F3CF2E
:1019600080915C0D882321F081E08093630D0895C0
:101970001092630D2091660D822F90E0FC01EE0F16
:10198000FF1FEE0FFF1FEE0FFF1FE80FF91FED56B1
:10199000F24F3081311111C02150822F90E0FC01B3
:1019A000EE0FFF1FEE0FFF1FEE0FFF1FE80FF91FD7
:1019B000ED56F24F3081332379F3AC01440F551FBC
:1019C000440F551F440F551F480F591FDA01AD56DC
:1019D000B24F1196ED91FC9112970280F381E02DA8
:1019E0001296FC93EE9311974A56524FE417F5075F
:1019F00029F442815381FD0152834183FC01EE0FA2
:101A0000FF1FEE0FFF1FEE0FFF1F8E0F9F1FFC012A
:101A1000ED56F24F0180F281E02D868197819093FF
:101A20005B0D80935A0D2093660D0895CF93DF933D
:101A3000EB0160915A0D70915B0D645F7F4F0E94C6
:101A4000B20261E0CE010E94F408DF91CF910895C7
:101A5000CF93DF93EA01E0915A0DF0915B0D70682E
:101A60007587648760915A0D70915B0D645F7F4F3D
:101A70000E94910261E0CE010E94F408DF91CF91B3
:101A800008950F931F93CF93DF93DC011596ED918B
:101A9000FC911697C681D7818E01045F1F4FC80144
:101AA0000E94E30280915C0D81111CC00A50110953
:101AB000C8010E94E3028E899091660D981710F478
:101AC0008093660D90E09C01220F331F220F331F7D
:101AD000220F331F820F931FB8018D56924F0E9421
:101AE000910205C0B80184E79DE00E949102E09157
:101AF0005A0DF0915B0D9E898689891720F481E04B
:101B00008093630D01C080E0DF91CF911F910F9111
:101B100008950F931F93CF93DF937068FC01718337
:101B20006083C681D7810E94E3028E010E5F1F4F42
:101B3000C8010E94E3028E899091660D981710F4F7
:101B40008093660D90E09C01220F331F220F331FFC
:101B5000220F331F820F931FB8018D56924F0E94A0
:101B60009102E0915A0DF0915B0D9E89868989174B
:101B700020F481E08093630D01C080E0DF91CF917C
:101B80001F910F9108952091620DFC0120832091F7
:101B9000670D3091680D328321830895CF93DF93D1
:101BA000FC010FB6F8940F922091670D3091680DEB
:101BB0008091620D9081981729F081819281281778
:101BC0003907B0F4A181B281EB0148815981C90183
:101BD0008A1B9B0B8417950768F4CF01A21BB30BDC
:101BE0004A0F5B1F598348830E94C30D80E003C0E6
:101BF00081E001C081E00F900FBEDF91CF91089589
:101C000081E08093630D0895E0915A0DF0915B0D92
:101C100084859585E0915A0DF0915B0DA0915A0D48
:101C2000B0915B0D56964C9124E030E0241B3109B5
:101C30003587248708950F931F93CF93C82FCB0127
:101C40000FB6F8940F92E0915A0DF0915B0D41A1FF
:101C500052A163A174A1452B462B472B69F4E09157
:101C60005A0DF0915B0D21E025A3009729F061E06A
:101C70000E94F4080E94AC030F900FBE0FB6F894B8
:101C80000F92E0915A0DF0915B0D61A172A183A1B9
:101C900094A16115710581059105C9F0CC2349F026
:101CA000E0915A0DF0915B0D11A212A213A214A2A1
:101CB0000EC0E0915A0DF0915B0D8B019C0101501B
:101CC00011092109310901A312A323A334A3E0912F
:101CD0005A0DF0915B0D15A20F900FBECF911F9181
:101CE0000F9108954F925F926F927F928F929F9281
:101CF000AF92BF92EF92FF920F931F9349015A0147
:101D00000FB6F8940F92E0915A0DF0915B0D25A15A
:101D1000223029F1E0915A0DF0915B0D41A052A0C3
:101D200063A074A0DC01CB0180959095A095B0953F
:101D300084219521A621B72181A392A3A3A3B4A3B3
:101D4000E0915A0DF0915B0D81E085A3E114F1045F
:101D500031F061E0C7010E94F4080E94AC030F90CB
:101D60000FBE0FB6F8940F920115110569F0E091BE
:101D70005A0DF0915B0D81A192A1A3A1B4A1F8012C
:101D800080839183A283B383E0915A0DF0915B0D20
:101D900085A18130B1F0E0915A0DF0915B0D81A1E8
:101DA00092A1A3A1B4A180949094A094B09488220D
:101DB0009922AA22BB2281A292A2A3A2B4A281E06C
:101DC00001C080E0E0915A0DF0915B0D15A20F90DB
:101DD0000FBE1F910F91FF90EF90BF90AF909F901B
:101DE0008F907F906F905F904F9008950F931F9307
:101DF000CF93DF93FC010FB6F8940F9201151105F4
:101E000049F081A192A1A3A1B4A1E801888399839B
:101E1000AA83BB8385A192E095A32230B1F018F488
:101E2000213031F02AC02330E9F0243001F125C0FF
:101E300001A112A123A134A1402B512B622B732BA2
:101E400041A352A363A374A318C041A152A163A1EB
:101E500074A14F5F5F4F6F4F7F4F41A352A363A3A6
:101E600074A30BC041A352A363A374A306C0823022
:101E700079F141A352A363A374A3813059F5EF0113
:101E80008F010E5F1F4FC8010E94E3028E8990915F
:101E9000660D981710F48093660D90E09C01220F58
:101EA000331F220F331F220F331F820F931FB801DE
:101EB0008D56924F0E949102E0915A0DF0915B0D68
:101EC0009E898689891740F40E94AC0381E005C091
:101ED00080E003C081E001C081E00F900FBEDF9180
:101EE000CF911F910F910895EF92FF920F931F933F
:101EF000CF93DF93FC010115110549F081A192A157
:101F0000A3A1B4A1E80188839983AA83BB8385A197
:101F100092E095A32230B1F018F4213031F02BC0BB
:101F20002330E9F0243001F126C001A112A123A140
:101F300034A1402B512B622B732B41A352A363A3DB
:101F400074A319C041A152A163A174A14F5F5F4F57
:101F50006F4F7F4F41A352A363A374A30CC041A34F
:101F600052A363A374A307C0823009F442C041A303
:101F700052A363A374A38130F1F5EF0180915C0D4E
:101F800081111DC08F010E5F1F4FC8010E94E30227
:101F90008E899091660D981710F48093660D90E0ED
:101FA0009C01220F331F220F331F220F331F820F7A
:101FB000931FB8018D56924F0E94910207C0BF0136
:101FC000645F7F4F84E79DE00E949102E0915A0D8B
:101FD000F0915B0D9E898689891778F4E114F104EC
:101FE00021F081E0F701808309C081E08093630DD7
:101FF00005C080E003C081E001C081E0DF91CF91A6
:102000001F910F91FF90EF900895EF92FF920F9321
:102010001F93CF93DF93FC0125A182E085A381A1CB
:1020200092A1A3A1B4A10196A11DB11D81A392A368
:10203000A3A3B4A32130E9F58B01EF0180915C0DDE
:1020400081111EC07F0182E0E80EF11CC7010E94D1
:10205000E3028E899091660D981710F48093660DB7
:1020600090E09C01220F331F220F331F220F331FDA
:10207000820F931FB7018D56924F0E94910207C0A5
:10208000BF01645F7F4F84E79DE00E949102E09171
:102090005A0DF0915B0D9E898689891750F40115C0
:1020A000110521F081E0F801808303C081E0809375
:1020B000630DDF91CF911F910F91FF90EF900895E5
:1020C000009721F480915A0D90915B0D0FB6F89412
:1020D0000F92FC0125A1223019F415A281E001C064
:1020E00080E00F900FBE089520E04FEF5FEF6CE2AD
:1020F00070E08091B70D9091B80D0E94C6065D9B6F
:10210000FECFF2CF20E04FEF5FEF6CE270E0809106
:10211000B90D9091BA0D0E94C6065D9BFECFF2CF1D
:10212000C1E088B38C2788BB88B38C2788BB88EC38
:1021300090E00E945D0CF5CFEF92FF920F9340E08C
:1021400061E080E10E9495059093BA0D8093B90DEE
:1021500040E061E080E10E9495059093B80D809386
:10216000B70DB89AB99A0E940F11579A7894E12C3A
:10217000F12C01E020E030E045E550E065E071E061
:1021800080E990E10E94380902E020E030E045E576
:1021900050E06CE071E082E890E10E94380920E0B4
:1021A00030E045E550E064E171E084E790E10E94B1
:1021B00038090E94950A80E090E00F91FF90EF901F
:1021C000089508951F920F920FB60F9211242F9326
:1021D0003F934F935F936F937F938F939F93AF93AF
:1021E000BF93EF93FF9320E040E050E06CE270E09B
:1021F0008091B70D9091B80D0E946306FF91EF9109
:10220000BF91AF919F918F917F916F915F914F910E
:102210003F912F910F900FBE0F901F901895109225
:10222000900087E489B988E18AB908958CB9089546
:102230008CB90895DC019C91992359F020E05D9BB5
:10224000FECF9CB92F5FFD01E20FF11D908191112E
:10225000F6CF08955F9BFECF8CB10895FB01DC01A2
:1022600002C001900D9241505040D8F70895F89463
:02227000FFCF9E
:1022720049444C45005265644C4544005541525412
:0C2282003054780055415254305278001E
:00000001FF
