S0200000526F6F6D6261436F6D6D616E6465725F41546D65676136342E7372656316
S11300000C9446000C9463000C9463000C946300FD
S11300100C9463000C9463000C9463000C946300D0
S11300200C9463000C9463000C9463000C946300C0
S11300300C9461040C9463000C9463000C946300AE
S11300400C9463000C9463000C9460110C94630092
S11300500C9463000C9463000C9463000C94630090
S11300600C9463000C9463000C9463000C94630080
S11300700C9463000C9463000C948D110C94630035
S11300800C9463000C9463000C94630011241FBE51
S1130090CFEFD0E1DEBFCDBF11E0A0E0B1E0E0E6FC
S11300A0F4E202C005900D92A433B107D9F72DE014
S11300B0A4E3B1E001C01D92AB3FB207E1F70E9497
S11300C0DD100C942E120C940000CF92DF92EF926C
S11300D0FF921F93CF93DF936C01162FF42E8AE1C6
S11300E090E00E946404EC01892B09F45DC08091C6
S11300F0340190913501892B21F5D0933501C093BA
S113010034018CE591E00E947F0285E691E00E9433
S11301107F0283E591E00E947F028AE491E00E94DD
S11301207F028DE391E00E947F0283E591E090934A
S11301304901809348018AE491E0909347018093B8
S11301404601111111E0198E188E1E8BFF8AFE01D3
S1130150C192D1927F01CF010E948D02CE010C96F3
S11301600E948D02D987C887DB8BCA8B82E090E01E
S1130170811B91099D878C878E8990913C019817EA
S113018010F480933C0190E09C01220F331F220F56
S1130190331F220F331F820F931FB701845A9E4FC0
S11301A00E94910281E001C08FEFDF91CF911F91F6
S11301B0FF90EF90DF90CF9008950F931F93CF930C
S11301C0DF938B01C0913A01D0913B01C80FD91F35
S11301D0809134019091350102960E94E302E091EE
S11301E03401F0913501D383C28380913A01909117
S11301F03B01C817D90750F4BF016E5F7F4F809150
S11302004601909147010E94B20209C0BF016E5F8E
S11302107F4F80914801909149010E94B2020115DB
S1130220110549F06091340170913501645F7F4F8D
S1130230C8010E94B202DF91CF911F910F910895DE
S1130240EF92FF920F931F93CF93DF9380913D0121
S1130250882399F10F2EFDE3EF2EF1E0FF2EF02D10
S1130260F894D7011596ED91FC911697C681D78124
S1130270CE010C960E94E30278948E010E5F1F4F0C
S1130280C8010E94E3028E8990913C01981710F4F2
S113029080933C0190E09C01220F331F220F331FF7
S11302A0220F331F820F931FB801845A9E4F0E945E
S11302B09102F70180818111D3CF0E94CB0A209152
S11302C0380130913901821B930B9093370180934D
S11302D036016FC080913A0190913B010196909351
S11302E03B0180933A012150310930933701209327
S11302F03601009781F420914801309149014091E1
S1130300460150914701509349014093480130936D
S1130310470120934601E0914801F0914901208171
S1130320222309F446C00580F681E02DC681D781D9
S11303302A813B818217930778F43BC00580F681BC
S1130340E02DC681D7812A813B8180913A01909129
S11303503B018217930768F1F8948E010E5F1F4FDB
S1130360C8010E94E3028C899D89892B21F0CE016A
S11303700C960E94E30278948E8990913C01981720
S113038010F480933C0190E09C01220F331F220F54
S1130390331F220F331F820F931FB801845A9E4FBD
S11303A00E949102E0914801F091490180818111FC
S11303B0C5CF20913601309137012115310509F05F
S11303C089CF80913A0190913B01909339018093B8
S11303D0380180913C01282F30E0F901EE0FFF1F16
S11303E0EE0FFF1FEE0FFF1FE20FF31FE45AFE4F45
S11303F0908191111BC0811106C055C0811103C0A9
S113040010923C0150C08150282F30E0F901EE0FCA
S1130410FF1FEE0FFF1FEE0FFF1FE20FF31FE45A43
S1130420FE4F9081992351F380933C01C901880FB9
S1130430991F880F991F880F991F820F931FDC0142
S1130440A45ABE4F1196ED91FC9112970280F3814C
S1130450E02D1296FC93EE931197815A9E4FE81764
S1130460F90729F482819381FD0192838183F90143
S1130470EE0FFF1FEE0FFF1FEE0FFF1F2E0F3F1F8C
S1130480F901E45AFE4F0180F281E02D86819781C3
S11304909093350180933401DC01ED91FC91119727
S11304A057966C910995DF91CF911F910F91FF9011
S11304B0EF9008950F931F93CF93DF93DC0115966C
S11304C0ED91FC911697C681D7818E01045F1F4F71
S11304D0C8010E94E302B8018DE391E00E949102F9
S11304E0E0913401F091350181E02E899689291734
S11304F008F480E0DF91CF911F910F910895FC01E2
S11305000396928381832FEF3FEF34832383968373
S113051085839087878310820895FC011186108655
S11305200895CF93DF939C01FB01DC011196CD91DB
S1130530DC911297D383C2838C819D8195838483BC
S11305408C819D81DC0113967C936E9312977D833D
S11305506C8331872087F90180818F5F8083DF91ED
S1130560CF910895CF93DF93EB01488159814F3F99
S11305702FEF520721F4FC01A781B0850DC0DC01E7
S1130580139601C0DF011296ED91FC91139720811F
S1130590318142175307B0F71296ED91FC911397EE
S11305A0FB83EA83D583C483BD83AC831396DC9336
S11305B0CE93129799878887FC0120812F5F20832F
S11305C0DF91CF910895CF93DF93FC01A085B1858E
S11305D0C281D381848195819D838C83C481D5819B
S11305E0828193819B838A8311968D919C9112972A
S11305F0E817F90731F48481958112969C938E93C0
S11306001197118610868C9181508C93DF91CF9134
S1130610089531E1FC013083319722E22083319740
S1130620A3E3A0833197608331977083319710825D
S1130630319760E8608331971082319762E060837C
S1130640319763E06083319764E06083319765E0BC
S11306506083319766E06083319767E06083319708
S113066068E06083319769E06083319760E160837B
S113067031973083319732E13083319733E13083DE
S1130680319734E13083319735E13083319736E166
S11306903083319737E13083319738E130833197B4
S11306A039E13083319730E23083319731E230835E
S11306B031972083319723E2208331974083319708
S11306C05083319726E22083319727E220833197A4
S11306D028E22083319729E22083319720E3208385
S11306E0319721E320838697089586E08BBD8FEBB5
S11306F08ABD8BE08EBD87B7806187BFA091720DE4
S1130700B091730DCD91CDBFDD91DEBFFF91EF911F
S1130710DF91CF91BF91AF919F918F917F916F9115
S11307205F914F913F912F911F910F91FF90EF9007
S1130730DF90CF90BF90AF909F908F907F906F90FD
S11307405F904F903F902F901F900F900FBE0F908F
S1130750089581E0089508950F920FB6F8940F92CA
S11307601F9211242F923F924F925F926F927F9229
S11307708F929F92AF92BF92CF92DF92EF92FF92AD
S11307800F931F932F933F934F935F936F937F9395
S11307908F939F93AF93BF93CF93DF93EF93FF9385
S11307A0A091720DB091730D0DB60D920EB60D920F
S11307B00E94B00CA091720DB091730DCD91CDBF7C
S11307C0DD91DEBFFF91EF91DF91CF91BF91AF91AA
S11307D09F918F917F916F915F914F913F912F9155
S11307E01F910F91FF90EF90DF90CF90BF90AF904B
S11307F09F908F907F906F905F904F903F902F903D
S11308001F900F900FBE0F9008950F920FB6F8949B
S11308100F921F9211242F923F924F925F926F92E8
S11308207F928F929F92AF92BF92CF92DF92EF927C
S1130830FF920F931F932F933F934F935F936F9365
S11308407F938F939F93AF93BF93CF93DF93EF9354
S1130850FF93A091720DB091730D0DB60D920EB66B
S11308600D920E94E50A81110E94B00CA091720DB4
S1130870B091730DCD91CDBFDD91DEBFFF91EF91AE
S1130880DF91CF91BF91AF919F918F917F916F91A4
S11308905F914F913F912F911F910F91FF90EF9096
S11308A0DF90CF90BF90AF909F908F907F906F908C
S11308B05F904F903F902F901F900F900FBE0F901E
S11308C008950E9405041895CF93DF93EC010E94CC
S11308D0C50A80916E0190916F01892B31F483E7F1
S11308E091E090936F0180936E012091700130919B
S11308F07101C9018C0F9D1F8F3F4BE0940770F469
S11309002817390770F4C0916E01D0916F01C20F9E
S1130910D31F909371018093700105C0C0E0D0E0B3
S113092002C0C0E0D0E00E94A00BCE01DF91CF91C5
S11309300895089510927101109270010895209104
S11309407001309171018FEF9BE0821B930B08952E
S11309500F931F93CF93DF93EC01042F1A8D4C8DCB
S11309604423B9F1011116C050E08C819D810E948D
S113097025122C8D8C819D81820F911D9D838C83EA
S11309802A813B818217930720F1888199819D8375
S11309908C831FC050E08E819F810E9425128C8D14
S11309A090E09195819591092E813F81280F391FFF
S11309B03F832E83488159812417350730F42A81D7
S11309C03B81820F931F9F838E83023011F4111198
S11309D011501F5F1A8F80E0DF91CF911F910F910B
S11309E00895FC01448D4423A9F050E02681378109
S11309F0240F351F37832683828193812817390773
S1130A0020F08081918197838683CB0166817781F1
S1130A100E9425120895EF92FF920F931F93CF9394
S1130A208C010FB6F8940F92FC01C68D1C16ACF421
S1130A308189811106C011C0F8018189811105C025
S1130A400CC07801F1E1EF0EF11CC7010E94410DC9
S1130A5081110E94000EC15079F78FEFF801868F43
S1130A600F900FBE0FB6F8940F92C58D1C16ACF400
S1130A708085811106C011C0F8018085811105C0EF
S1130A800CC07801F8E0EF0EF11CC7010E94410D83
S1130A9081110E94000EC15079F78FEFF801858F04
S1130AA00F900FBECF911F910F91FF90EF9008957B
S1130AB0CF93DF93EC010FB6F8940F9248815981DC
S1130AC02C8D30E07B8D729FC001739F900D11249B
S1130AD0FA01E80FF91FFB83EA831A8E5D834C83C6
S1130AE0821B930B840F951F9F838E838FEF8D8FB3
S1130AF08E8F61110CC08885882389F0CE010896F9
S1130B000E94410D882359F00E94AC0308C0CE0115
S1130B1008960E947F02CE0141960E947F020F90A8
S1130B200FBE81E0DF91CF9108950F931F93CF9370
S1130B30DF93082F162F6623C1F0869FC00111246E
S1130B404F960E946404EC01009741F415C00B8F8A
S1130B501C8F61E0CE010E9458050EC04F96998308
S1130B608883F5CFD983C883F2CF8FE190E00E94C8
S1130B706404EC01892BB1F7CE01DF91CF911F9171
S1130B800F9108959F92AF92BF92CF92DF92EF920E
S1130B90FF920F931F93CF93DF9300D000D01F9247
S1130BA0CDB7DEB78C016B015D834C83A22EB12CD3
S1130BB0992493947C0188E0E80EF11C0FB6F89414
S1130BC00F92F801928D838D981718F0F2E0AF120E
S1130BD019C04A2DB601C8010E94A804F8019189E0
S1130BE0992349F0C80141960E94410D882331F0B0
S1130BF00E94AC0303C081110E94AC030F900FBE8E
S1130C0081E050C08C819D81892B21F40F900FBE0F
S1130C1080E048C0B11005C0CE0101960E94C30D0A
S1130C20B92C0F900FBE0E94C50A0FB6F8940F920C
S1130C30F801858D8F3F09F4158EF801868D8F3F5D
S1130C4009F4168E0F900FBEBE016C5F7F4FCE016C
S1130C5001960E94CE0D81111FC00FB6F8940F9219
S1130C60F801928D0F900FBE838D98130FC06C8185
S1130C707D81C7010E94160DC8010E940B050E94C8
S1130C80A00B81119BCF0E94AC0398CFC8010E9496
S1130C900B050E94A00B92CFC8010E940B050E9475
S1130CA0A00B80E00F900F900F900F900F90DF91AA
S1130CB0CF911F910F91FF90EF90DF90CF90BF9055
S1130CC0AF909F900895EF92FF920F931F93CF934D
S1130CD0DF938A01FC01528D338D531710F02230BB
S1130CE0F1F4422F7801EC011E8D0E94A8041F3FED
S1130CF081F489898823A9F0CE0141960E94410D8F
S1130D00882389F0E114F10481F081E0F701808304
S1130D100DC0FF24F394F10EFE8E81E007C080E045
S1130D2005C081E003C081E001C081E0DF91CF9183
S1130D301F910F91FF90EF900895CF93DF93FC01E3
S1130D40828D938D8917C0F4968D8F5F828F9F3F1C
S1130D5079F48189882391F0EB01CF0141960E94B7
S1130D60410D882369F0209769F081E088830BC0E6
S1130D709F5F968F81E007C080E005C081E003C0DB
S1130D8081E001C081E0DF91CF9108958F929F921D
S1130D90AF92BF92CF92DF92EF92FF920F931F9385
S1130DA0CF93DF9300D000D01F92CDB7DEB78C0174
S1130DB05B015D834C83822EE12C992493946C0116
S1130DC081E1C80ED11C0FB6F8940F92F801F28C91
S1130DD0FF2041F1C680D780B501C8010E94F1040B
S1130DE081100FC0FA94F801F28E80858823B1F047
S1130DF0C80108960E94410D882381F00E94AC032B
S1130E000DC0F801D782C6828189882339F0C801D0
S1130E1041960E94410D81110E94AC030F900FBEB8
S1130E2081E057C08C819D81892B21F40F900FBEE6
S1130E3080E04FC0E11005C0CE0101960E94C30DB1
S1130E40E92C0F900FBE0E94C50A0FB6F8940F92BA
S1130E50F801858D8F3F09F4158EF801868D8F3F3B
S1130E6009F4168E0F900FBEBE016C5F7F4FCE014A
S1130E7001960E94CE0D81111EC00FB6F8940F92F8
S1130E80F801828D0F900FBE81110FC06C817D819E
S1130E90C6010E94160DC8010E940B050E94A00BFA
S1130EA0811191CF0E94AC038ECFC8010E940B0523
S1130EB00E94A00B88CFC8010E940B050E94A00BC2
S1130EC00FB6F8940F92F801828D0F900FBE811126
S1130ED07ACF0F900F900F900F900F90DF91CF91DA
S1130EE01F910F91FF90EF90DF90CF90BF90AF9044
S1130EF09F908F900895EF92FF920F931F93CF933B
S1130F00DF93FC01C28DCC23F9F07A018C01D58DDD
S1130F100E94F104C150F801C28FDF3F81F4808543
S1130F208823A1F0C80108960E94410D882381F00E
S1130F30E114F10479F081E0F70180830CC0DF5FF4
S1130F40F801D58F81E007C080E005C081E003C0CF
S1130F5081E001C081E0DF91CF911F910F91FF905B
S1130F60EF9008950F931F93CF93DF93FC01228D8D
S1130F70222349F0EC01068117810E94F1041F83AA
S1130F800E8381E001C080E0DF91CF911F910F912A
S1130F9008950FB6F8940F92FC01828D0F900FBE46
S1130FA008950FB6F8940F92FC01228D0F900FBE96
S1130FB0838D821B0895FC01828D08950E949904FB
S1130FC00895FC01928D81E0911180E00895FC0167
S1130FD0928D81E0238D291380E00895CF93DF93D0
S1130FE0EC01F8940FB6F8940F922A8D9B8D0F9014
S1130FF00FBE29130FC04115510549F0BE01685FAA
S11310007F4FCA010E94DD0078948CEF1DC0789454
S113101080E01AC07894F8948A8D891778F440E0B7
S1131020CE010E94A8048989882351F0CE014196FB
S11310300E945A02882331F08BEF05C080E003C080
S113104081E001C081E07894DF91CF910895CF933E
S1131050DF93EC019B01F8949A8D91110FC0411517
S1131060510549F0BE016F5E7F4FCA010E94DD0049
S113107078948CEF32C0789480E02FC07894F89400
S11310808A8D882321F14C8D50E08E819F81840FBD
S1131090951F9F838E836A817B818617970720F033
S11310A0888199819F838E838A8D81508A8F6E81F6
S11310B07F81C9010E9425128885882351F0CE01C1
S11310C008960E945A02882331F08BEF05C080E015
S11310D003C081E001C081E07894DF91CF9108954D
S11310E00F931F93CF93FC01328D238D3217B8F4E5
S11310F0C42F8C0140E00E94A804C1110DC0F80166
S11311008189882359F0C80141960E945A0241E01E
S1131110811105C040E003C04C2F01C040E0842F82
S1131120CF911F910F9108950F931F93CF93DF9346
S1131130FC01828D882369F1248D30E0A681B7817A
S1131140A20FB31FB783A68382819381A817B9071F
S113115020F080819181978386838A01CB01EF01FE
S1131160428D4150428F66817781A9010E942512E8
S1131170F801808181110FC08885882371F0CE0128
S113118008960E945A02882351F081E0F801808376
S113119007C080E005C081E003C081E001C081E0B8
S11311A0DF91CF911F910F910895E091970DF091E8
S11311B0980D8081811107C08FEF9FEF9093780D78
S11311C08093770D0895E091970DF091980D058027
S11311D0F681E02D0680F781E02D82819381909342
S11311E0780D8093770D08950F931F93CF93DF931A
S11311F0EC0100917F0D1091800D8091720D909102
S1131200730D02960E94E302C00FD11FE091720D8C
S1131210F091730DD383C283C017D10768F4609132
S1131220720D7091730D8091950D9091960D6E5F76
S11312307F4F0E94B20217C06091720D7091730DBE
S11312408091970D9091980D6E5F7F4F0E94B2022E
S11312508091770D9091780DC817D90720F4D09319
S1131260780DC093770DDF91CF911F910F91089561
S11312704F925F926F927F928F929F92AF92BF92A2
S1131280CF92DF92EF92FF920F93CF93DF934C01B3
S11312906B015A012901CA010E9464043C01892B93
S11312A009F4DDC086E290E00E946404EC01892B1D
S11312B071F0788E6F8A81E0A81AB108A60CB71C69
S11312C0D6018C91898F8C91811105C018C0C301FE
S11312D00E949904C4C0AE01465E5F4FF601319688
S11312E0B8E0CB0ED11CCF012191DA012D93AD01D1
S11312F0DC018C91882319F0EC15FD05A1F718A2E7
S1131300043008F003E00E8B6E01B2E0CB0ED11C6A
S1131310C6010E948D02CE010C960E948D02D987CF
S1131320C88784E090E0801B91099D878C87DB8BC4
S1131330CA8B19A21AA21BA21CA21DA2A201B4014B
S1131340C5010E94090399838883E114F10419F00B
S1131350F701D183C0830FB6F8940F928091810D69
S11313608F5F8093810D8091720D9091730D892B05
S1131370A9F5D093730DC093720D8091810D8130C6
S1131380E9F58BEA9DE00E947F0284EB9DE00E94D8
S11313907F028DEB9DE00E947F0286EC9DE00E941F
S11313A07F0282EA9DE00E947F0289E99DE00E941B
S11313B07F028CE89DE00E947F0283E89DE00E940A
S11313C07F0282EA9DE09093980D8093970D89E9BE
S11313D09DE09093960D8093950D10C080917D0DA6
S11313E081110CC0E091720DF091730D96898E8974
S11313F0891720F0D093730DC093720D8091790DED
S11314008F5F8093790D8E8990917E0D981710F4DB
S113141080937E0D90E09C01220F331F220F331F17
S1131420220F331F820F931FB6018555924F0E94DE
S113143091020F900FBE80917D0D882361F0E091A1
S1131440720DF091730D96898E89981730F40E946D
S1131450AC0381E005C081E003C081E001C08FEFEF
S1131460DF91CF910F91FF90EF90DF90CF90BF90DD
S1131470AF909F908F907F906F905F904F90089562
S11314800F931F93CF93DF93EC010FB6F8940F9251
S1131490892B21F4C091720DD091730D8E010E5FD2
S11314A01F4FC8010E94E3028C899D89892B21F07A
S11314B0CE010C960E94E3028091790D8F5F809398
S11314C0790D8091720D9091730DC817D90759F455
S11314D0B80183E89DE00E9491028091820D8F5FA4
S11314E08093820D0EC08091810D81508093810D77
S11314F08F89988D0E949904CE010E9499040E94BC
S1131500D5080F900FBE80917D0D882349F08091FE
S1131510720D9091730DC817D90711F40E94AC0392
S1131520DF91CF911F910F910895EF92FF920F9346
S11315300F2EF5E7EF2EFDE0FF2EF02D00E020E06A
S113154030E045E550E068E071E081E79CE00E940E
S11315503809813081F4F8948FEF9FEF9093780DE0
S11315608093770D81E080937D0D1092800D109211
S11315707F0D0E9475030F91FF90EF900895F894EA
S113158010927D0D0E94AB0308958091740D8F5FBE
S11315908093740D08950FB6F8940F9280917F0D87
S11315A09091800D0F900FBE089580917F0D9091C2
S11315B0800D08958091810D0895009721F4809104
S11315C0720D9091730D49960895CF92DF92EF9228
S11315D0FF920F931F93CF93DF938091740D81112A
S11315E099C0E0907F0DF090800D8FEFE81AF80A13
S11315F0F092800DE0927F0DE114F104B9F4809132
S1131600970D9091980D2091950D3091960D3093F2
S1131610980D2093970D9093960D8093950D80913E
S11316207A0D8F5F80937A0D0E94D5088091770D93
S11316309091780DE816F90610F4D12C53C0D12CF2
S1131640CC24C394E091970DF091980D8081811181
S113165007C08FEF9FEF9093780D8093770D42C072
S1131660E091970DF091980D0580F681E02DC681EB
S1131670D7818A819B81E816F90628F49093780D26
S11316808093770D2FC08E010E5F1F4FC8010E94FB
S1131690E3028C899D89892B21F0CE010C960E944E
S11316A0E3028E8990917E0D981710F480937E0D3D
S11316B090E09C01220F331F220F331F220F331F90
S11316C0820F931FB8018555924F0E949102E091B9
S11316D0720DF091730D9E898689981708F4B2CF24
S11316E0DC2CB0CFE091720DF091730D868990E0FF
S11316F0FC01EE0FFF1FEE0FFF1FEE0FFF1F8E0FFB
S11317009F1FFC01E555F24F8081823048F0DD24B3
S1131710D39406C080917C0D8F5F80937C0DD12C77
S113172080917B0D882311F0DD24D3948D2DDF91DE
S1131730CF911F910F91FF90EF90DF90CF9008957C
S1131740DF92EF92FF920F931F93CF93DF930FB625
S1131750F8940F928091740D81508093740D809150
S1131760740D81115FC08091810D811133C05DC002
S1131770D7011596ED91FC911697C681D781CE01BC
S11317800C960E94E3028E010E5F1F4FC8010E9457
S1131790E3028E8990917E0D981710F480937E0D4C
S11317A090E09C01220F331F220F331F220F331F9F
S11317B0820F931FB8018555924F0E949102E091C8
S11317C0720DF091730D9E898689981768F0D092F6
S11317D07B0D0AC0C0E0D0E00F2EFCE8EF2EFDE048
S11317E0FF2EF02DDD24D394F70180818111C0CF29
S11317F0CD2B11F00E94D508C0917C0DCC2351F063
S1131800D1E00E94E50A8111D0937B0DC150C9F744
S113181010927C0D80917B0D882331F00E94AC03E3
S113182081E003C080E001C080E00F900FBEDF9133
S1131830CF911F910F91FF90EF90DF9008950F9338
S11318401F93CF93DF938C01EB010E94C50A409153
S11318507F0D5091800DF80120813181C9018C0FD9
S11318609D1F4217530748F482179307E8F49183A6
S113187080834817590768F407C08217930780F0DC
S11318804817590768F010C060E0841B950B0E944C
S1131890F4080E94A00B81110BC00E94AC0308C085
S11318A0F80191838083F0CFF80191838083F1CF95
S11318B0DF91CF911F910F910895CF93DF93EC01A6
S11318C0892B51F00E94C50A60E0CE010E94F40801
S11318D00E94A00B811102C00E94AC03DF91CF9142
S11318E0089503E81DE00F2EFBEAEF2EFDE0FF2E26
S11318F0F02D29C00E94C50AD801CC910E94A00BEA
S1131900CC2309F10FB6F8940F92D8011596ED91F6
S1131910FC911697C681D781CE0102960E94E302FC
S11319208091810D81508093810D8091820D815031
S11319308093820D0F900FBE8F89988D0E94990419
S1131940CE010E9499048091820D8111D3CFF701B9
S11319508081823010F00E94AC030E945B11F3CFAF
S11319608091740D882321F081E080937B0D08958C
S113197010927B0D20917E0D822F90E0FC01EE0FE2
S1131980FF1FEE0FFF1FEE0FFF1FE80FF91FE555B6
S1131990F24F3081311111C02150822F90E0FC01AF
S11319A0EE0FFF1FEE0FFF1FEE0FFF1FE80FF91FD3
S11319B0E555F24F3081332379F3AC01440F551FC1
S11319C0440F551F440F551F480F591FDA01A555E1
S11319D0B24F1196ED91FC9112970280F381E02DA4
S11319E01296FC93EE9311974255524FE417F50764
S11319F029F442815381FD0152834183FC01EE0F9E
S1131A00FF1FEE0FFF1FEE0FFF1F8E0F9F1FFC0126
S1131A10E555F24F0180F281E02D86819781909304
S1131A20730D8093720D20937E0D0895CF93DF93F1
S1131A30EB016091720D7091730D645F7F4F0E9492
S1131A40B20261E0CE010E94F408DF91CF910895C3
S1131A50CF93DF93EA01E091720DF091730D7068FA
S1131A60758764876091720D7091730D645F7F4F09
S1131A700E94910261E0CE010E94F408DF91CF91AF
S1131A8008950F931F93CF93DF93DC011596ED9187
S1131A90FC911697C681D7818E01045F1F4FC80140
S1131AA00E94E3028091740D81111CC00A50110937
S1131AB0C8010E94E3028E8990917E0D981710F45C
S1131AC080937E0D90E09C01220F331F220F331F61
S1131AD0220F331F820F931FB8018555924F0E9426
S1131AE0910205C0B8018CE89DE00E949102E0914A
S1131AF0720DF091730D9E898689891720F481E017
S1131B0080937B0D01C080E0DF91CF911F910F91F5
S1131B1008950F931F93CF93DF937068FC01718333
S1131B206083C681D7810E94E3028E010E5F1F4F3E
S1131B30C8010E94E3028E8990917E0D981710F4DB
S1131B4080937E0D90E09C01220F331F220F331FE0
S1131B50220F331F820F931FB8018555924F0E94A5
S1131B609102E091720DF091730D9E898689891717
S1131B7020F481E080937B0D01C080E0DF91CF9160
S1131B801F910F91089520917A0DFC0120832091DB
S1131B907F0D3091800D328321830895CF93DF939D
S1131BA0FC010FB6F8940F9220917F0D3091800DB7
S1131BB080917A0D9081981729F08181928128175C
S1131BC03907B0F4A181B281EB0148815981C9017F
S1131BD08A1B9B0B8417950768F4CF01A21BB30BD8
S1131BE04A0F5B1F598348830E94C30D80E003C0E2
S1131BF081E001C081E00F900FBEDF91CF91089585
S1131C0081E080937B0D0895E091720DF091730D46
S1131C1084859585E091720DF091730DA091720DFC
S1131C20B091730D56964C9124E030E0241B310999
S1131C303587248708950F931F93CF93C82FCB0123
S1131C400FB6F8940F92E091720DF091730D41A1CB
S1131C5052A163A174A1452B462B472B69F4E09153
S1131C60720DF091730D21E025A3009729F061E036
S1131C700E94F4080E94AC030F900FBE0FB6F894B4
S1131C800F92E091720DF091730D61A172A183A185
S1131C9094A16115710581059105C9F0CC2349F022
S1131CA0E091720DF091730D11A212A213A214A26D
S1131CB00EC0E091720DF091730D8B019C010150E7
S1131CC011092109310901A312A323A334A3E0912B
S1131CD0720DF091730D15A20F900FBECF911F914D
S1131CE00F9108954F925F926F927F928F929F927D
S1131CF0AF92BF92EF92FF920F931F9349015A0143
S1131D000FB6F8940F92E091720DF091730D25A126
S1131D10223029F1E091720DF091730D41A052A08F
S1131D2063A074A0DC01CB0180959095A095B0953B
S1131D3084219521A621B72181A392A3A3A3B4A3AF
S1131D40E091720DF091730D81E085A3E114F1042B
S1131D5031F061E0C7010E94F4080E94AC030F90C7
S1131D600FBE0FB6F8940F920115110569F0E091BA
S1131D70720DF091730D81A192A1A3A1B4A1F801F8
S1131D8080839183A283B383E091720DF091730DEC
S1131D9085A18130B1F0E091720DF091730D81A1B4
S1131DA092A1A3A1B4A180949094A094B094882209
S1131DB09922AA22BB2281A292A2A3A2B4A281E068
S1131DC001C080E0E091720DF091730D15A20F90A7
S1131DD00FBE1F910F91FF90EF90BF90AF909F9017
S1131DE08F907F906F905F904F9008950F931F9303
S1131DF0CF93DF93FC010FB6F8940F9201151105F0
S1131E0049F081A192A1A3A1B4A1E8018883998397
S1131E10AA83BB8385A192E095A32230B1F018F484
S1131E20213031F02AC02330E9F0243001F125C0FB
S1131E3001A112A123A134A1402B512B622B732B9E
S1131E4041A352A363A374A318C041A152A163A1E7
S1131E5074A14F5F5F4F6F4F7F4F41A352A363A3A2
S1131E6074A30BC041A352A363A374A306C082301E
S1131E7079F141A352A363A374A3813059F5EF010F
S1131E808F010E5F1F4FC8010E94E3028E8990915B
S1131E907E0D981710F480937E0D90E09C01220F24
S1131EA0331F220F331F220F331F820F931FB801DA
S1131EB08555924F0E949102E091720DF091730D3D
S1131EC09E898689891740F40E94AC0381E005C08D
S1131ED080E003C081E001C081E00F900FBEDF917C
S1131EE0CF911F910F910895EF92FF920F931F933B
S1131EF0CF93DF93FC010115110549F081A192A153
S1131F00A3A1B4A1E80188839983AA83BB8385A193
S1131F1092E095A32230B1F018F4213031F02BC0B7
S1131F202330E9F0243001F126C001A112A123A13C
S1131F3034A1402B512B622B732B41A352A363A3D7
S1131F4074A319C041A152A163A174A14F5F5F4F53
S1131F506F4F7F4F41A352A363A374A30CC041A34B
S1131F6052A363A374A307C0823009F442C041A3FF
S1131F7052A363A374A38130F1F5EF018091740D32
S1131F8081111DC08F010E5F1F4FC8010E94E30223
S1131F908E8990917E0D981710F480937E0D90E0B9
S1131FA09C01220F331F220F331F220F331F820F76
S1131FB0931FB8018555924F0E94910207C0BF013B
S1131FC0645F7F4F8CE89DE00E949102E091720D66
S1131FD0F091730D9E898689891778F4E114F104D0
S1131FE021F081E0F701808309C081E080937B0DBB
S1131FF005C080E003C081E001C081E0DF91CF91A2
S11320001F910F91FF90EF900895EF92FF920F931D
S11320101F93CF93DF93FC0125A182E085A381A1C7
S113202092A1A3A1B4A10196A11DB11D81A392A364
S1132030A3A3B4A32130E9F58B01EF018091740DC2
S113204081111EC07F0182E0E80EF11CC7010E94CD
S1132050E3028E8990917E0D981710F480937E0D83
S113206090E09C01220F331F220F331F220F331FD6
S1132070820F931FB7018555924F0E94910207C0AA
S1132080BF01645F7F4F8CE89DE00E949102E09164
S1132090720DF091730D9E898689891750F401158C
S11320A0110521F081E0F801808303C081E0809371
S11320B07B0DDF91CF911F910F91FF90EF900895C9
S11320C0009721F48091720D9091730D0FB6F894DE
S11320D00F92FC0125A1223019F415A281E001C060
S11320E080E00F900FBE0895CBE9D0E020E04FEFE1
S11320F05FEF6CE970E08091D30D9091D40D0E9454
S1132100C606888185FFFDCFF1CF20E04FEF5FEF5A
S11321106CE270E08091F50D9091F60D0E94C60678
S11321205D9BFECFF2CFCBE9D0E020E04FEF5FEF35
S11321306CE970E08091F90D9091FA0D0E94C60649
S1132140888185FFFDCFF1CF20E04FEF5FEF6CE298
S113215070E08091F70D9091F80D0E94C6065D9B8A
S1132160FECFF2CFD1E00F2EF5EDEF2EFDE0FF2EE6
S1132170F02D88B38D2788BB0091F70D1091F80DD1
S1132180F7018081882389F0C0E0B70120E045E0B1
S113219050E0C8010E94C205CF5F6C2F70E06B5203
S11321A0724FFB0180818111F1CF88B38D2788BBE9
S11321B080E991E00E945D0CDCCFEF92FF920F93D7
S11321C040E061E080E10E9495059093F80D8093D2
S11321D0F70D40E061E080E10E9495059093F60DD3
S11321E08093F50D40E061E080E10E9495059093B5
S11321F0FA0D8093F90D40E061E080E10E949505BD
S11322009093D40D8093D30DB89AB99A0E94BA11C1
S1132210579AEAE9F0E0808180688083789420E02E
S113222031E041E361E48FEC9DE00E94E01165ED53
S11322307DE08FEC9DE00E94E611E12CF12C01E0A1
S113224020E030E045E550E06DE071E082EB90E1A4
S11322500E94380902E020E030E045E550E064E106
S113226071E084EA90E10E94380920E030E045E51D
S113227050E06CE171E083E990E10E94380920E0CC
S113228030E045E550E064E271E085E890E10E94C9
S1132290380920E030E045E550E06CE271E084E785
S11322A090E10E9438090E94950A80E090E00F9125
S11322B0FF90EF90089598B382E0892788BB089532
S11322C01F920F920FB60F9211242F933F934F93A7
S11322D05F936F937F938F939F93AF93BF93EF938A
S11322E0FF9320E040E050E06CE270E08091F50D57
S11322F09091F60D0E946306FF91EF91BF91AF910B
S11323009F918F917F916F915F914F913F912F9109
S11323100F900FBE0F901F9018951F920F920FB63B
S11323200F9211242F933F934F935F936F937F9357
S11323308F939F93AF93BF93EF93FF9320E040E07D
S113234050E06CE970E08091D30D9091D40D0E941F
S11323506306FF91EF91BF91AF919F918F917F9110
S11323606F915F914F913F912F910F900FBE0F90FE
S11323701F9018951092900085E089B910929800EA
S113238087E48093990088E18AB980939A0008953C
S11323908CB908958CB90895DC019C91992359F066
S11323A020E05D9BFECF9CB92F5FFD01E20FF11D84
S11323B090819111F6CF08955F9BFECF8CB1089563
S11323C0FC0160834183338322830895CF93DF9399
S11323D0EC01DB018BE78C93888111968C93119728
S11323E0898112968C93129788818134C9F4EA8189
S11323F0FB8190819923E1F040E050E023E031E05B
S1132400320FFD01E20FF11D90834F5F5F4FEA81B0
S1132410FB81E40FF51F9081232F9111F0CF09C0A8
S1132420EA81FB81808113968C93139734E001C079
S113243033E0FD01E30FF11D8DE780833F5FA30FC0
S1132440B11D1C92DF91CF910895FB01DC0102C004
S113245001900D9241505040D8F70895F894FFCF61
S113246048656C6C6F21200049444C4500526564FA
S11324704C4544005541525430547800554152540F
S113248031547800554152543052780055415254D9
S10724903152780049
S9030000FC
