S0200000526F6F6D6261436F6D6D616E6465725F41546D65676136342E7372656316
S11300000C9446000C9463000C9463000C946300FD
S11300100C9463000C9463000C9463000C946300D0
S11300200C9463000C9463000C9463000C946300C0
S11300300C94E9050C9463000C9463000C94630025
S11300400C9463000C9463000C9448130C946300A8
S11300500C9463000C9463000C9463000C94630090
S11300600C9463000C9463000C9463000C94630080
S11300700C9463000C9463000C9475130C9463004B
S11300800C9463000C9463000C94630011241FBE51
S1130090CFEFD0E1DEBFCDBF11E0A0E0B1E0E6E6F6
S11300A0FAE202C005900D92A034B107D9F72EE010
S11300B0A0E4B1E001C01D92A332B207E1F70E94AF
S11300C088120C9431150C940000CF93C0E010C03A
S11300D08C2F90E09C01220F331F220F331F220F1D
S11300E0331F820F931F88599E4F0E940404CF5FD1
S11300F0C23070F38FE591E00E94040486E591E03C
S11301000E94040489E491E00E9404048FE591E0D4
S1130110909355018093540186E591E090935301A7
S113012080935201CF9108950F931F93CF93DF9340
S113013028C0F894E0914E01F0914F01C681D78117
S1130140CE010C960E94680478948E010E5F1F4FB6
S1130150C8010E9468048E8990914601981710F492
S11301608093460190E09C01220F331F220F331F1E
S1130170220F331F820F931FB80188599E4F0E948C
S11301801604809149018111D4CFDF91CF911F9141
S11301900F9108950F931F93CF93DF930E94560CF2
S11301A02091420130914301821B930B90934101B2
S11301B0809340015EC020914401309145012F5F3E
S11301C03F4F30934501209344010197909341019F
S11301D080934001232B09F045C0809154019091F4
S11301E055012091520130915301309355012093D0
S11301F05401909353018093520134C00580F681D9
S1130200E02DC681D7812A813B8180914401909160
S113021045018217930768F1F8948E010E5F1F4F12
S1130220C8010E9468048C899D89892B21F0CE0124
S11302300C960E94680478948E89909146019817D0
S113024010F48093460190E09C01220F331F220F8B
S1130250331F220F331F820F931FB80188599E4FFB
S11302600E941604E0915401F0915501808181119E
S1130270C5CF8091400190914101009709F09BCF37
S113028080914401909145019093430180934201F0
S1130290DF91CF911F910F910895CF92DF92FF923A
S11302A00F931F93CF93DF936C01F62E142F8AE1E3
S11302B090E00E94EC05EC01892B09F442C0809186
S11302C0470190914801892B31F4D0934801C093A0
S11302D047010E94650081E08F1510F4FF24F39418
S11302E0198E188EFE8A1F8BFE01C192D1928F0146
S11302F0CF010E941204CE010C960E941204D987E9
S1130300C887DB8BCA8B82E090E08F1991099D87A7
S11303108C878E8990914601981710F4809346013A
S113032090E09C01220F331F220F331F220F331F33
S1130330820F931FB80188599E4F0E94160481E0D2
S113034001C08FEFDF91CF911F910F91FF90DF904C
S1130350CF9008950F931F93CF93DF938B01C09198
S11303604401D0914501C80FD91F80914701909154
S1130370480102960E946804E0914701F091480107
S1130380D383C2838091440190914501C817D90752
S113039050F4BF016E5F7F4F8091520190915301E1
S11303A00E94370409C0BF016E5F7F4F80915401E2
S11303B0909155010E9437040115110549F060918F
S11303C0470170914801645F7F4FC8010E94370460
S11303D0DF91CF911F910F9108950E9494000E9484
S11303E0CA0006C0882309F44FC081508093460197
S11303F080914601282F30E0F901EE0FFF1FEE0F28
S1130400FF1FEE0FFF1FE20FF31FE859FE4F90810D
S1130410992341F3C901880F991F880F991F880FE9
S1130420991F820F931FDF010180F281E02D02806A
S1130430F381E02D1296FC93EE93119785599E4F0C
S1130440E817F90729F482819381FD01928381835E
S1130450F901EE0FFF1FEE0FFF1FEE0FFF1F2E0F10
S11304603F1FF901E859FE4F0180F281E02D86819A
S113047097819093480180934701DC01ED91FC91B1
S1130480119757966C91099508950F931F93CF93E5
S1130490DF93DC011596ED91FC911697C681D78107
S11304A08E01045F1F4FC8010E946804B80189E4EB
S11304B091E00E9416049E89E0914701F091480161
S11304C08689981710F081E001C080E0DF91CF9118
S11304D01F910F910895411106C068237923672B5A
S11304E049F480E00895862397236817790721F05B
S11304F080E0089581E0089581E00895CF93DF932B
S11305008BE090E00E94EC05EC01009731F0FC01D7
S113051011921192CF010E940404CE01DF91CF9178
S11305200895AF92BF92CF92DF92EF92FF920F9312
S11305301F93CF93DF937C015B01C42ED22E0E94C4
S1130540500CF701C081D1814D2DB501CE010E941F
S11305506B02882369F0CC2009F1C5018095909540
S11305608C239D23F7019183808300E010E018C061
S113057001151105A9F0C11003C060E070E002C0CC
S113058060E071E0D11074606A297B29A801C70179
S113059002960E94590EC0E0D0E002C000E010E0D4
S11305A00E942A0D012B19F1811102C00E94340509
S11305B00E94350FEC0191FD19C00FB6F8940F920B
S11305C0F701C081D1814D2DB501CE010E946B028E
S11305D0882351F0CC2041F0B501609570956C23CF
S11305E07D23F701718360830F900FBEDD27CE0159
S11305F0DF91CF911F910F91FF90EF90DF90CF90FB
S1130600BF90AF900895FC010FB6F8940F928081CB
S113061091816095709568237923718360830F902D
S11306200FBE0895FC01808191810895CF92DF92DD
S1130630EF92FF920F931F93CF93DF937C018B0173
S1130640EC0125960E94500CD7011796ED91FC9170
S113065018978D919C911197082B192B0D931C932E
S113066000E010E02DC0C280D380808191819C0184
S1130670332792FD09C0D7014D915C914223532346
S1130680452B61F440E00DC0D7014D915C914223AC
S113069053232417350721F040E003C041E001C093
S11306A041E0442359F090FF02C0022B132BD701E1
S11306B06D917C917260CF010E94BA0EEC2DFD2DDC
S11306C0EC17FD0781F600951095F7018081918163
S11306D008231923118300830E942A0DD7018D91C9
S11306E09C91DF91CF911F910F91FF90EF90DF903C
S11306F0CF900895AF92BF92CF92DF92EF92FF9284
S11307000F931F93CF93DF938C01EB017A0169015F
S11307100E94500CF801A080B180BE01C8010E9463
S11307201603CA29DB29CE018E219F21E816F9067A
S113073069F4F80120813181C70180959095822365
S1130740932391838083C12CD12C10C0C114D10474
S113075051F0A601B7017560C80102960E94590EB6
S1130760C0E0D0E003C0F801C081D1810E942A0D0D
S1130770CD28F9F0811102C00E9434050E94350F82
S113078091FD15C00FB6F8940F92F8018081918104
S1130790970128233923E216F30639F4A70140957B
S11307A0509548235923518340830F900FBEEC0189
S11307B0DD27CE01DF91CF911F910F91FF90EF9034
S11307C0DF90CF90BF90AF900895CF93DF93EC016B
S11307D00E94500C06C060E072E08F8198850E94F0
S11307E0BA0E8A818111F7CFCE010E9421060E94A0
S11307F02A0DDF91CF910895BA010E94160308953E
S1130800BA010E9403030895FC0103969283818335
S11308102FEF3FEF348323839683858390878783E9
S113082010820895FC01118610860895CF93DF93FA
S11308309C01FB01DC011196CD91DC911297D383CD
S1130840C2838C819D81958384838C819D81DC010D
S113085013967C936E9312977D836C8331872087E4
S1130860F90180818F5F8083DF91CF910895CF93C9
S1130870DF93EB01488159814F3F2FEF520721F459
S1130880FC01A781B0850DC0DC01139601C0DF0116
S11308901296ED91FC9113972081318142175307F1
S11308A0B0F71296ED91FC911397FB83EA83D583FD
S11308B0C483BD83AC831396DC93CE93129799873C
S11308C08887FC0120812F5F2083DF91CF910895D9
S11308D0CF93DF93FC01A085B185C281D38184814C
S11308E095819D838C83C481D581828193819B83EF
S11308F08A8311968D919C911297E817F90731F428
S11309008481958112969C938E93119711861086FB
S11309108C9181508C93DF91CF91089586E08BBDAB
S11309208FEB8ABD8BE08EBD87B7806187BF08954A
S113093031E1FC013083319722E220833197A3E334
S1130940A0833197608331977083319710823197F8
S113095060E8608331971082319762E06083319759
S113096063E06083319764E06083319765E060837E
S1130970319766E06083319767E06083319768E080
S11309806083319769E06083319760E160833197D8
S11309903083319732E13083319733E130833197BB
S11309A034E13083319735E13083319736E1308358
S11309B0319737E13083319738E13083319739E12A
S11309C03083319730E23083319731E2308331978D
S11309D02083319723E220833197408331975083DA
S11309E0319726E22083319727E22083319728E24A
S11309F02083319729E22083319720E320833197A4
S1130A0021E32083869708950E948E04A091CF0D40
S1130A10B091D00DCD91CDBFDD91DEBFFF91EF91AF
S1130A20DF91CF91BF91AF919F918F917F916F9102
S1130A305F914F913F912F911F910F91FF90EF90F4
S1130A40DF90CF90BF90AF909F908F907F906F90EA
S1130A505F904F903F902F901F900F900FBE0F907C
S1130A60089581E0089508950F920FB6F8940F92B7
S1130A701F9211242F923F924F925F926F927F9216
S1130A808F929F92AF92BF92CF92DF92EF92FF929A
S1130A900F931F932F933F934F935F936F937F9382
S1130AA08F939F93AF93BF93CF93DF93EF93FF9372
S1130AB0A091CF0DB091D00D0DB60D920EB60D9242
S1130AC00E94F30DA091CF0DB091D00DCD91CDBF6B
S1130AD0DD91DEBFFF91EF91DF91CF91BF91AF9197
S1130AE09F918F917F916F915F914F913F912F9142
S1130AF01F910F91FF90EF90DF90CF90BF90AF9038
S1130B009F908F907F906F905F904F903F902F9029
S1130B101F900F900FBE0F9008950F920FB6F89488
S1130B200F921F9211242F923F924F925F926F92D5
S1130B307F928F929F92AF92BF92CF92DF92EF9269
S1130B40FF920F931F932F933F934F935F936F9352
S1130B507F938F939F93AF93BF93CF93DF93EF9341
S1130B60FF93A091CF0DB091D00D0DB60D920EB69E
S1130B700D920E94700C81110E94F30DA091CF0D73
S1130B80B091D00DCD91CDBFDD91DEBFFF91EF913E
S1130B90DF91CF91BF91AF919F918F917F916F9191
S1130BA05F914F913F912F911F910F91FF90EF9083
S1130BB0DF90CF90BF90AF909F908F907F906F9079
S1130BC05F904F903F902F901F900F900FBE0F900B
S1130BD008950E948D051895CF93DF93EC010E9430
S1130BE0500C80917A0190917B01892B31F48FE72D
S1130BF091E090937B0180937A0120917C01309164
S1130C007D01C9018C0F9D1F8F3F4BE0940770F449
S1130C102817390770F4C0917A01D0917B01C20F73
S1130C20D31F90937D0180937C0105C0C0E0D0E088
S1130C3002C0C0E0D0E00E942A0DCE01DF91CF9126
S1130C400895089510927D0110927C0108952091D9
S1130C507C0130917D018FEF9BE0821B930B089503
S1130C600FB6F8940F92FC01828D811102C081E0CD
S1130C7001C080E00F900FBE08950FB6F8940F9254
S1130C80FC01228D838D281302C081E001C080E025
S1130C900F900FBE08950F931F93CF93DF93EC0132
S1130CA0042F1A8D4C8D4423B9F1011116C050E064
S1130CB08C819D810E9428152C8D8C819D81820FB1
S1130CC0911D9D838C832A813B818217930720F198
S1130CD0888199819D838C831FC050E08E819F8180
S1130CE00E9428158C8D90E09195819591092E8113
S1130CF03F81280F391F3F832E8348815981241750
S1130D00350730F42A813B81820F931F9F838E83A2
S1130D10023011F4111111501F5F1A8F80E0DF911E
S1130D20CF911F910F910895FC01448D4423A9F0A4
S1130D3050E026813781240F351F37832683828133
S1130D4093812817390720F08081918197838683C6
S1130D50CB01668177810E94281508951F93CF9354
S1130D60DF93EC010FB6F8940F921E8D0BC08989A6
S1130D70882351F0CE0141960E94720E81110E9487
S1130D80310F115011169CF38FEF8E8F0F900FBE01
S1130D900FB6F8940F921D8D0BC08885882351F0EF
S1130DA0CE0108960E94720E81110E94310F1150DB
S1130DB011169CF38FEF8D8F0F900FBEDF91CF91A3
S1130DC01F910895CF93DF93EC010FB6F8940F921F
S1130DD0E881F9818B8D90E02C8D30E0829FA00119
S1130DE0839F500D929F500D11244E0F5F1F5B8304
S1130DF04A831A8EFD83EC830197289FA001299FC3
S1130E00500D389F500D1124CF01840F951F9F83DF
S1130E108E838FEF8D8F8E8F61110CC08885882310
S1130E2089F0CE0108960E94720E882359F00E9420
S1130E30340508C0CE0108960E940404CE014196F0
S1130E400E9404040F900FBE81E0DF91CF910895BA
S1130E500F931F93F801611103C01183008302C033
S1130E6051834083838F648F61E0CF010E94E20647
S1130E701F910F910895DF92EF92FF920F931F93AA
S1130E80CF93DF93E82EF62ED42E662321F0869F8F
S1130E90C001112402C080E090E04F960E94EC054E
S1130EA0EC01009749F08C012D2DAC01415E5F4FA0
S1130EB06F2D8E2D0E942807CE01DF91CF911F91B7
S1130EC00F91FF90EF90DF900895CF92DF92EF9211
S1130ED0FF920F931F93CF93DF9300D000D01F9204
S1130EE0CDB7DEB78C017B015D834C83C22ED12C40
S1130EF00FB6F8940F92F801928D838D981718F01D
S1130F00F2E0CF1219C04C2DB701C8010E944B0664
S1130F10F8019189992349F0C80141960E94720E03
S1130F20882331F00E94340503C081110E943405E6
S1130F300F900FBE81E04DC08C819D81892B21F4DF
S1130F400F900FBE80E045C0D11006C0CE010196BF
S1130F500E94F40EDD24D3940F900FBE0E94500C17
S1130F600FB6F8940F92F801858D8F3F09F4158E12
S1130F70F801868D8F3F09F4168E0F900FBEBE01C7
S1130F806C5F7F4FCE0101960E94FF0E81111BC042
S1130F90C8010E943D06882381F06C817D81C801CF
S1130FA008960E94470EC8010E94AE060E942A0DB0
S1130FB081119ECF0E9434059BCFC8010E94AE06CA
S1130FC00E942A0D95CFC8010E94AE060E942A0DE8
S1130FD080E00F900F900F900F900F90DF91CF91C2
S1130FE01F910F91FF90EF90DF90CF900895EF92B3
S1130FF0FF920F931F93CF93DF938A01FC01528DCD
S1131000338D531710F02230F1F4422F7801EC01A4
S11310101E8D0E944B061F3F81F489898823A9F005
S1131020CE0141960E94720E882389F0E114F104E6
S113103081F081E0F70180830DC0FF24F394F10E69
S1131040FE8E81E007C080E005C081E003C081E03E
S113105001C081E0DF91CF911F910F91FF90EF903C
S11310600895CF93DF93FC01828D938D8917C0F48B
S1131070968D8F5F828F9F3F79F48189882391F0C9
S1131080EB01CF0141960E94720E882369F02097EC
S113109069F081E088830BC09F5F968F81E007C071
S11310A080E005C081E003C081E001C081E0DF9100
S11310B0CF9108958F929F92BF92CF92DF92EF9239
S11310C0FF920F931F93CF93DF9300D000D01F9212
S11310D0CDB7DEB78C016B015D834C83B22EE12C5E
S11310E00FB6F8940F92F801F28CFF2041F186803C
S11310F09780B601C8010E949406B1100FC0FA94FB
S1131100F801F28E80858823B1F0C80108960E9408
S1131110720E882381F00E9434050DC0F801978275
S113112086828189882339F0C80141960E94720E13
S113113081110E9434050F900FBE81E053C08C8151
S11311409D81892B21F40F900FBE80E04BC0E110EC
S113115006C0CE0101960E94F40EEE24E3940F9093
S11311600FBE0E94500C0FB6F8940F92F801858DB3
S11311708F3F09F4158EF801868D8F3F09F4168E82
S11311800F900FBEBE016C5F7F4FCE0101960E948F
S1131190FF0E81111BC0C8010E943006882381F014
S11311A06C817D81C80141960E94470EC8010E944E
S11311B0AE060E942A0D811193CF0E94340590CF70
S11311C0C8010E94AE060E942A0D8ACFC8010E945F
S11311D0AE060E942A0DC8010E943006882309F435
S11311E07FCF80E00F900F900F900F900F90DF91C2
S11311F0CF911F910F91FF90EF90DF90CF90BF9010
S11312009F908F900895EF92FF920F931F93CF9327
S1131210DF93FC01C28DCC23F9F07A018C01D58DCA
S11312200E949406C150F801C28FDF3F81F480858B
S11312308823A1F0C80108960E94720E882381F0C9
S1131240E114F10479F081E0F70180830CC0DF5FE1
S1131250F801D58F81E007C080E005C081E003C0BC
S113126081E001C081E0DF91CF911F910F91FF9048
S1131270EF9008950F931F93CF93DF93FC01228D7A
S1131280222349F0EC01068117810E9494061F83F2
S11312900E8381E001C080E0DF91CF911F910F9117
S11312A008950FB6F8940F92FC01828D0F900FBE33
S11312B00895FC010FB6F8940F92938D828D981BBC
S11312C0892F0F900FBE0895FC01828D08950E940E
S11312D021060895FC01828D811102C081E00895E8
S11312E080E00895FC01228D838D281302C081E0E3
S11312F0089580E00895EF92FF920F931F93CF9388
S1131300DF93EC017B018A01F8940E943D06882357
S113131079F00115110549F0BE01685F7F4FC801DE
S11313200E94AA0178948CEF1FC0789480E01CC0BE
S11313307894F8949A8D8B8D981780F440E0B701D7
S1131340CE010E944B068989882351F0CE01419633
S11313500E944502811106C081E005C080E003C0FF
S113136081E001C08BEF7894DF91CF911F910F91B1
S1131370FF90EF900895CF93DF93EC019B01F894D5
S11313809A8D91110FC04115510549F0BE016F5E50
S11313907F4FCA010E94AA0178948CEF32C07894DE
S11313A080E02FC07894F8948A8D882321F14C8DA5
S11313B050E08E819F81840F951F9F838E836A8165
S11313C07B818617970720F0888199819F838E837C
S11313D08A8D81508A8F6E817F81C9010E94281570
S11313E08885882351F0CE0108960E944502811118
S11313F006C081E005C080E003C081E001C08BEF3E
S11314007894DF91CF9108950F931F93CF93FC01AC
S1131410328D238D321798F4C42F8C0140E00E9442
S11314204B06C1110EC0F8018189882361F0C801FF
S113143041960E944502882341F081E007C0842F31
S113144005C08C2F03C08C2F01C08C2FCF911F910E
S11314500F9108950F931F93CF93DF93FC01828D17
S1131460882369F1248D30E0A681B781A20FB31FD0
S1131470B783A68382819381A817B90720F080815E
S11314809181978386838A01CB01EF01428D41507C
S1131490428F66817781A9010E942815F801808115
S11314A081110FC08885882371F0CE0108960E94AF
S11314B04502882351F081E0F801808307C080E071
S11314C005C081E003C081E001C081E0DF91CF91DC
S11314D01F910F910895E091970DF091980D8081DF
S11314E0811107C08FEF9FEF9093820D8093810D40
S11314F00895E091970DF091980D0580F681E02D07
S11315000680F781E02D828193819093820D8093F0
S1131510810D08956F927F928F929F92AF92BF92A6
S1131520CF92DF92EF920F931F93CF93DF93CDB7B8
S1131530DEB74C01F5018789908D215031093C01BA
S1131540620E731E20E00FC0822F90E0FB01E80FB3
S1131550F91F3081D501A80FB91F59963C9380819A
S1131560882319F02F5F283078F3F50110A2F3E0F7
S1131570FE1520F40F2EF3E0EF2EF02DF501E68A90
S1131580C50102960E941204C5010C960E94120421
S1131590F501B186A08684E090E08E1991099587C3
S11315A08487B38AA28A11A212A213A214A215A23A
S11315B0A801B401C3010E949804F50191838083BA
S11315C0C114D10419F0F601B182A082DF91CF9148
S11315D01F910F91EF90DF90CF90BF90AF909F90AD
S11315E08F907F906F900895CF93C0E010C08C2FA0
S11315F090E09C01220F331F220F331F220F331F51
S1131600820F931F8555924F0E940404CF5FC4300C
S113161070F382EA9DE00E94040489E99DE00E943F
S113162004048CE89DE00E94040482EA9DE0909307
S1131630980D8093970D89E99DE09093960D809382
S1131640950DCF910895CF93DF93EC010FB6F894E5
S11316500F9280918B0D8F5F80938B0D8091CF0DB6
S11316609091D00D892B59F4D093D00DC093CF0D08
S113167080918B0D813099F40E94F40A10C08091FE
S1131680870D81110CC0E091CF0DF091D00D96899A
S11316908E89891720F0D093D00DC093CF0D8091FF
S11316A0830D8F5F8093830D8E899091880D981799
S11316B010F48093880D90E09C01220F331F220FB9
S11316C0331F220F331F820F931FBE016E5F7F4FA4
S11316D08555924F0E9416040F900FBE8091870D7E
S11316E0882351F0E091CF0DF091D00D96898E8929
S11316F0981710F40E943405DF91CF9108950F9349
S11317001F93CF93DF93EC010091890D10918A0D03
S11317108091CF0D9091D00D02960E946804C00F65
S1131720D11FE091CF0DF091D00DD383C283C017A8
S1131730D10768F46091CF0D7091D00D8091950D13
S11317409091960D6E5F7F4F0E94370417C0609191
S1131750CF0D7091D00D8091970D9091980D6E5F83
S11317607F4F0E9437048091810D9091820DC8179C
S1131770D90720F4D093820DC093810DDF91CF91CE
S11317801F910F9108958091AB0D823010F00E944B
S113179034050E944713F7CF2F923F924F925F92E6
S11317A06F927F928F929F92AF92BF92CF92DF926D
S11317B0EF92FF920F931F93CF93DF933C011B0192
S11317C05A012901CA010E94EC056C01892B71F0B0
S11317D086E290E00E94EC05EC01892B19F0D88E8A
S11317E0CF8A06C0C6010E94210602C0C0E0D0E034
S11317F0209791F0950140E050E0812C912C5E01FE
S11318006701E02E8201B101C3010E948A0ACE0160
S11318100E94230B81E001C08FEFDF91CF911F91D4
S11318200F91FF90EF90DF90CF90BF90AF909F907B
S11318308F907F906F905F904F903F902F9008957E
S1131840EF92FF920F930F2EFFE7EF2EFDE0FF2E96
S1131850F02D00E020E030E045E550E068E071E084
S113186083EC9BE00E94CC0B813081F4F8948FEFE1
S11318709FEF9093820D8093810D81E08093870D7B
S113188010928A0D1092890D0E9404050F91FF9009
S1131890EF900895F8941092870D0E9433050895EF
S11318A080917E0D8F5F80937E0D08950FB6F8941E
S11318B00F928091890D90918A0D0F900FBE08951B
S11318C08091890D90918A0D089580918B0D0895D2
S11318D0009721F48091CF0D9091D00D49960895F1
S11318E0DF92EF92FF920F931F93CF93DF93809138
S11318F07E0D811197C0E090890DF0908A0D8FEFD5
S1131900E81AF80AF0928A0DE092890DE114F104C4
S1131910B9F48091970D9091980D2091950D309187
S1131920960D3093980D2093970D9093960D809378
S1131930950D8091840D8F5F8093840D0E946B0AB6
S11319408091810D9091820DE816F90628F4D12C2E
S113195053C0DD24D39401C0D12CE091970DF091B4
S1131960980D8081811107C08FEF9FEF9093820DB6
S11319708093810D41C0E091970DF091980D058001
S1131980F681E02DC681D7818A819B81E816F9060C
S113199028F49093820D8093810D2EC08E010E5FEA
S11319A01F4FC8010E9468048C899D89892B21F0EE
S11319B0CE010C960E9468048E899091880D981728
S11319C010F48093880D90E09C01220F331F220FA6
S11319D0331F220F331F820F931FB8018555924F77
S11319E00E9416049E89E091CF0DF091D00D868956
S11319F0981708F0AECFB1CFE091CF0DF091D00D94
S1131A00868990E0FC01EE0FFF1FEE0FFF1FEE0F23
S1131A10FF1F8E0F9F1FFC01E555F24F808182301E
S1131A2040F409C08091860D8F5F8093860DD12C80
S1131A3002C0DD24D3948091850D882311F0DD2428
S1131A40D3948D2DDF91CF911F910F91FF90EF9043
S1131A50DF9008950F931F93CF93DF930FB6F894FD
S1131A600F9280917E0D815080937E0D80917E0D2A
S1131A70811158C080918B0D811133C056C0E09103
S1131A80910DF091920DC681D781CE010C960E94E2
S1131A9068048E010E5F1F4FC8010E9468048E897E
S1131AA09091880D981710F48093880D90E09C0114
S1131AB0220F331F220F331F220F331F820F931F56
S1131AC0B8018555924F0E9416049E89E091CF0D6E
S1131AD0F091D00D8689981730F081E08093850DC0
S1131AE002C0C0E0D0E080918C0D8111C8CFCD2B15
S1131AF011F00E946B0AC091860DCC2359F00E940C
S1131B00700C882319F081E08093850DC150B9F7DA
S1131B101092860D8091850D882331F00E94340542
S1131B2081E003C080E001C080E00F900FBEDF9130
S1131B30CF911F910F9108950F931F93CF93DF932C
S1131B408C01EB010E94500C4091890D50918A0D3B
S1131B50F80120813181C9018C0F9D1F4217530761
S1131B6040F48217930768F44817590760F020E09F
S1131B700FC08217930748F04817590740F020E038
S1131B8007C020E005C021E003C021E001C021E03E
S1131B90F80191838083222329F060E0841B950B54
S1131BA00E947F0B0E942A0D811102C00E943405FD
S1131BB0DF91CF911F910F910895CF93DF93EC01A3
S1131BC0892B49F00E94500C60E0CE010E947F0BEB
S1131BD00E942A0D01C080E0811102C00E943405D8
S1131BE0DF91CF91089580917E0D882321F081E0CB
S1131BF08093850D08951092850D2091880D01C064
S1131C002150822F90E0FC01EE0FFF1FEE0FFF1F0B
S1131C10EE0FFF1FE80FF91FE555F24F3081332314
S1131C2079F3AC01440F551F440F551F440F551F42
S1131C30480F591FDF010180F281E02D0280F381FA
S1131C40E02D1296FC93EE9311974255524FE417F0
S1131C50F50729F442815381FD0152834183FC013C
S1131C60EE0FFF1FEE0FFF1FEE0FFF1F8E0F9F1FC4
S1131C70FC01E555F24F0180F281E02D86819781C8
S1131C809093D00D8093CF0D2093880D0895CF931A
S1131C90DF93EB016091CF0D7091D00D645F7F4FA6
S1131CA00E94370461E0CE010E947F0BDF91CF9147
S1131CB00895CF93DF93EA01E091CF0DF091D00D19
S1131CC07068758764876091CF0D7091D00D645FE3
S1131CD07F4F0E94160461E0CE010E947F0BDF91CA
S1131CE0CF9108950F931F93CF93DF93DC01159643
S1131CF0ED91FC911697C681D7818E01045F1F4F29
S1131D00C8010E94680480917E0D81111CC00A5094
S1131D101109C8010E9468048E899091880D981752
S1131D2010F48093880D90E09C01220F331F220F42
S1131D30331F220F331F820F931FB8018555924F13
S1131D400E94160405C0B8018CE89DE00E941604A8
S1131D509E89E091CF0DF091D00D8689891720F4EA
S1131D6081E08093850D01C080E0DF91CF911F91C8
S1131D700F9108950F931F93CF93DF937068FC0125
S1131D8071836083C681D7810E9468048E010E5FCF
S1131D901F4FC8010E9468048E899091880D98177E
S1131DA010F48093880D90E09C01220F331F220FC2
S1131DB0331F220F331F820F931FB8018555924F93
S1131DC00E9416049E89E091CF0DF091D00D868972
S1131DD0891720F481E08093850D01C080E0DF91B4
S1131DE0CF911F910F9108952091840DFC012083C0
S1131DF02091890D30918A0D328321830895CF93E8
S1131E00DF93FC010FB6F8940F924091890D509125
S1131E108A0D90818091840D981729F08181928197
S1131E2048175907B0F421813281CA01821B930BF0
S1131E30EB01A881B9818A179B0768F4CF01241BA1
S1131E40350B2A0F3B1F398328830E94F40E80E050
S1131E5003C081E001C081E00F900FBEDF91CF91FC
S1131E60089581E08093850D0895E091CF0DF09160
S1131E70D00D84859585E091CF0DF091D00DA09182
S1131E80CF0DB091D00D56964C9124E030E0241B38
S1131E9031093587248708950F931F93CF93C82F53
S1131EA0CB010FB6F8940F92E091CF0DF091D00DC5
S1131EB041A152A163A174A1452B462B472B69F480
S1131EC0E091CF0DF091D00D21E025A3009729F0EA
S1131ED061E00E947F0B0E9434050F900FBE0FB685
S1131EE0F8940F92E091CF0DF091D00D61A172A101
S1131EF083A194A16115710581059105C9F0CC23D5
S1131F0049F0E091CF0DF091D00D11A212A213A2CD
S1131F1014A20EC0E091CF0DF091D00D8B019C0165
S1131F20015011092109310901A312A323A334A3E8
S1131F30E091CF0DF091D00D15A20F900FBECF916F
S1131F401F910F9108954F925F926F927F928F929B
S1131F509F92AF92BF92EF92FF920F931F9349010A
S1131F605A010FB6F8940F92E091CF0DF091D00D75
S1131F7025A1223029F1E091CF0DF091D00D41A09F
S1131F8052A063A074A0DC01CB0180959095A0952C
S1131F90B09584219521A621B72181A392A3A3A35F
S1131FA0B4A3E091CF0DF091D00D81E085A3E114AD
S1131FB0F10431F061E0C7010E947F0B0E943405F7
S1131FC00F900FBE0FB6F8940F920115110569F02A
S1131FD0E091CF0DF091D00D81A192A1A3A1B4A164
S1131FE0F80180839183A283B383E091CF0DF091B4
S1131FF0D00D85A18130B1F0E091CF0DF091D00DDD
S113200081A192A1A3A1B4A180949094A094B0942E
S113201088229922AA22BB2281A292A2A3A2B4A2BC
S113202081E001C080E0E091CF0DF091D00D15A2C8
S11320300F900FBE1F910F91FF90EF90BF90AF9044
S11320409F908F907F906F905F904F900895EF9244
S1132050FF920F931F93CF93DF93FC010FB6F89475
S11320600F920115110549F081A192A1A3A1B4A178
S1132070E80188839983AA83BB8385A192E095A311
S11320802230B9F018F4213031F02FC02330F9F0A8
S1132090243019F12AC001A112A123A134A1402B9B
S11320A0512B622B732B41A352A363A374A311E09E
S11320B01FC041A152A163A174A14F5F5F4F6F4F35
S11320C07F4F41A352A363A374A311E011C041A3A2
S11320D052A363A374A311E00BC0823041F041A367
S11320E052A363A374A311E003C011E001C010E084
S11320F0813041F5EF017F0182E0E80EF11CC70158
S11321000E9468048E899091880D981710F480932A
S1132110880D90E09C01220F331F220F331F220FE2
S1132120331F820F931FB7018555924F0E941604E7
S11321309E89E091CF0DF091D00D8689891710F416
S11321400E9434050F900FBE812FDF91CF911F9114
S11321500F91FF90EF900895CF92DF92EF92FF924C
S11321600F931F93CF93DF93FC010115110549F0E1
S113217081A192A1A3A1B4A1E80188839983AA8330
S1132180BB8385A192E095A32230B9F018F42130E5
S113219031F02FC02330F9F0243019F12AC001A105
S11321A012A123A134A1402B512B622B732B41A3E9
S11321B052A363A374A311E01FC041A152A163A160
S11321C074A14F5F5F4F6F4F7F4F41A352A363A32F
S11321D074A311E011C041A352A363A374A311E03B
S11321E00BC0823041F041A352A363A374A311E056
S11321F003C011E001C010E08130E1F5EF018091EE
S11322007E0D81111EC06F01E2E0CE0ED11CC6010D
S11322100E9468048E899091880D981710F4809319
S1132220880D90E09C01220F331F220F331F220FD1
S1132230331F820F931FB6018555924F0E941604D7
S113224007C0BF01645F7F4F8CE89DE00E941604C5
S11322509E89E091CF0DF091D00D8689891750F4B5
S1132260E114F10421F081E0E701888303C081E0F7
S11322708093850D812FDF91CF911F910F91FF9056
S1132280EF90DF90CF900895EF92FF920F931F93FA
S1132290CF93DF93FC0125A182E085A381A192A1C4
S11322A0A3A1B4A10196A11DB11D81A392A3A3A3CF
S11322B0B4A32130E9F58B01EF0180917E0D8111EA
S11322C01EC07F0182E0E80EF11CC7010E94680471
S11322D08E899091880D981710F48093880D90E062
S11322E09C01220F331F220F331F220F331F820F33
S11322F0931FB7018555924F0E94160407C0BF0172
S1132300645F7F4F8CE89DE00E9416049E89E091F3
S1132310CF0DF091D00D8689891750F40115110560
S113232021F081E0F801808303C081E08093850D72
S1132330DF91CF911F910F91FF90EF900895009737
S113234021F48091CF0D9091D00D0FB6F8940F9297
S1132350FC0125A1223019F415A281E001C080E01E
S11323600F900FBE0895EF92FF920F931F93CF9398
S11323708C017B01C0E007C020E041E050E0C701D0
S11323800E946507CF5FB8016C0F711DFB0180814E
S11323908111F2CFCF911F910F91FF90EF9008958B
S11323A0CF93DF931F92CDB7DEB78983CB0120E0B3
S11323B041E050E0BE016F5F7F4F0E9465070F90C0
S11323C0DF91CF91089520E04FEF5FEF6CE970E06B
S11323D08091DB0D9091DC0D0E945A0880919B0046
S11323E085FFFCCFF0CF20E04FEF5FEF6CE970E0AA
S11323F08091210E9091220E0E945A0880919B0098
S113240085FFFCCFF0CF20E04FEF5FEF6CE270E090
S113241080911F0E9091200E0E945A085D9BFECF62
S1132420F2CF0F931F93CF938C010E945109C82FB1
S113243009C020E040E050E060E070E0C8010E9484
S11324405A08CF5FC111F5CFCF911F910F91089515
S1132450CF93DF931F92CDB7DEB78EE8898320E058
S113246041E050E0BE016F5F7F4F80911F0E90915D
S1132470200E0E946507198220E041E050E0BE0171
S11324806F5F7F4F80911F0E9091200E0E94650711
S113249010E010C0612F70E06352724F20E045E0FD
S11324A050E080911D0E90911E0E0E945A088823C0
S11324B019F01F5F1A3170F38CE291E00E94DD0D78
S11324C0CCCF98B381E0892788BB6091210E7091AD
S11324D0220E8DE091E00E94B3116091210E709163
S11324E0220E8DED9DE00E94B3116091210E70913A
S11324F0220E8DE00E94D0116091210E7091220E67
S11325008AE00E94D0118CE291E00E94DD0DD9CFC7
S1132510EF92FF920F93CF93DF9300D0CDB7DEB746
S113252040E061E080E20E943B079093200E80939C
S11325301F0E40E061E080E20E943B0790931E0E74
S113254080931D0E40E061E080E20E943B0790937F
S1132550220E8093210E40E061E080E20E943B075E
S11325609093DC0D8093DB0D40E061E080E20E94FB
S11325703B079093D60D8093D50D81E08A830FC0DD
S113258020E041E050E0BE016E5F7F4F8091D50DA9
S11325909091D60D0E9465078A818F5F8A838A8114
S11325A08B3070F38091D50D9091D60D0E94510916
S11325B089838091D50D9091D60D0E94111280913E
S11325C0D50D9091D60D0E945109898387B38160FE
S11325D087BB87B3826087BB0E94A2138AB18068DD
S11325E08AB9EAE9F0E0808180688083789420E009
S11325F031E041E361E487ED9DE00E94C6136DEF95
S11326007DE087ED9DE00E94CC13E12CF12C01E0EC
S113261020E030E045E550E067E171E081E692E1D9
S11326200E94CC0B02E020E030E045E550E06EE192
S113263071E083E092E10E94CC0B20E030E045E5BC
S113264050E066E271E083EF91E10E94CC0B20E060
S113265030E045E550E06EE271E083EE91E10E94E6
S1132660CC0B20E030E045E550E066E371E088E221
S113267092E10E94CC0B0E94200C80E090E00F902D
S11326800F90DF91CF910F91FF90EF9008950895EF
S11326901F920F920FB60F9211242F933F934F93D3
S11326A05F936F937F938F939F93AF93BF93EF93B6
S11326B0FF9320E040E050E06CE270E080911D0E5A
S11326C090911E0E0E94F707FF91EF91BF91AF9179
S11326D09F918F917F916F915F914F913F912F9136
S11326E00F900FBE0F901F9018951F920F920FB668
S11326F00F9211242F933F934F935F936F937F9384
S11327008F939F93AF93BF93EF93FF9320E040E0A9
S113271050E06CE970E08091DB0D9091DC0D0E943B
S1132720F707FF91EF91BF91AF919F918F917F91A7
S11327306F915F914F913F912F910F900FBE0F902A
S11327401F9018951092900085E089B91092980016
S113275087E48093990088E18AB980939A00089568
S11327608CB908958CB90895AC0190E004C05D9BC8
S1132770FECF2CB99F5FFA01E90FF11D20812111D1
S1132780F6CF08955F9BFECF8CB10895FC01608362
S11327904183338322830895CF93DF93EC01DB01DC
S11327A08BE78C93888111968C931197898112966B
S11327B08C9312978881813449F013C0FD01E90F8D
S11327C0F11D40832F5F3F4F9F5F03C020E030E047
S11327D093E0EA81FB81E20FF31F40814111EECFC8
S11327E007C0EA81FB81808113968C93139794E050
S11327F081E0890FFD01E90FF11D9DE79083A80F8A
S1132800B11D1C92DF91CF910895CF92DF92EF9288
S1132810FF92CF936B017C01C42F0FB6F8940F92F3
S113282040E061E08C2F0E943B079093D40D80938D
S1132830D30D40E061E08C2F0E943B079093D20DB2
S11328408093D10DD701C601880F991FAA1FBB1F02
S1132850880F991FAA1FBB1F9C01AD01220F331FB4
S1132860441F551F220F331F441F551F60E070EC97
S113287088EA90E00E940615DA01C9010197A109CE
S1132880B10989B9892F9A2FAB2FBB278093900068
S113289088E98AB986E8809395000F900FBE80E09E
S11328A090E0CF91FF90EF90DF90CF90089520E0DB
S11328B08091D30D9091D40D0E945A08811181E02A
S11328C00895CF93DF931F92CDB7DEB7698320E0DD
S11328D0BE016F5F7F4F8091D10D9091D20D0E9408
S11328E06507813021F49AB190629AB901C080E001
S11328F00F90DF91CF9108950FB6F8940F928AB19B
S11329008F7D8AB98AB18F778AB90F900FBE0895E7
S11329101F920F920FB60F9211242F933F934F9350
S11329205F936F937F938F939F93AF93BF93EF9333
S1132930FF93CF93DF9300D0CDB7DEB71A828CB16B
S1132940898320E0AE014E5F5F4FBE016F5F7F4F12
S11329508091D30D9091D40D0E94F7078A81811143
S11329600E9434050F900F90DF91CF91FF91EF916A
S1132970BF91AF919F918F917F916F915F914F9193
S11329803F912F910F900FBE0F901F9018951F929B
S11329900F920FB60F9211242F933F934F935F938F
S11329A06F937F938F939F93AF93BF93EF93FF9313
S11329B0CF93DF9300D0CDB7DEB7AE014E5F5F4F4C
S11329C0BE016F5F7F4F8091D10D9091D20D0E9417
S11329D00309813019F489818CB903C08AB18F7DD0
S11329E08AB90F900F90DF91CF91FF91EF91BF9132
S11329F0AF919F918F917F916F915F914F913F9193
S1132A002F910F900FBE0F901F901895A1E21A2ED0
S1132A10AA1BBB1BFD010DC0AA1FBB1FEE1FFF1F7E
S1132A20A217B307E407F50720F0A21BB30BE40BCE
S1132A30F50B661F771F881F991F1A9469F7609515
S1132A407095809590959B01AC01BD01CF010895CF
S1132A50FB01DC0102C001900D9241505040D8F7B7
S1092A600895F894FFCF75
S1132A6648656C6C6F21200049444C450053656EE3
S1132A76736F72733A20005265644C4544005541A5
S1132A8652543054780055415254315478005541CB
S1132A965254315278004379636C6963616C000067
S9030000FC
