S0200000526F6F6D6261436F6D6D616E6465725F41546D65676136342E7372656316
S11300000C9454000C9471000C9471000C947100C5
S11300100C9471000C9471000C9471000C94710098
S11300200C9471000C9471000C9471000C94710088
S11300300C94F7050C9471000C9471000C947100ED
S11300400C9471000C9471000C9438140C9471008D
S11300500C9471000C9471000C9471000C94710058
S11300600C9471000C9471000C9471000C94710048
S11300700C9471000C9471000C9465140C94710030
S11300800C9471000C9471000C94710075136F132F
S11300906F136F136F136F136F136F137313751342
S11300A0711371137513751311241FBECFEFD0E1B3
S11300B0DEBFCDBF11E0A0E0B1E0E6E4F9E202C0AA
S11300C005900D92AE31B107D9F72DE0AEE1B1E064
S11300D001C01D92A43DB207E1F70E94C3130C9422
S11300E0A1140C940000CF93C0E010C08C2F90E0BA
S11300F09C01220F331F220F331F220F331F820F45
S1130100931F8A5B9E4F0E941204CF5FC23070F32C
S11301108DE391E00E94120484E391E00E941204B2
S113012087E291E00E9412048DE391E09093330101
S11301308093320184E391E0909331018093300104
S1130140CF9108950F931F93CF93DF9328C0F89412
S1130150E0912C01F0912D01C681D781CE010C963E
S11301600E94760478948E010E5F1F4FC8010E948E
S113017076048E8990912401981710F480932401B9
S113018090E09C01220F331F220F331F220F331FD5
S1130190820F931FB8018A5B9E4F0E9424048091B2
S11301A027018111D4CFDF91CF911F910F91089531
S11301B00F931F93CF93DF930E94B20C20912001E1
S11301C030912101821B930B90931F0180931E0198
S11301D05EC020912201309123012F5F3F4F309365
S11301E0230120932201019790931F0180931E0104
S11301F0232B09F045C08091320190913301209165
S113020030013091310130933301209332019093C6
S113021031018093300134C00580F681E02DC68120
S1130220D7812A813B8180912201909123018217F9
S1130230930768F1F8948E010E5F1F4FC8010E9466
S113024076048C899D89892B21F0CE010C960E941D
S1130250760478948E8990912401981710F48093F1
S1130260240190E09C01220F331F220F331F220F21
S1130270331F820F931FB8018A5B9E4F0E94240490
S1130280E0913201F091330180818111C5CF8091D9
S11302901E0190911F01009709F09BCF80912201CC
S11302A0909123019093210180932001DF91CF91BC
S11302B01F910F910895CF92DF92FF920F931F9396
S11302C0CF93DF936C01F62E142F8AE190E00E9405
S11302D0FA05EC01892B09F442C080912501909123
S11302E02601892B31F4D0932601C09325010E9465
S11302F0730081E08F1510F4FF24F394198E188E87
S1130300FE8A1F8BFE01C192D1928F01CF010E9400
S11303102004CE010C960E942004D987C887DB8B69
S1130320CA8B82E090E08F1991099D878C878E8912
S113033090912401981710F48093240190E09C017B
S1130340220F331F220F331F220F331F820F931FDD
S1130350B8018A5B9E4F0E94240481E001C08FEFA4
S1130360DF91CF911F910F91FF90DF90CF9008956F
S11303700F931F93CF93DF938B01C0912201D091F0
S11303802301C80FD91F809125019091260102965F
S11303900E947604E0912501F0912601D383C28363
S11303A08091220190912301C817D90750F4BF010D
S11303B06E5F7F4F80913001909131010E9445041E
S11303C009C0BF016E5F7F4F80913201909133016C
S11303D00E9445040115110549F0609125017091B1
S11303E02601645F7F4FC8010E944504DF91CF91CD
S11303F01F910F9108950E94A2000E94D80006C088
S1130400882309F44FC081508093240180912401F2
S1130410282F30E0F901EE0FFF1FEE0FFF1FEE0F44
S1130420FF1FE20FF31FEA5BFE4F9081992341F314
S1130430C901880F991F880F991F880F991F820F70
S1130440931FDF010180F281E02D0280F381E02D12
S11304501296FC93EE931197875B9E4FE817F9076A
S113046029F482819381FD0192838183F901EE0F46
S1130470FF1FEE0FFF1FEE0FFF1F2E0F3F1FF9018F
S1130480EA5BFE4F0180F281E02D86819781909393
S1130490260180932501DC01ED91FC91119757967B
S11304A06C91099508950F931F93CF93DF93DC010B
S11304B01596ED91FC911697C681D7818E01045F44
S11304C01F4FC8010E947604B80187E291E00E94A0
S11304D024049E89E0912501F091260186899817CC
S11304E010F081E001C080E0DF91CF911F910F9166
S11304F00895411106C068237923672B49F480E0ED
S11305000895862397236817790721F080E00895DA
S113051081E0089581E00895CF93DF938BE090E02C
S11305200E94FA05EC01009731F0FC01119211923E
S1130530CF010E941204CE01DF91CF910895AF92B2
S1130540BF92CF92DF92EF92FF920F931F93CF93BC
S1130550DF937C015B01C42ED22E0E94AC0CF70108
S1130560C081D1814D2DB501CE010E94790288232D
S113057069F0CC2009F1C501809590958C239D23C9
S1130580F7019183808300E010E018C00115110584
S1130590A9F0C11003C060E070E002C060E071E047
S11305A0D11074606A297B29A801C70102960E94B0
S11305B0B50EC0E0D0E002C000E010E00E94860D5D
S11305C0012B19F1811102C00E9442050E943810CA
S11305D0EC0191FD19C00FB6F8940F92F701C08198
S11305E0D1814D2DB501CE010E947902882351F0AD
S11305F0CC2041F0B501609570956C237D23F70103
S1130600718360830F900FBEDD27CE01DF91CF9100
S11306101F910F91FF90EF90DF90CF90BF90AF901C
S11306200895FC010FB6F8940F9280819181609532
S1130630709568237923718360830F900FBE0895AA
S1130640FC01808191810895CF92DF92EF92FF9215
S11306500F931F93CF93DF937C018B01EC012596BD
S11306600E94AC0CD7011796ED91FC9118978D91CF
S11306709C911197082B192B0D931C9300E010E00B
S11306802DC0C280D380808191819C01332792FD4B
S113069009C0D7014D915C9142235323452B61F44A
S11306A040E00DC0D7014D915C91422353232417A0
S11306B0350721F040E003C041E001C041E044239C
S11306C059F090FF02C0022B132BD7016D917C913E
S11306D07260CF010E94160FEC2DFD2DEC17FD0763
S11306E081F600951095F7018081918108231923E3
S11306F0118300830E94860DD7018D919C91DF9117
S1130700CF911F910F91FF90EF90DF90CF900895BC
S1130710AF92BF92CF92DF92EF92FF920F931F930B
S1130720CF93DF938C01EB017A0169010E94AC0C39
S1130730F801A080B180BE01C8010E942403CA2927
S1130740DB29CE018E219F21E816F90669F4F80110
S113075020813181C70180959095822393239183D1
S11307608083C12CD12C10C0C114D10451F0A60136
S1130770B7017560C80102960E94B50EC0E0D0E0D2
S113078003C0F801C081D1810E94860DCD28F9F003
S1130790811102C00E9442050E94381091FD15C0CB
S11307A00FB6F8940F92F801808191819701282364
S11307B03923E216F30639F4A701409550954823EE
S11307C05923518340830F900FBEEC01DD27CE01E6
S11307D0DF91CF911F910F91FF90EF90DF90CF9019
S11307E0BF90AF900895CF93DF93EC010E94AC0CBF
S11307F006C060E072E08F8198850E94160F8A819E
S11308008111F7CFCE010E942F060E94860DDF9141
S1130810CF910895BA010E9424030895BA010E9459
S113082011030895FC010396928381832FEF3FEF18
S113083034832383968385839087878310820895E6
S1130840FC01118610860895CF93DF939C01FB0170
S1130850DC011196CD91DC911297D383C2838C81F4
S11308609D81958384838C819D81DC0113967C9387
S11308706E9312977D836C8331872087F901808181
S11308808F5F8083DF91CF910895CF93DF93EB0146
S1130890488159814F3F2FEF520721F4FC01A78172
S11308A0B0850DC0DC01139601C0DF011296ED91F5
S11308B0FC9113972081318142175307B0F71296A8
S11308C0ED91FC911397FB83EA83D583C483BD83A5
S11308D0AC831396DC93CE93129799878887FC0197
S11308E020812F5F2083DF91CF910895CF93DF93F1
S11308F0FC01A085B185C281D381848195819D83CA
S11309008C83C481D581828193819B838A83119650
S11309108D919C911297E817F90731F484819581A0
S113092012969C938E931197118610868C91815008
S11309308C93DF91CF91089586E08BBD8FEB8ABDB8
S11309408BE08EBD87B7806187BF089531E1FC01DC
S11309503083319722E220833197A3E3A083319738
S113096060833197708331971082319760E8608398
S113097031971082319762E06083319763E060833E
S1130980319764E06083319765E06083319766E076
S11309906083319767E06083319768E060833197C3
S11309A069E06083319760E16083319730833197E8
S11309B032E13083319733E13083319734E130834E
S11309C0319735E13083319736E13083319737E120
S11309D03083319738E13083319739E1308331976F
S11309E030E23083319731E230833197208331977D
S11309F023E220833197408331975083319726E255
S1130A002083319727E22083319728E2208331978E
S1130A1029E22083319720E32083319721E3208347
S1130A20869708950E949C04A091AD0DB091AE0DDF
S1130A30CD91CDBFDD91DEBFFF91EF91DF91CF91DD
S1130A40BF91AF919F918F917F916F915F914F91E2
S1130A503F912F911F910F91FF90EF90DF90CF90D6
S1130A60BF90AF909F908F907F906F905F904F90CA
S1130A703F902F901F900F900FBE0F90089581E02C
S1130A80089508950F920FB6F8940F921F921124AF
S1130A902F923F924F925F926F927F928F929F928A
S1130AA0AF92BF92CF92DF92EF92FF920F931F9378
S1130AB02F933F934F935F936F937F938F939F9362
S1130AC0AF93BF93CF93DF93EF93FF93A091AD0DBB
S1130AD0B091AE0D0DB60D920EB60D920E944F0E52
S1130AE0A091AD0DB091AE0DCD91CDBFDD91DEBF26
S1130AF0FF91EF91DF91CF91BF91AF919F918F9132
S1130B007F916F915F914F913F912F911F910F9121
S1130B10FF90EF90DF90CF90BF90AF909F908F9019
S1130B207F906F905F904F903F902F901F900F9009
S1130B300FBE0F9008950F920FB6F8940F921F9264
S1130B4011242F923F924F925F926F927F928F92D5
S1130B509F92AF92BF92CF92DF92EF92FF920F9348
S1130B601F932F933F934F935F936F937F938F9331
S1130B709F93AF93BF93CF93DF93EF93FF93A09192
S1130B80AD0DB091AE0D0DB60D920EB60D920E9444
S1130B90CC0C81110E944F0EA091AD0DB091AE0D01
S1130BA0CD91CDBFDD91DEBFFF91EF91DF91CF916C
S1130BB0BF91AF919F918F917F916F915F914F9171
S1130BC03F912F911F910F91FF90EF90DF90CF9065
S1130BD0BF90AF909F908F907F906F905F904F9059
S1130BE03F902F901F900F900FBE0F9008950E947A
S1130BF09B051895CF93DF93EC010E94AC0C809178
S1130C00580190915901892B31F48DE591E090932D
S1130C1059018093580120915A0130915B01C90117
S1130C208C0F9D1F8F3F4BE0940770F428173907F2
S1130C3070F4C0915801D0915901C20FD31F909301
S1130C405B0180935A0105C0C0E0D0E002C0C0E05F
S1130C50D0E00E94860DCE01DF91CF9108950895D2
S1130C6010925B0110925A01089520915A0130911B
S1130C705B018FEF9BE0821B930B08950FB6F894F2
S1130C800F92FC01828D811102C081E001C080E0DD
S1130C900F900FBE08950FB6F8940F92FC01228DA9
S1130CA0838D281302C081E001C080E00F900FBE45
S1130CB008950F931F93CF93DF93EC01042F1A8DA4
S1130CC04C8D41110CC088819981892B09F042C057
S1130CD08A819B810E94F80F1B821A8242C00111F3
S1130CE017C050E08C819D810E9498142C8D8C81BA
S1130CF09D81820F911D9D838C832A813B81821764
S1130D00930750F1888199819D838C8380E029C069
S1130D1050E08E819F810E9498148C8D90E0919573
S1130D20819591092E813F81280F391F3F832E839E
S1130D30488159812417350730F42A813B81820F79
S1130D40931F9F838E83023049F4112349F011507D
S1130D5080E007C080E005C080E003C080E001C0FF
S1130D6080E01F5F1A8FDF91CF911F910F9108953B
S1130D70FC01448D4423A9F050E026813781240FDF
S1130D80351F37832683828193812817390720F002
S1130D908081918197838683CB01668177810E94CC
S1130DA0981408951F93CF93DF93EC010FB6F89432
S1130DB00F921E8D0BC08989882351F0CE01419674
S1130DC00E94CE0E81110E948D0F115011169CF3BA
S1130DD08FEF8E8F0F900FBE0FB6F8940F921D8D6C
S1130DE00BC08885882351F0CE0108960E94CE0E50
S1130DF081110E948D0F115011169CF38FEF8D8F6E
S1130E000F900FBEDF91CF911F910895CF93DF9381
S1130E10EC010FB6F8940F92E881F9818B8D90E084
S1130E202C8D30E0829FA001839F500D929F500D26
S1130E3011244E0F5F1F5B834A831A8EFD83EC835C
S1130E400197289FA001299F500D389F500D112410
S1130E50CF01840F951F9F838E838FEF8D8F8E8F8D
S1130E6061110CC08885882389F0CE0108960E9400
S1130E70CE0E882359F00E94420508C0CE01089680
S1130E800E941204CE0141960E9412040F900FBEDC
S1130E9081E0DF91CF9108950F931F93F8016111C1
S1130EA003C01183008302C051834083838F648F06
S1130EB061E0CF010E9406071F910F910895DF9210
S1130EC0EF92FF920F931F93CF93DF93E82EF62EAA
S1130ED0D42E662321F0869FC001112402C080E035
S1130EE090E04F960E94FA05EC01009749F08C01BE
S1130EF02D2DAC01415E5F4F6F2D8E2D0E944C074E
S1130F00CE01DF91CF911F910F91FF90EF90DF9071
S1130F100895CF92DF92EF92FF920F931F93CF9396
S1130F20DF9300D000D01F92CDB7DEB78C017B01D8
S1130F305D834C83C22ED12C0FB6F8940F92F80126
S1130F40928D838D981718F0F2E0CF1219C04C2DB2
S1130F50B701C8010E945906F8019189992349F003
S1130F60C80141960E94CE0E882331F00E944205AA
S1130F7003C081110E9442050F900FBE81E04DC055
S1130F808C819D81892B21F40F900FBE80E045C098
S1130F90D11006C0CE0101960E94500FDD24D394D7
S1130FA00F900FBE0E94AC0C0FB6F8940F92F8018C
S1130FB0858D8F3F09F4158EF801868D8F3F09F4D6
S1130FC0168E0F900FBEBE016C5F7F4FCE0101964F
S1130FD00E945B0F81111BC0C8010E944B0688232D
S1130FE081F06C817D81C80108960E94A30EC8011E
S1130FF00E94D2060E94860D81119ECF0E94420556
S11310009BCFC8010E94D2060E94860D95CFC801CD
S11310100E94D2060E94860D80E00F900F900F90E0
S11310200F900F90DF91CF911F910F91FF90EF9050
S1131030DF90CF900895009769F0FC01138212822B
S113104011821082168220E040E050E060E070E0FF
S11310500E9489070895CF93DF93482F60E081E0D1
S11310600E945F07EC010E941B08CE01DF91CF9123
S11310700895EF92FF920F931F93CF93DF938A010A
S1131080FC01528D338D531710F02230F1F4422FAE
S11310907801EC011E8D0E9459061F3F81F4898955
S11310A08823A9F0CE0141960E94CE0E882389F0B0
S11310B0E114F10481F081E0F70180830DC0FF2485
S11310C0F394F10EFE8E81E007C080E005C081E05C
S11310D003C081E001C081E0DF91CF911F910F91A6
S11310E0FF90EF900895CF93DF93FC01828D938D51
S11310F08917C0F4968D8F5F828F9F3F79F4818921
S1131100882391F0EB01CF0141960E94CE0E8823F3
S113111069F0209769F081E088830BC09F5F968F08
S113112081E007C080E005C081E003C081E001C028
S113113081E0DF91CF9108958F929F92BF92CF92D9
S1131140DF92EF92FF920F931F93CF93DF9300D020
S113115000D01F92CDB7DEB78C016B015D834C8349
S1131160B22EE12C0FB6F8940F92F801F28CFF2006
S113117091F186809780B601C8010E94B806B1102B
S113118019C0FA94F801F28E80819181892B29F497
S11311900E944F10F80193838283F801808588238D
S11311A0B1F0C80108960E94CE0E882381F00E94F7
S11311B042050DC0F801978286828189882339F01F
S11311C0C80141960E94CE0E81110E9442050F90E3
S11311D00FBE81E061C08C819D81892B21F40F9029
S11311E00FBE80E059C0E11006C0CE0101960E94F6
S11311F0500FEE24E3940F900FBE0E94AC0C0FB678
S1131200F8940F92F801858D8F3F09F4158EF8013B
S1131210868D8F3F09F4168E0F900FBEBE016C5F52
S11312207F4FCE0101960E945B0F811129C0C80136
S11312300E943E068823F1F0F80180819181892B78
S113124049F40FB6F8940F92828193810E94960F0D
S11312500F900FBE6C817D81C80141960E94A30E40
S1131260C8010E94D2060E94860D81117BCF0E9484
S1131270420578CFC8010E94D2060E94860D72CF23
S1131280C8010E94D2060E94860DC8010E943E0633
S1131290882309F467CF80E00F900F900F900F9090
S11312A00F90DF91CF911F910F91FF90EF90DF90FE
S11312B0CF90BF909F908F900895EF92FF920F93DD
S11312C01F93CF93DF93FC01C28DCC23F9F07A01F5
S11312D08C01D58D0E94B806C150F801C28FDF3F42
S11312E081F480858823A1F0C80108960E94CE0E5F
S11312F0882381F0E114F10479F081E0F70180831F
S11313000CC0DF5FF801D58F81E007C080E005C025
S113131081E003C081E001C081E0DF91CF911F91A2
S11313200F91FF90EF9008950F931F93CF93DF9346
S1131330FC01228D222349F0EC01068117810E94D1
S1131340B8061F830E8381E001C080E0DF91CF9156
S11313501F910F9108950FB6F8940F92FC01828D9E
S11313600F900FBE0895FC010FB6F8940F92938D61
S1131370828D981B892F0F900FBE0895FC01828DDA
S113138008950E942F060895FC01828D811102C0E8
S113139081E0089580E00895FC01228D838D281357
S11313A002C081E0089580E00895EF92FF920F93C8
S11313B01F93CF93DF93EC017B018A01F8940E9481
S11313C04B06882379F00115110549F0BE01685FC9
S11313D07F4FC8010E94B80178948CEF1FC07894A5
S11313E080E01CC07894F8949A8D8B8D981780F4C3
S11313F040E0B701CE010E9459068989882351F043
S1131400CE0141960E945302811106C081E005C0BD
S113141080E003C081E001C08BEF7894DF91CF912D
S11314201F910F91FF90EF900895CF93DF93EC01FC
S11314309B01F8949A8D91110FC04115510549F003
S1131440BE016F5E7F4FCA010E94B80178948CEF91
S113145032C0789480E02FC07894F8948A8D8823E1
S113146021F14C8D50E08E819F81840F951F9F83C5
S11314708E836A817B818617970720F08881998102
S11314809F838E838A8D81508A8F6E817F81C9016B
S11314900E9498148885882351F0CE0108960E94F2
S11314A05302811106C081E005C080E003C081E0E1
S11314B001C08BEF7894DF91CF9108950F931F9320
S11314C0CF93FC01328D238D321798F4C42F8C01F5
S11314D040E00E945906C1110EC0F8018189882399
S11314E061F0C80141960E945302882341F081E0D3
S11314F007C0842F05C08C2F03C08C2F01C08C2FF4
S1131500CF911F910F9108950F931F93CF93DF9362
S1131510FC01828D882369F1248D30E0A681B78196
S1131520A20FB31FB783A68382819381A817B9073B
S113153020F080819181978386838A01CB01EF011A
S1131540428D4150428F66817781A9010E9498148F
S1131550F801808181110FC08885882371F0CE0144
S113156008960E945302882351F081E0F801808399
S113157007C080E005C081E003C081E001C081E0D4
S1131580DF91CF911F910F910895E091750DF09126
S1131590760D8081811107C08FEF9FEF9093600DCE
S11315A080935F0D0895E091750DF091760D05809F
S11315B0F681E02D0680F781E02D8281938190935E
S11315C0600D80935F0D08956F927F928F929F922A
S11315D0AF92BF92CF92DF92EF920F931F93CF936C
S11315E0DF93CDB7DEB74C01F5018789908D21508B
S11315F031093C01620E731E20E00FC0822F90E07F
S1131600FB01E80FF91F3081D501A80FB91F5996C6
S11316103C938081882319F02F5F283078F3F501FB
S113162010A2F3E0FE1520F40F2EF3E0EF2EF02DC0
S1131630F501E68AE1A212A2C50102960E942004E5
S1131640C5010C960E942004F501B186A08684E0B1
S113165090E08E19910995878487B38AA28A13A290
S113166014A215A216A217A2A801B401C3010E94D4
S1131670A604F50191838083C114D10419F0F60105
S1131680B182A082DF91CF911F910F91EF90DF90F3
S1131690CF90BF90AF909F908F907F906F90089560
S11316A0CF93C0E010C08C2F90E09C01220F331F19
S11316B0220F331F220F331F820F931F8757924F1E
S11316C00E941204CF5FC43070F380E89DE00E9452
S11316D0120487E79DE00E9412048AE69DE00E94BE
S11316E0120480E89DE09093760D8093750D87E752
S11316F09DE09093740D8093730DCF910895CF93D3
S1131700DF93EC010FB6F8940F928091690D8F5F0F
S11317108093690D8091AD0D9091AE0D892B59F494
S1131720D093AE0DC093AD0D8091690D813099F4C5
S11317300E94500B10C08091650D81110CC0E09186
S1131740AD0DF091AE0D96898E89891720F0D09356
S1131750AE0DC093AD0D8091610D8F5F8093610DCF
S11317608E899091660D981710F48093660D90E021
S11317709C01220F331F220F331F220F331F820FAE
S1131780931FBE016E5F7F4F8757924F0E942404C0
S11317900F900FBE8091650D882351F0E091AD0D3F
S11317A0F091AE0D96898E89981710F40E94420527
S11317B0DF91CF9108950F931F93CF93DF93EC01A3
S11317C00091670D1091680D8091AD0D9091AE0D53
S11317D002960E947604C00FD11FE091AD0DF091E6
S11317E0AE0DD383C283C017D10768F46091AD0DE9
S11317F07091AE0D8091730D9091740D6E5F7F4F5B
S11318000E94450417C06091AD0D7091AE0D80919A
S1131810750D9091760D6E5F7F4F0E944504809107
S11318205F0D9091600DC817D90720F4D093600D17
S1131830C0935F0DDF91CF911F910F910895809117
S1131840890D823010F00E9442050E943714F7CFB0
S11318502F923F924F925F926F927F928F929F92BC
S1131860AF92BF92CF92DF92EF92FF920F931F93AA
S1131870CF93DF933C011B015A012901CA010E9445
S1131880FA056C01892B71F088E290E00E94FA0558
S1131890EC01892B19F0D88ECF8A06C0C6010E94AC
S11318A02F0602C0C0E0D0E0209791F0950140E0FF
S11318B050E0812C912C5E016701E02E8201B10180
S11318C0C3010E94E40ACE010E947F0B81E001C0A3
S11318D08FEFDF91CF911F910F91FF90EF90DF90E9
S11318E0CF90BF90AF909F908F907F906F905F90BC
S11318F04F903F902F900895EF92FF920F930F2EE9
S1131900FDE5EF2EFDE0FF2EF02D00E020E030E0BD
S113191045E550E060E071E08FE19CE00E94280C16
S1131920813081F4F8948FEF9FEF9093600D809352
S11319305F0D81E08093650D1092680D1092670D24
S11319400E9412050F91FF90EF900895F894109261
S1131950650D0E944105089580915C0D8F5F809311
S11319605C0D08950FB6F8940F928091670D9091D5
S1131970680D0F900FBE08958091670D9091680DCA
S113198008958091690D0895009721F48091AD0D1B
S11319909091AE0D49960895DF92EF92FF920F93C6
S11319A01F93CF93DF9380915C0D811197C0E090DA
S11319B0670DF090680D8FEFE81AF80AF092680D41
S11319C0E092670DE114F104B9F48091750D9091E2
S11319D0760D2091730D3091740D3093760D209314
S11319E0750D9093740D8093730D8091620D8F5FCC
S11319F08093620D0E94C50A80915F0D9091600DE5
S1131A00E816F90628F4D12C53C0DD24D39401C080
S1131A10D12CE091750DF091760D8081811107C074
S1131A208FEF9FEF9093600D80935F0D41C0E09125
S1131A30750DF091760D0580F681E02DC681D78174
S1131A408A819B81E816F90628F49093600D8093AF
S1131A505F0D2EC08E010E5F1F4FC8010E947604D9
S1131A608C899D89892B21F0CE010C960E947604E5
S1131A708E899091660D981710F48093660D90E00E
S1131A809C01220F331F220F331F220F331F820F9B
S1131A90931FB8018757924F0E9424049E89E091B6
S1131AA0AD0DF091AE0D8689981708F0AECFB1CF89
S1131AB0E091AD0DF091AE0D868990E0FC01EE0F42
S1131AC0FF1FEE0FFF1FEE0FFF1F8E0F9F1FFC0166
S1131AD0E757F24F8081823040F409C08091640D51
S1131AE08F5F8093640DD12C02C0DD24D394809148
S1131AF0630D882311F0DD24D3948D2DDF91CF91D4
S1131B001F910F91FF90EF90DF9008950F931F9313
S1131B10CF93DF930FB6F8940F9280915C0D8150B0
S1131B2080935C0D80915C0D811158C08091690D8A
S1131B30811133C056C0E0916F0DF091700DC681D4
S1131B40D781CE010C960E9476048E010E5F1F4F42
S1131B50C8010E9476048E899091660D981710F43E
S1131B608093660D90E09C01220F331F220F331FD8
S1131B70220F331F820F931FB8018757924F0E9481
S1131B8024049E89E091AD0DF091AE0D86899817DD
S1131B9030F081E08093630D02C0C0E0D0E080911A
S1131BA06A0D8111C8CFCD2B11F00E94C50AC091D6
S1131BB0640DCC2359F00E94CC0C882319F081E0E9
S1131BC08093630DC150B9F71092640D8091630D39
S1131BD0882331F00E94420581E003C080E001C007
S1131BE080E00F900FBEDF91CF911F910F91089568
S1131BF00F931F93CF93DF938C01EB010E94AC0CE6
S1131C004091670D5091680DF80120813181C9011F
S1131C108C0F9D1F4217530740F48217930768F4F3
S1131C204817590760F020E00FC08217930748F067
S1131C304817590740F020E007C020E005C021E024
S1131C4003C021E001C021E0F801918380832223B5
S1131C5029F060E0841B950B0E94DB0B0E94860D2B
S1131C60811102C00E944205DF91CF911F910F9113
S1131C700895CF93DF93EC01892B49F00E94AC0CBB
S1131C8060E0CE010E94DB0B0E94860D01C080E063
S1131C90811102C00E944205DF91CF910895809185
S1131CA05C0D882321F081E08093630D08951092E8
S1131CB0630D2091660D01C02150822F90E0FC013C
S1131CC0EE0FFF1FEE0FFF1FEE0FFF1FE80FF91FB0
S1131CD0E757F24F3081332379F3AC01440F551F9A
S1131CE0440F551F440F551F480F591FDF01018032
S1131CF0F281E02D0280F381E02D1296FC93EE93A5
S1131D0011974457524FE417F50729F44281538140
S1131D10FD0152834183FC01EE0FFF1FEE0FFF1FF5
S1131D20EE0FFF1F8E0F9F1FFC01E757F24F01803C
S1131D30F281E02D868197819093AE0D8093AD0D55
S1131D402093660D0895CF93DF93EB016091AD0D61
S1131D507091AE0D645F7F4F0E94450461E0CE0137
S1131D600E94DB0BDF91CF910895CF93DF93EA01BB
S1131D70E091AD0DF091AE0D706875876487609148
S1131D80AD0D7091AE0D645F7F4F0E94240461E03D
S1131D90CE010E94DB0BDF91CF9108950F931F9327
S1131DA0CF93DF93DC011596ED91FC911697C681D4
S1131DB0D7818E01045F1F4FC8010E947604809171
S1131DC05C0D81111CC00A501109C8010E947604DF
S1131DD08E899091660D981710F48093660D90E0AB
S1131DE09C01220F331F220F331F220F331F820F38
S1131DF0931FB8018757924F0E94240405C0B8016D
S1131E008AE69DE00E9424049E89E091AD0DF09144
S1131E10AE0D8689891720F481E08093630D01C09B
S1131E2080E0DF91CF911F910F9108950F931F933D
S1131E30CF93DF937068FC0171836083C681D7817F
S1131E400E9476048E010E5F1F4FC8010E94760423
S1131E508E899091660D981710F48093660D90E02A
S1131E609C01220F331F220F331F220F331F820FB7
S1131E70931FB8018757924F0E9424049E89E091D2
S1131E80AD0DF091AE0D8689891720F481E0809321
S1131E90630D01C080E0DF91CF911F910F910895F0
S1131EA02091620DFC0120832091670D3091680D13
S1131EB0328321830895CF93DF93FC010FB6F89406
S1131EC00F924091670D5091680D90818091620D41
S1131ED0981729F08181928148175907B0F421811C
S1131EE03281CA01821B930BEB01A881B9818A1745
S1131EF09B0768F4CF01241B350B2A0F3B1F398342
S1131F0028830E94500F80E003C081E001C081E07B
S1131F100F900FBEDF91CF91089581E08093630D00
S1131F2008958091AD0D9091AE0D08950F931F9378
S1131F30CF93DF93FC01892B09F455C02689A09126
S1131F40AD0DB091AE0D56968C91281708F04BC08C
S1131F5084859585992364F0A091AD0DB091AE0D63
S1131F6056963C9184E090E0831B91099587848781
S1131F708285938530E0A901440F551F440F551FF6
S1131F80440F551F240F351F2757324F82179307CD
S1131F9019F58F01EF012296CE010E947604E0919B
S1131FA0AD0DF091AE0D8689F801868B9091660D8A
S1131FB0981710F48093660D90E09C01220F331F54
S1131FC0220F331F220F331F820F931FBE01875727
S1131FD0924F0E94240407C0A091AD0DB091AE0DA4
S1131FE056968C91868BDF91CF911F910F91089516
S1131FF00F931F93CF93DF93FC01892B79F182A177
S1132000815082A3268991A1291751F181112AC0F7
S1132010EF018F010E5F1F4FC8010E94760489A152
S11320208E8B24E030E0281B31093D872C8790916A
S1132030660D981710F48093660D90E09C01220FB2
S1132040331F220F331F220F331F820F931FB80138
S11320508757924F0E94240481E005C080E003C0AA
S113206080E001C080E0DF91CF911F910F9108952E
S1132070E091AD0DF091AE0D84859585E091AD0DA7
S1132080F091AE0DA091AD0DB091AE0D56964C9160
S113209024E030E0241B310935872487089580919A
S11320A0AD0D9091AE0D892B39F0E091AD0DF0910D
S11320B0AE0D82A18F5F82A38091AD0D9091AE0D84
S11320C008950F931F93CF93C82FCB010FB6F894A5
S11320D00F92E091AD0DF091AE0D43A154A165A115
S11320E076A1452B462B472B69F4E091AD0DF09179
S11320F0AE0D21E027A3009729F061E00E94DB0BDD
S11321000E9442050F900FBE0FB6F8940F92E09113
S1132110AD0DF091AE0D63A174A185A196A16115D9
S1132120710581059105C9F0CC2349F0E091AD0D0D
S1132130F091AE0D13A214A215A216A20EC0E09146
S1132140AD0DF091AE0D8B019C01015011092109D7
S1132150310903A314A325A336A3E091AD0DF09197
S1132160AE0D17A20F900FBECF911F910F9108953E
S11321704F925F926F927F928F929F92AF92BF9293
S1132180EF92FF920F931F9349015A010FB6F894EF
S11321900F92E091AD0DF091AE0D27A1223029F1FF
S11321A0E091AD0DF091AE0D43A054A065A076A0D2
S11321B0DC01CB0180959095A095B0958421952163
S11321C0A621B72183A394A3A5A3B6A3E091AD0D43
S11321D0F091AE0D81E087A3E114F10431F061E0E8
S11321E0C7010E94DB0B0E9442050F900FBE0FB681
S11321F0F8940F920115110569F0E091AD0DF0917D
S1132200AE0D83A194A1A5A1B6A1F8018083918309
S1132210A283B383E091AD0DF091AE0D87A181301F
S1132220B1F0E091AD0DF091AE0D83A194A1A5A103
S1132230B6A180949094A094B09488229922AA2262
S1132240BB2283A294A2A5A2B6A281E001C080E031
S1132250E091AD0DF091AE0D17A20F900FBE1F913E
S11322600F91FF90EF90BF90AF909F908F907F90D1
S11322706F905F904F900895EF92FF920F931F938A
S1132280CF93DF93FC010FB6F8940F92011511055B
S113229049F083A194A1A5A1B6A1E80188839983FB
S11322A0AA83BB8387A192E097A32230B9F018F4E4
S11322B0213031F02FC02330F9F0243019F12AC035
S11322C003A114A125A136A1402B512B622B732B02
S11322D043A354A365A376A311E01FC043A154A153
S11322E065A176A14F5F5F4F6F4F7F4F43A354A308
S11322F065A376A311E011C043A354A365A376A3F9
S113230011E00BC0823041F043A354A365A376A32C
S113231011E003C011E001C010E0813041F5EF018C
S11323207F0182E0E80EF11CC7010E9476048E89C9
S11323309091660D981710F48093660D90E09C01BF
S1132340220F331F220F331F220F331F820F931FBD
S1132350B7018757924F0E9424049E89E091AD0DE6
S1132360F091AE0D8689891710F40E9442050F90F2
S11323700FBE812FDF91CF911F910F91FF90EF90AE
S11323800895CF92DF92EF92FF920F931F93CF9312
S1132390DF93FC010115110549F083A194A1A5A1C6
S11323A0B6A1E80188839983AA83BB8387A192E0BD
S11323B097A32230B9F018F4213031F02FC0233024
S11323C0F9F0243019F12AC003A114A125A136A1E2
S11323D0402B512B622B732B43A354A365A376A3E9
S11323E011E01FC043A154A165A176A14F5F5F4FC7
S11323F06F4F7F4F43A354A365A376A311E011C08D
S113240043A354A365A376A311E00BC0823041F02B
S113241043A354A365A376A311E003C011E001C054
S113242010E08130E1F5EF0180915C0D81111EC057
S11324306F01E2E0CE0ED11CC6010E9476048E89A3
S11324409091660D981710F48093660D90E09C01AE
S1132450220F331F220F331F220F331F820F931FAC
S1132460B6018757924F0E94240407C0BF01645FDE
S11324707F4F8AE69DE00E9424049E89E091AD0D81
S1132480F091AE0D8689891750F4E114F10421F01E
S113249081E0E701888303C081E08093630D812F8D
S11324A0DF91CF911F910F91FF90EF90DF90CF902C
S11324B00895EF92FF920F931F93CF93DF93FC0144
S11324C027A182E087A383A194A1A5A1B6A1019627
S11324D0A11DB11D83A394A3A5A3B6A32130E9F53F
S11324E08B01EF0180915C0D81111EC07F0182E0A0
S11324F0E80EF11CC7010E9476048E899091660D46
S1132500981710F48093660D90E09C01220F331FFE
S1132510220F331F220F331F820F931FB7018757D8
S1132520924F0E94240407C0BF01645F7F4F8AE674
S11325309DE00E9424049E89E091AD0DF091AE0DC2
S11325408689891750F40115110521F081E0F801FD
S1132550808303C081E08093630DDF91CF911F914D
S11325600F91FF90EF900895009721F48091AD0DA5
S11325709091AE0D0FB6F8940F92FC0127A1223072
S113258019F417A281E001C080E00F900FBE0895F6
S113259020E04FEF5FEF6CE970E08091B10D909116
S11325A0B20D0E949C0880919B0085FFFCCFF0CF68
S11325B020E04FEF5FEF6CE270E08091AF0D9091FF
S11325C0B00D0E949C085D9BFECFF2CFCF93DF93AA
S11325D01F92CDB7DEB7898320E040E050E0BE0112
S11325E06F5F7F4F8091B30D9091B40D0E94890766
S11325F00F90DF91CF910895CF93DF931F92CDB7C2
S1132600DEB720E043E050E0BE016F5F7F4F809172
S1132610D20D9091D30D0E949C08811103C086E0D5
S11326200E94E61289810F90DF91CF910895CF9394
S1132630DF931F92CDB7DEB720E043E050E0BE0148
S11326406F5F7F4F8091B50D9091B60D0E949C08ED
S1132650811103C086E00E94E61289810F90DF9108
S1132660CF910895CF93DF931F92CDB7DEB78983BF
S113267020E043E050E0BE016F5F7F4F8091AF0DDB
S11326809091B00D0E948907811103C083E00E94DC
S1132690E6120F90DF91CF910895CF93DF931F92AD
S11326A0CDB7DEB720E04FEF5FEFBE016F5F7F4F26
S11326B08091B50D9091B60D0E949C08898190E897
S11326C0980F903178F7482F50E0FA01E158F1095A
S11326D0EE30F10520F4EA5BFF4F0C94921410E005
S11326E005C013E003C014E001C011E00E943213DE
S11326F089818E3869F08C3831F40AC00E9417132E
S11327000E943213102F0FEF010F1111F7CFCACF10
S11327108E3811F50E941713182F0E9432131130AE
S113272061F028F0123029F0133039F004C00AE1C6
S113273005C006E003C000E001C00AE010E009C0E3
S1132740E12EF12C0E94FC12F701E954F24F808330
S11327501F5F1017A8F3A6CF8C3809F0A3CF0E94EF
S113276017130E9432130E941713082F0E9432136A
S1132770000F10E005C00E9417130E9432131F5F60
S11327801017C8F38FCFEF92FF920F9387B3816036
S113279087BB87B3826087BB1092900085E089B9BC
S11327A01092980087E48093990088E18AB9EAE955
S11327B0F0E080838AB180688AB9808180688083F0
S11327C0789440E061E080E20E945F079093B00D4E
S11327D08093AF0D40E061E080E20E945F07909338
S11327E0D30D8093D20D40E061E080E20E945F0748
S11327F09093B20D8093B10D40E061E080E20E94BD
S11328005F079093B60D8093B50D40E061E081E0E1
S11328100E945F079093B40D8093B30DE12CF12CCB
S113282002E020E030E045E550E065E071E088ED4D
S113283092E10E94280C20E030E045E550E06DE094
S113284071E088EC92E10E94280C20E030E045E53C
S113285050E065E171E08DE493E10E94280C0E9450
S11328607C0C80E090E00F91FF90EF900895089524
S11328701F920F920FB60F9211242F933F934F93F1
S11328805F936F937F938F939F93AF93BF93EF93D4
S1132890FF9320E040E050E06CE270E08091D20DC4
S11328A09091D30D0E943908FF91EF91BF91AF91A0
S11328B09F918F917F916F915F914F913F912F9154
S11328C00F900FBE0F901F9018951F920F920FB686
S11328D00F9211242F933F934F935F936F937F93A2
S11328E08F939F93AF93BF93EF93FF9320E040E0C8
S11328F050E06CE970E08091B50D9091B60D0E94A6
S11329003908FF91EF91BF91AF919F918F917F9182
S11329106F915F914F913F912F910F900FBE0F9048
S11329201F901895EE0FFF1F0590F491E02D099468
S1132930FB01DC0102C001900D9241505040D8F7D8
S10929400895F894FFCF96
S113294649444C450055415254305478005541523F
S11129565431547800554152543152780000E7
S9030000FC
