S0200000526F6F6D6261436F6D6D616E6465725F41546D65676136342E7372656316
S11300000C9446000C9463000C9463000C946300FD
S11300100C9463000C9463000C9463000C946300D0
S11300200C9463000C9463000C9463000C946300C0
S11300300C9446020C9463000C9463000C946300CB
S11300400C9463000C9463000C9448060C946300B5
S11300500C9463000C9463000C9463000C94630090
S11300600C9463000C9463000C9463000C94630080
S11300700C9463000C9463000C9463000C94630070
S11300800C9463000C9463000C94630011241FBE51
S1130090CFEFD0E1DEBFCDBF11E0A0E0B1E0E0EEF4
S11300A0FCE002C005900D92A032B107D9F727E019
S11300B0A0E2B1E001C01D92AE35B207E1F70E94A3
S11300C021060C946E060C940000FC0103969283A6
S11300D081832FEF3FEF3483238396838583908737
S11300E0878310820895FC01118610860895CF93AA
S11300F0DF939C01FB01DC011196CD91DC911297F9
S1130100D383C2838C819D81958384838C819D81DB
S1130110DC0113967C936E9312977D836C833187F5
S11301202087F90180818F5F8083DF91CF910895CB
S1130130CF93DF93EB01488159814F3F2FEF520753
S113014021F4FC01A781B0850DC0DC01139601C028
S1130150DF011296ED91FC911397208131814217B2
S11301605307B0F71296ED91FC911397FB83EA8342
S1130170D583C483BD83AC831396DC93CE9312974B
S113018099878887FC0120812F5F2083DF91CF919D
S11301900895CF93DF93FC01A085B185C281D381FB
S11301A0848195819D838C83C481D581828193814F
S11301B09B838A8311968D919C911297E817F90776
S11301C031F48481958112969C938E9311971186B4
S11301D010868C9181508C93DF91CF91089531E1F9
S11301E0FC013083319722E220833197A3E3A0837B
S11301F0319760833197708331971082319760E82B
S1130200608331971082319762E06083319763E0B5
S11302106083319764E06083319765E06083319750
S113022066E06083319767E06083319768E06083BC
S1130230319769E06083319760E16083319730835F
S1130240319732E13083319733E13083319734E1B0
S11302503083319735E13083319736E130833197FC
S113026037E13083319738E13083319739E1308396
S1130270319730E23083319731E2308331972083F4
S1130280319723E22083319740833197508331970C
S113029026E22083319727E22083319728E22083C6
S11302A0319729E22083319720E32083319721E39A
S11302B020838697089586E08BBD8FEB8ABD8BE003
S11302C08EBD87B7806187BFA0915B07B0915C0743
S11302D0CD91CDBFDD91DEBFFF91EF91DF91CF9145
S11302E0BF91AF919F918F917F916F915F914F914A
S11302F03F912F911F910F91FF90EF90DF90CF903E
S1130300BF90AF909F908F907F906F905F904F9031
S11303103F902F901F900F900FBE0F90089581E093
S113032008950F920FB6F8940F921F9211242F92F2
S11303303F924F925F926F927F928F929F92AF9271
S1130340BF92CF92DF92EF92FF920F931F932F935E
S11303503F934F935F936F937F938F939F93AF9349
S1130360BF93CF93DF93EF93FF93A0915B07B0917B
S11303705C070DB60D920EB60D920E94A505A091D4
S11303805B07B0915C07CD91CDBFDD91DEBFFF91DE
S1130390EF91DF91CF91BF91AF919F918F917F9119
S11303A06F915F914F913F912F911F910F91FF900A
S11303B0EF90DF90CF90BF90AF909F908F907F9001
S11303C06F905F904F903F902F901F900F900FBEB3
S11303D00F9008950F920FB6F8940F921F92112464
S11303E02F923F924F925F926F927F928F929F9241
S11303F0AF92BF92CF92DF92EF92FF920F931F932F
S11304002F933F934F935F936F937F938F939F9318
S1130410AF93BF93CF93DF93EF93FF93A0915B07C9
S1130420B0915C070DB60D920EB60D920E941A049F
S113043081110E94A505A0915B07B0915C07CD9145
S1130440CDBFDD91DEBFFF91EF91DF91CF91BF91E1
S1130450AF919F918F917F916F915F914F913F9158
S11304602F911F910F91FF90EF90DF90CF90BF904D
S1130470AF909F908F907F906F905F904F903F9040
S11304802F901F900F900FBE0F9008950E94EA01C5
S11304901895CF93DF93EC010E94140480912001FE
S11304A090912101892B31F485E291E0909321010F
S11304B0809320012091220130912301C9018C0FE6
S11304C09D1F8B3D45E0940770F42817390770F49D
S11304D0C0912001D0912101C20FD31F9093230119
S11304E08093220105C0C0E0D0E002C0C0E0D0E0AB
S11304F00E94D504CE01DF91CF9108950895E09133
S11305002307F09124078081811107C08FEF9FEFAB
S113051090930407809303070895E0912307F091D3
S113052024070580F681E02D0680F781E02D828185
S11305309381909304078093030708950F931F9367
S1130540CF93DF93EC0100910B0710910C0780917E
S11305505B0790915C0702960E94C900C00FD11FEF
S1130560E0915B07F0915C07D383C283C017D10786
S113057068F460915B0770915C078091210790910A
S113058022076E5F7F4F0E94980017C060915B073F
S113059070915C0780912307909124076E5F7F4FD1
S11305A00E9498008091030790910407C817D90707
S11305B020F4D0930407C0930307DF91CF911F91D8
S11305C00F9108954F925F926F927F928F929F92B4
S11305D0AF92BF92CF92DF92EF92FF920F93CF939D
S11305E0DF934C016B015A012901CA010E9449029F
S11305F03C01892B09F4DDC086E290E00E944902A7
S1130600EC01892B71F0788E6F8A81E0A81AB10809
S1130610A60CB71CD6018C91898F8C91811105C0D1
S113062018C0C3010E947E02C4C0AE01465E5F4F83
S1130630F6013196B8E0CB0ED11CCF012191DA013D
S11306402D93AD01DC018C91882319F0EC15FD0587
S1130650A1F718A2043008F003E00E8B6E01B2E09B
S1130660CB0ED11CC6010E947300CE010C960E94D1
S11306707300D987C88784E090E0801B91099D8727
S11306808C87DB8BCA8B19A21AA21BA21CA21DA2E7
S1130690A201B401C5010E94EF0099838883E1148B
S11306A0F10419F0F701D183C0830FB6F8940F92C7
S11306B080910D078F5F80930D0780915B07909168
S11306C05C07892BA9F5D0935C07C0935B078091E5
S11306D00D078130E9F587E397E00E94650080E427
S11306E097E00E94650089E497E00E94650082E536
S11306F097E00E9465008EE297E00E94650085E223
S113070097E00E94650088E197E00E9465008FE011
S113071097E00E9465008EE297E09093240780930F
S1130720230785E297E0909322078093210710C066
S11307308091090781110CC0E0915B07F0915C077F
S113074096898E89891720F0D0935C07C0935B0744
S1130750809105078F5F809305078E8990910A0722
S1130760981710F480930A0790E09C01220F331F1E
S1130770220F331F220F331F820F931FB601895C90
S1130780984F0E9477000F900FBE8091090788232D
S113079061F0E0915B07F0915C0796898E89981768
S11307A030F40E94910181E005C081E003C081E042
S11307B001C08FEFDF91CF910F91FF90EF90DF9009
S11307C0CF90BF90AF909F908F907F906F905F90ED
S11307D04F900895EF92FF920F930F2EF1E0EF2EBA
S11307E0F7E0FF2EF02D00E020E030E045E550E09A
S11307F068E071E088E695E00E94E202813081F4CD
S1130800F8948FEF9FEF909304078093030781E0A0
S11308108093090710920C0710920B070E945B014A
S11308200F91FF90EF900895809100078F5F809360
S113083000070895CF92DF92EF92FF920F931F93D8
S1130840CF93DF9380910007811199C0E0900B074B
S1130850F0900C078FEFE81AF80AF0920C07E09278
S11308600B07E114F104B9F4809123079091240754
S113087020912107309122073093240720932307E6
S11308809093220780932107809106078F5F8093BE
S113089006070E947F028091030790910407E816DF
S11308A0F90610F4D12C53C0D12CCC24C394E0917C
S11308B02307F09124078081811107C08FEF9FEFF8
S11308C0909304078093030742C0E0912307F091BB
S11308D024070580F681E02DC681D7818A819B811A
S11308E0E816F90628F490930407809303072FC0B1
S11308F08E010E5F1F4FC8010E94C9008C899D891B
S1130900892B21F0CE010C960E94C9008E8990910A
S11309100A07981710F480930A0790E09C01220FAD
S1130920331F220F331F220F331F820F931FB8016F
S1130930895C984F0E947700E0915B07F0915C0717
S11309409E898689981708F4B2CFDC2CB0CFE09149
S11309505B07F0915C07868990E0FC01EE0FFF1FB6
S1130960EE0FFF1FEE0FFF1F8E0F9F1FFC01E95CB0
S1130970F84F8081823048F0DD24D39406C0809102
S113098008078F5F80930807D12C8091070788237D
S113099011F0DD24D3948D2DDF91CF911F910F9110
S11309A0FF90EF90DF90CF900895DF92EF92FF9247
S11309B00F931F93CF93DF930FB6F8940F92809108
S11309C000078150809300078091000781115FC068
S11309D080910D07811133C05DC0D7011596ED914B
S11309E0FC911697C681D781CE010C960E94C9004E
S11309F08E010E5F1F4FC8010E94C9008E8990911D
S1130A000A07981710F480930A0790E09C01220FBC
S1130A10331F220F331F220F331F820F931FB8017E
S1130A20895C984F0E947700E0915B07F0915C0726
S1130A309E898689981768F0D09207070AC0C0E09B
S1130A40D0E00F2EF8E1EF2EF7E0FF2EF02DDD249D
S1130A50D394F70180818111C0CFCD2B11F00E9476
S1130A607F02C0910807CC2351F0D1E00E941A0400
S1130A708111D0930707C150C9F7109208078091DC
S1130A800707882331F00E94910181E003C080E0D0
S1130A9001C080E00F900FBEDF91CF911F910F91A5
S1130AA0FF90EF90DF900895CF93DF93EC01892BB3
S1130AB051F00E94140460E0CE010E949E020E9444
S1130AC0D504811102C00E949101DF91CF91089554
S1130AD00FE017E00F2EF7E3EF2EF7E0FF2EF02DD7
S1130AE029C00E941404D801CC910E94D504CC23BF
S1130AF009F10FB6F8940F92D8011596ED91FC9177
S1130B001697C681D781CE0102960E94C9008091B2
S1130B100D07815080930D0780910E0781508093BB
S1130B200E070F900FBE8F89988D0E947E02CE0112
S1130B300E947E0280910E078111D3CFF70180813C
S1130B408230C0F30E949101F5CF80910007882381
S1130B5021F081E080930707089510920707209100
S1130B600A07822F90E0FC01EE0FFF1FEE0FFF1F1C
S1130B70EE0FFF1FE80FF91FE95CF84F30813111C8
S1130B8011C02150822F90E0FC01EE0FFF1FEE0FE9
S1130B90FF1FEE0FFF1FE80FF91FE95CF84F3081CC
S1130BA0332379F3AC01440F551F440F551F440FF1
S1130BB0551F480F591FDA01A95CB84F1196ED91E2
S1130BC0FC9112970280F381E02D1296FC93EE9330
S1130BD01197465C584FE417F50729F44281538175
S1130BE0FD0152834183FC01EE0FFF1FEE0FFF1F37
S1130BF0EE0FFF1F8E0F9F1FFC01E95CF84F018071
S1130C00F281E02D8681978190935C0780935B0746
S1130C1020930A070895C1E088B38C2788BB82E338
S1130C2090E00E945405F8CFC2E088B38C2788BBBB
S1130C3082E390E00E94540580E091E00E945E0609
S1130C40F4CFEF92FF920F93B89AB99A0E94570685
S1130C50E12CF12C01E020E030E045E550E06DE0CE
S1130C6071E08BE096E00E94E20202E020E030E0D6
S1130C7045E550E065E171E084E196E00E94E2021E
S1130C800E94EA0380E090E00F91FF90EF900895B6
S1130C901F920F920FB60F9211248F938CB18093F1
S1130CA05D078F910F900FBE0F901F9018951092B3
S1130CB0900087E489B988E18AB90895DC019C91A0
S1130CC0992359F020E05D9BFECF9CB92F5FFD0175
S1130CD0E20FF11D90819111F6CF0895F894FFCFA2
S1130CE048656C6C6F21200049444C450052656492
S1130CF0204C454400477265656E204C4544000015
S9030000FC
