S0200000526F6F6D6261436F6D6D616E6465725F41546D65676136342E7372656316
S11300000C9456000C9473000C9473000C947300BD
S11300100C9473000C9473000C9473000C94730090
S11300200C9473000C9473000C9473000C94730080
S11300300C94F9050C9473000C9473000C947300E5
S11300400C9473000C9473000C949F120C94730022
S11300500C9473000C9473000C9473000C94730050
S11300600C9473000C9473000C9473000C94730040
S11300700C9473000C9473000C94CC120C947300C5
S11300800C9473000C9473000C9473001E121612DB
S11300901E121E121E121E121E121E121E121C12DE
S11300A0161218121A12161216121E1211241FBE3C
S11300B0CFEFD0E1DEBFCDBF11E0A0E0B1E0E0E2E0
S11300C0F9E202C005900D92AE31B107D9F72DE0E7
S11300D0AEE1B1E001C01D92A63DB207E1F70E9476
S11300E03D120C948E140C940000CF93C0E010C009
S11300F08C2F90E09C01220F331F220F331F220FFD
S1130100331F820F931F8A5B9E4F0E941404CF5F9C
S1130110C23070F38DE391E00E94140484E391E013
S11301200E94140487E291E00E9414048DE391E09C
S1130130909333018093320184E391E090933101F1
S113014080933001CF9108950F931F93CF93DF9342
S113015028C0F894E0912C01F0912D01C681D7813B
S1130160CE010C960E94780478948E010E5F1F4F86
S1130170C8010E9478048E8990912401981710F484
S11301808093240190E09C01220F331F220F331F20
S1130190220F331F820F931FB8018A5B9E4F0E9468
S11301A02604809127018111D4CFDF91CF911F9133
S11301B00F9108950F931F93CF93DF930E94660CC2
S11301C02091200130912101821B930B90931F01F8
S11301D080931E015EC020912201309123012F5F84
S11301E03F4F3093230120932201019790931F01E5
S11301F080931E01232B09F045C080913201909118
S11302003301209130013091310130933301209337
S11302103201909331018093300134C00580F6811E
S1130220E02DC681D7812A813B8180912201909162
S113023023018217930768F1F8948E010E5F1F4F14
S1130240C8010E9478048C899D89892B21F0CE01F4
S11302500C960E94780478948E89909124019817C2
S113026010F48093240190E09C01220F331F220F8D
S1130270331F220F331F820F931FB8018A5B9E4FD7
S11302800E942604E0913201F091330180818111B2
S1130290C5CF80911E0190911F01009709F09BCF5B
S11302A08091220190912301909321018093200158
S11302B0DF91CF911F910F910895CF92DF92FF921A
S11302C00F931F93CF93DF936C01F62E142F8AE1C3
S11302D090E00E94FC05EC01892B09F442C0809156
S11302E0250190912601892B31F4D0932601C093E6
S11302F025010E94750081E08F1510F4FF24F3940A
S1130300198E188EFE8A1F8BFE01C192D1928F0125
S1130310CF010E942204CE010C960E942204D987A8
S1130320C887DB8BCA8B82E090E08F1991099D8787
S11303308C878E8990912401981710F4809324015E
S113034090E09C01220F331F220F331F220F331F13
S1130350820F931FB8018A5B9E4F0E94260481E09E
S113036001C08FEFDF91CF911F910F91FF90DF902C
S1130370CF9008950F931F93CF93DF938B01C09178
S11303802201D0912301C80FD91F8091250190919A
S1130390260102960E947804E0912501F09126013D
S11303A0D383C2838091220190912301C817D90776
S11303B050F4BF016E5F7F4F809130019091310105
S11303C00E94470409C0BF016E5F7F4F80913201D4
S11303D0909133010E9447040115110549F0609181
S11303E0250170912601645F7F4FC8010E94470474
S11303F0DF91CF911F910F9108950E94A4000E9454
S1130400DA0006C0882309F44FC081508093240188
S113041080912401282F30E0F901EE0FFF1FEE0F29
S1130420FF1FEE0FFF1FE20FF31FEA5BFE4F9081E9
S1130430992341F3C901880F991F880F991F880FC9
S1130440991F820F931FDF010180F281E02D02804A
S1130450F381E02D1296FC93EE931197875B9E4FE8
S1130460E817F90729F482819381FD01928381833E
S1130470F901EE0FFF1FEE0FFF1FEE0FFF1F2E0FF0
S11304803F1FF901EA5BFE4F0180F281E02D868176
S113049097819093260180932501DC01ED91FC91D5
S11304A0119757966C91099508950F931F93CF93C5
S11304B0DF93DC011596ED91FC911697C681D781E7
S11304C08E01045F1F4FC8010E947804B80187E2BF
S11304D091E00E9426049E89E0912501F091260175
S11304E08689981710F081E001C080E0DF91CF91F8
S11304F01F910F910895411106C068237923672B3A
S113050049F480E00895862397236817790721F03A
S113051080E0089581E0089581E00895CF93DF930A
S11305208BE090E00E94FC05EC01009731F0FC01A7
S113053011921192CF010E941404CE01DF91CF9148
S11305400895AF92BF92CF92DF92EF92FF920F93F2
S11305501F93CF93DF937C015B01C42ED22E0E94A4
S1130560600CF701C081D1814D2DB501CE010E94EF
S11305707B02882369F0CC2009F1C5018095909510
S11305808C239D23F7019183808300E010E018C041
S113059001151105A9F0C11003C060E070E002C0AC
S11305A060E071E0D11074606A297B29A801C70159
S11305B002960E94690EC0E0D0E002C000E010E0A4
S11305C00E943A0D012B19F1811102C00E944405C9
S11305D00E94450FEC0191FD19C00FB6F8940F92DB
S11305E0F701C081D1814D2DB501CE010E947B025E
S11305F0882351F0CC2041F0B501609570956C23AF
S11306007D23F701718360830F900FBEDD27CE0138
S1130610DF91CF911F910F91FF90EF90DF90CF90DA
S1130620BF90AF900895FC010FB6F8940F928081AB
S113063091816095709568237923718360830F900D
S11306400FBE0895FC01808191810895CF92DF92BD
S1130650EF92FF920F931F93CF93DF937C018B0153
S1130660EC0125960E94600CD7011796ED91FC9140
S113067018978D919C911197082B192B0D931C930E
S113068000E010E02DC0C280D380808191819C0164
S1130690332792FD09C0D7014D915C914223532326
S11306A0452B61F440E00DC0D7014D915C9142238C
S11306B053232417350721F040E003C041E001C073
S11306C041E0442359F090FF02C0022B132BD701C1
S11306D06D917C917260CF010E94CA0EEC2DFD2DAC
S11306E0EC17FD0781F600951095F7018081918143
S11306F008231923118300830E943A0DD7018D9199
S11307009C91DF91CF911F910F91FF90EF90DF901B
S1130710CF900895AF92BF92CF92DF92EF92FF9263
S11307200F931F93CF93DF938C01EB017A0169013F
S11307300E94600CF801A080B180BE01C8010E9433
S11307402603CA29DB29CE018E219F21E816F9064A
S113075069F4F80120813181C70180959095822345
S1130760932391838083C12CD12C10C0C114D10454
S113077051F0A601B7017560C80102960E94690E86
S1130780C0E0D0E003C0F801C081D1810E943A0DDD
S1130790CD28F9F0811102C00E9444050E94450F42
S11307A091FD15C00FB6F8940F92F80180819181E4
S11307B0970128233923E216F30639F4A70140955B
S11307C0509548235923518340830F900FBEEC0169
S11307D0DD27CE01DF91CF911F910F91FF90EF9014
S11307E0DF90CF90BF90AF900895CF93DF93EC014B
S11307F00E94600C06C060E072E08F8198850E94C0
S1130800CA0E8A818111F7CFCE010E9431060E945F
S11308103A0DDF91CF910895BA010E9426030895FD
S1130820BA010E9413030895FC0103969283818305
S11308302FEF3FEF348323839683858390878783C9
S113084010820895FC01118610860895CF93DF93DA
S11308509C01FB01DC011196CD91DC911297D383AD
S1130860C2838C819D81958384838C819D81DC01ED
S113087013967C936E9312977D836C8331872087C4
S1130880F90180818F5F8083DF91CF910895CF93A9
S1130890DF93EB01488159814F3F2FEF520721F439
S11308A0FC01A781B0850DC0DC01139601C0DF01F6
S11308B01296ED91FC9113972081318142175307D1
S11308C0B0F71296ED91FC911397FB83EA83D583DD
S11308D0C483BD83AC831396DC93CE93129799871C
S11308E08887FC0120812F5F2083DF91CF910895B9
S11308F0CF93DF93FC01A085B185C281D38184812C
S113090095819D838C83C481D581828193819B83CE
S11309108A8311968D919C911297E817F90731F407
S11309208481958112969C938E93119711861086DB
S11309308C9181508C93DF91CF91089586E08BBD8B
S11309408FEB8ABD8BE08EBD87B7806187BF08952A
S113095031E1FC013083319722E220833197A3E314
S1130960A0833197608331977083319710823197D8
S113097060E8608331971082319762E06083319739
S113098063E06083319764E06083319765E060835E
S1130990319766E06083319767E06083319768E060
S11309A06083319769E06083319760E160833197B8
S11309B03083319732E13083319733E1308331979B
S11309C034E13083319735E13083319736E1308338
S11309D0319737E13083319738E13083319739E10A
S11309E03083319730E23083319731E2308331976D
S11309F02083319723E220833197408331975083BA
S1130A00319726E22083319727E22083319728E229
S1130A102083319729E22083319720E32083319783
S1130A2021E32083869708950E949E04A091AD0D32
S1130A30B091AE0DCD91CDBFDD91DEBFFF91EF91B1
S1130A40DF91CF91BF91AF919F918F917F916F91E2
S1130A505F914F913F912F911F910F91FF90EF90D4
S1130A60DF90CF90BF90AF909F908F907F906F90CA
S1130A705F904F903F902F901F900F900FBE0F905C
S1130A80089581E0089508950F920FB6F8940F9297
S1130A901F9211242F923F924F925F926F927F92F6
S1130AA08F929F92AF92BF92CF92DF92EF92FF927A
S1130AB00F931F932F933F934F935F936F937F9362
S1130AC08F939F93AF93BF93CF93DF93EF93FF9352
S1130AD0A091AD0DB091AE0D0DB60D920EB60D9266
S1130AE00E94030EA091AD0DB091AE0DCD91CDBF7E
S1130AF0DD91DEBFFF91EF91DF91CF91BF91AF9177
S1130B009F918F917F916F915F914F913F912F9121
S1130B101F910F91FF90EF90DF90CF90BF90AF9017
S1130B209F908F907F906F905F904F903F902F9009
S1130B301F900F900FBE0F9008950F920FB6F89468
S1130B400F921F9211242F923F924F925F926F92B5
S1130B507F928F929F92AF92BF92CF92DF92EF9249
S1130B60FF920F931F932F933F934F935F936F9332
S1130B707F938F939F93AF93BF93CF93DF93EF9321
S1130B80FF93A091AD0DB091AE0D0DB60D920EB6C2
S1130B900D920E94800C81110E94030EA091AD0D54
S1130BA0B091AE0DCD91CDBFDD91DEBFFF91EF9140
S1130BB0DF91CF91BF91AF919F918F917F916F9171
S1130BC05F914F913F912F911F910F91FF90EF9063
S1130BD0DF90CF90BF90AF909F908F907F906F9059
S1130BE05F904F903F902F901F900F900FBE0F90EB
S1130BF008950E949D051895CF93DF93EC010E9400
S1130C00600C8091580190915901892B31F48DE544
S1130C1091E0909359018093580120915A013091A9
S1130C205B01C9018C0F9D1F8F3F4BE0940770F44B
S1130C302817390770F4C0915801D0915901C20F97
S1130C40D31F90935B0180935A0105C0C0E0D0E0AC
S1130C5002C0C0E0D0E00E943A0DCE01DF91CF91F6
S1130C600895089510925B0110925A0108952091FD
S1130C705A0130915B018FEF9BE0821B930B089527
S1130C800FB6F8940F92FC01828D811102C081E0AD
S1130C9001C080E00F900FBE08950FB6F8940F9234
S1130CA0FC01228D838D281302C081E001C080E005
S1130CB00F900FBE08950F931F93CF93DF93EC0112
S1130CC0042F1A8D4C8D4423B9F1011116C050E044
S1130CD08C819D810E9485142C8D8C819D81820F35
S1130CE0911D9D838C832A813B818217930720F178
S1130CF0888199819D838C831FC050E08E819F8160
S1130D000E9485148C8D90E09195819591092E8196
S1130D103F81280F391F3F832E834881598124172F
S1130D20350730F42A813B81820F931F9F838E8382
S1130D30023011F4111111501F5F1A8F80E0DF91FE
S1130D40CF911F910F910895FC01448D4423A9F084
S1130D5050E026813781240F351F37832683828113
S1130D6093812817390720F08081918197838683A6
S1130D70CB01668177810E94851408951F93CF93D8
S1130D80DF93EC010FB6F8940F921E8D0BC0898986
S1130D90882351F0CE0141960E94820E81110E9457
S1130DA0410F115011169CF38FEF8E8F0F900FBED1
S1130DB00FB6F8940F921D8D0BC08885882351F0CF
S1130DC0CE0108960E94820E81110E94410F11509B
S1130DD011169CF38FEF8D8F0F900FBEDF91CF9183
S1130DE01F910895CF93DF93EC010FB6F8940F92FF
S1130DF0E881F9818B8D90E02C8D30E0829FA001F9
S1130E00839F500D929F500D11244E0F5F1F5B83E3
S1130E104A831A8EFD83EC830197289FA001299FA2
S1130E20500D389F500D1124CF01840F951F9F83BF
S1130E308E838FEF8D8F8E8F61110CC088858823F0
S1130E4089F0CE0108960E94820E882359F00E94F0
S1130E50440508C0CE0108960E941404CE014196B0
S1130E600E9414040F900FBE81E0DF91CF9108958A
S1130E700F931F93F801611103C01183008302C013
S1130E8051834083838F648F61E0CF010E94F20617
S1130E901F910F910895DF92EF92FF920F931F938A
S1130EA0CF93DF93E82EF62ED42E662321F0869F6F
S1130EB0C001112402C080E090E04F960E94FC051E
S1130EC0EC01009749F08C012D2DAC01415E5F4F80
S1130ED06F2D8E2D0E943807CE01DF91CF911F9187
S1130EE00F91FF90EF90DF900895CF92DF92EF92F1
S1130EF0FF920F931F93CF93DF9300D000D01F92E4
S1130F00CDB7DEB78C017B015D834C83C22ED12C1F
S1130F100FB6F8940F92F801928D838D981718F0FC
S1130F20F2E0CF1219C04C2DB701C8010E945B0634
S1130F30F8019189992349F0C80141960E94820ED3
S1130F40882331F00E94440503C081110E944405A6
S1130F500F900FBE81E04DC08C819D81892B21F4BF
S1130F600F900FBE80E045C0D11006C0CE0101969F
S1130F700E94040FDD24D3940F900FBE0E94600CD6
S1130F800FB6F8940F92F801858D8F3F09F4158EF2
S1130F90F801868D8F3F09F4168E0F900FBEBE01A7
S1130FA06C5F7F4FCE0101960E940F0F81111BC011
S1130FB0C8010E944D06882381F06C817D81C8019F
S1130FC008960E94570EC8010E94BE060E943A0D60
S1130FD081119ECF0E9444059BCFC8010E94BE068A
S1130FE00E943A0D95CFC8010E94BE060E943A0D98
S1130FF080E00F900F900F900F900F90DF91CF91A2
S11310001F910F91FF90EF90DF90CF900895EF9292
S1131010FF920F931F93CF93DF938A01FC01528DAC
S1131020338D531710F02230F1F4422F7801EC0184
S11310301E8D0E945B061F3F81F489898823A9F0D5
S1131040CE0141960E94820E882389F0E114F104B6
S113105081F081E0F70180830DC0FF24F394F10E49
S1131060FE8E81E007C080E005C081E003C081E01E
S113107001C081E0DF91CF911F910F91FF90EF901C
S11310800895CF93DF93FC01828D938D8917C0F46B
S1131090968D8F5F828F9F3F79F48189882391F0A9
S11310A0EB01CF0141960E94820E882369F02097BC
S11310B069F081E088830BC09F5F968F81E007C051
S11310C080E005C081E003C081E001C081E0DF91E0
S11310D0CF9108958F929F92BF92CF92DF92EF9219
S11310E0FF920F931F93CF93DF9300D000D01F92F2
S11310F0CDB7DEB78C016B015D834C83B22EE12C3E
S11311000FB6F8940F92F801F28CFF2041F186801B
S11311109780B601C8010E94A406B1100FC0FA94CA
S1131120F801F28E80858823B1F0C80108960E94E8
S1131130820E882381F00E9444050DC0F801978235
S113114086828189882339F0C80141960E94820EE3
S113115081110E9444050F900FBE81E053C08C8121
S11311609D81892B21F40F900FBE80E04BC0E110CC
S113117006C0CE0101960E94040FEE24E3940F9062
S11311800FBE0E94600C0FB6F8940F92F801858D83
S11311908F3F09F4158EF801868D8F3F09F4168E62
S11311A00F900FBEBE016C5F7F4FCE0101960E946F
S11311B00F0F81111BC0C8010E944006882381F0D3
S11311C06C817D81C80141960E94570EC8010E941E
S11311D0BE060E943A0D811193CF0E94440590CF20
S11311E0C8010E94BE060E943A0D8ACFC8010E941F
S11311F0BE060E943A0DC8010E944006882309F4E5
S11312007FCF80E00F900F900F900F900F90DF91A1
S1131210CF911F910F91FF90EF90DF90CF90BF90EF
S11312209F908F900895EF92FF920F931F93CF9307
S1131230DF93FC01C28DCC23F9F07A018C01D58DAA
S11312400E94A406C150F801C28FDF3F81F480855B
S11312508823A1F0C80108960E94820E882381F099
S1131260E114F10479F081E0F70180830CC0DF5FC1
S1131270F801D58F81E007C080E005C081E003C09C
S113128081E001C081E0DF91CF911F910F91FF9028
S1131290EF9008950F931F93CF93DF93FC01228D5A
S11312A0222349F0EC01068117810E94A4061F83C2
S11312B00E8381E001C080E0DF91CF911F910F91F7
S11312C008950FB6F8940F92FC01828D0F900FBE13
S11312D00895FC010FB6F8940F92938D828D981B9C
S11312E0892F0F900FBE0895FC01828D08950E94EE
S11312F031060895FC01828D811102C081E00895B8
S113130080E00895FC01228D838D281302C081E0C2
S1131310089580E00895EF92FF920F931F93CF9367
S1131320DF93EC017B018A01F8940E944D06882327
S113133079F00115110549F0BE01685F7F4FC801BE
S11313400E94BA0178948CEF1FC0789480E01CC08E
S11313507894F8949A8D8B8D981780F440E0B701B7
S1131360CE010E945B068989882351F0CE01419603
S11313700E945502811106C081E005C080E003C0CF
S113138081E001C08BEF7894DF91CF911F910F9191
S1131390FF90EF900895CF93DF93EC019B01F894B5
S11313A09A8D91110FC04115510549F0BE016F5E30
S11313B07F4FCA010E94BA0178948CEF32C07894AE
S11313C080E02FC07894F8948A8D882321F14C8D85
S11313D050E08E819F81840F951F9F838E836A8145
S11313E07B818617970720F0888199819F838E835C
S11313F08A8D81508A8F6E817F81C9010E948514F4
S11314008885882351F0CE0108960E9455028111E7
S113141006C081E005C080E003C081E001C08BEF1D
S11314207894DF91CF9108950F931F93CF93FC018C
S1131430328D238D321798F4C42F8C0140E00E9422
S11314405B06C1110EC0F8018189882361F0C801CF
S113145041960E945502882341F081E007C0842F01
S113146005C08C2F03C08C2F01C08C2FCF911F91EE
S11314700F9108950F931F93CF93DF93FC01828DF7
S1131480882369F1248D30E0A681B781A20FB31FB0
S1131490B783A68382819381A817B90720F080813E
S11314A09181978386838A01CB01EF01428D41505C
S11314B0428F66817781A9010E948514F801808199
S11314C081110FC08885882371F0CE0108960E948F
S11314D05502882351F081E0F801808307C080E041
S11314E005C081E003C081E001C081E0DF91CF91BC
S11314F01F910F910895E091750DF091760D808103
S1131500811107C08FEF9FEF9093600D80935F0D63
S11315100895E091750DF091760D0580F681E02D2A
S11315200680F781E02D828193819093600D8093F2
S11315305F0D08956F927F928F929F92AF92BF92A8
S1131540CF92DF92EF920F931F93CF93DF93CDB798
S1131550DEB74C01F5018789908D215031093C019A
S1131560620E731E20E00FC0822F90E0FB01E80F93
S1131570F91F3081D501A80FB91F59963C9380817A
S1131580882319F02F5F283078F3F50110A2F3E0D7
S1131590FE1520F40F2EF3E0EF2EF02DF501E68A70
S11315A0C50102960E942204C5010C960E942204E1
S11315B0F501B186A08684E090E08E1991099587A3
S11315C08487B38AA28A11A212A213A214A215A21A
S11315D0A801B401C3010E94A804F501918380838A
S11315E0C114D10419F0F601B182A082DF91CF9128
S11315F01F910F91EF90DF90CF90BF90AF909F908D
S11316008F907F906F900895CF93C0E010C08C2F7F
S113161090E09C01220F331F220F331F220F331F30
S1131620820F931F8757924F0E941404CF5FC430D8
S113163070F380E89DE00E94140487E79DE00E9417
S113164014048AE69DE00E94140480E89DE09093CF
S1131650760D8093750D87E79DE09093740D8093CC
S1131660730DCF910895CF93DF93EC010FB6F894E7
S11316700F928091690D8F5F8093690D8091AD0DFC
S11316809091AE0D892B59F4D093AE0DC093AD0D4E
S11316908091690D813099F40E94040B10C08091EF
S11316A0650D81110CC0E091AD0DF091AE0D9689E0
S11316B08E89891720F0D093AE0DC093AD0D809123
S11316C0610D8F5F8093610D8E899091660D9817DF
S11316D010F48093660D90E09C01220F331F220FBB
S11316E0331F220F331F820F931FBE016E5F7F4F84
S11316F08757924F0E9426040F900FBE8091650D6C
S1131700882351F0E091AD0DF091AE0D96898E894C
S1131710981710F40E944405DF91CF9108950F9318
S11317201F93CF93DF93EC010091670D1091680D27
S11317308091AD0D9091AE0D02960E947804C00F79
S1131740D11FE091AD0DF091AE0DD383C283C017CC
S1131750D10768F46091AD0D7091AE0D8091730D59
S11317609091740D6E5F7F4F0E94470417C0609183
S1131770AD0D7091AE0D8091750D9091760D6E5FEB
S11317807F4F0E94470480915F0D9091600DC817B0
S1131790D90720F4D093600DC0935F0DDF91CF91F2
S11317A01F910F9108958091890D823010F00E944D
S11317B044050E949E12F7CF2F923F924F925F9260
S11317C06F927F928F929F92AF92BF92CF92DF924D
S11317D0EF92FF920F931F93CF93DF933C011B0172
S11317E05A012901CA010E94FC056C01892B71F080
S11317F086E290E00E94FC05EC01892B19F0D88E5A
S1131800CF8A06C0C6010E94310602C0C0E0D0E003
S1131810209791F0950140E050E0812C912C5E01DD
S11318206701E02E8201B101C3010E949A0ACE0130
S11318300E94330B81E001C08FEFDF91CF911F91A4
S11318400F91FF90EF90DF90CF90BF90AF909F905B
S11318508F907F906F905F904F903F902F9008955E
S1131860EF92FF920F930F2EFDE5EF2EFDE0FF2E7A
S1131870F02D00E020E030E045E550E060E071E06C
S113188083ED9BE00E94DC0B813081F4F8948FEFB0
S11318909FEF9093600D80935F0D81E08093650DC1
S11318A01092680D1092670D0E9414050F91FF901D
S11318B0EF900895F8941092650D0E9443050895E1
S11318C080915C0D8F5F80935C0D08950FB6F89442
S11318D00F928091670D9091680D0F900FBE08953F
S11318E08091670D9091680D08958091690D089518
S11318F0009721F48091AD0D9091AE0D4996089515
S1131900DF92EF92FF920F931F93CF93DF93809117
S11319105C0D811197C0E090670DF090680D8FEF1A
S1131920E81AF80AF092680DE092670DE114F104E8
S1131930B9F48091750D9091760D2091730D3091CD
S1131940740D3093760D2093750D9093740D8093E0
S1131950730D8091620D8F5F8093620D0E947B0AEC
S113196080915F0D9091600DE816F90628F4D12C52
S113197053C0DD24D39401C0D12CE091750DF091B6
S1131980760D8081811107C08FEF9FEF9093600DDA
S113199080935F0D41C0E091750DF091760D058047
S11319A0F681E02DC681D7818A819B81E816F906EC
S11319B028F49093600D80935F0D2EC08E010E5F0E
S11319C01F4FC8010E9478048C899D89892B21F0BE
S11319D0CE010C960E9478048E899091660D98171A
S11319E010F48093660D90E09C01220F331F220FA8
S11319F0331F220F331F820F931FB8018757924F53
S1131A000E9426049E89E091AD0DF091AE0D868969
S1131A10981708F0AECFB1CFE091AD0DF091AE0DB7
S1131A20868990E0FC01EE0FFF1FEE0FFF1FEE0F03
S1131A30FF1F8E0F9F1FFC01E757F24F80818230FA
S1131A4040F409C08091640D8F5F8093640DD12CA4
S1131A5002C0DD24D3948091630D882311F0DD242A
S1131A60D3948D2DDF91CF911F910F91FF90EF9023
S1131A70DF9008950F931F93CF93DF930FB6F894DD
S1131A800F9280915C0D815080935C0D80915C0D70
S1131A90811158C08091690D811133C056C0E09105
S1131AA06F0DF091700DC681D781CE010C960E9406
S1131AB078048E010E5F1F4FC8010E9478048E893E
S1131AC09091660D981710F48093660D90E09C0138
S1131AD0220F331F220F331F220F331F820F931F36
S1131AE0B8018757924F0E9426049E89E091AD0D5C
S1131AF0F091AE0D8689981730F081E08093630DE4
S1131B0002C0C0E0D0E080916A0D8111C8CFCD2B16
S1131B1011F00E947B0AC091640DCC2359F00E94FD
S1131B20800C882319F081E08093630DC150B9F7CC
S1131B301092640D8091630D882331F00E94440556
S1131B4081E003C080E001C080E00F900FBEDF9110
S1131B50CF911F910F9108950F931F93CF93DF930C
S1131B608C01EB010E94600C4091670D5091680D4F
S1131B70F80120813181C9018C0F9D1F4217530741
S1131B8040F48217930768F44817590760F020E07F
S1131B900FC08217930748F04817590740F020E018
S1131BA007C020E005C021E003C021E001C021E01E
S1131BB0F80191838083222329F060E0841B950B34
S1131BC00E948F0B0E943A0D811102C00E944405AD
S1131BD0DF91CF911F910F910895CF93DF93EC0183
S1131BE0892B49F00E94600C60E0CE010E948F0BAB
S1131BF00E943A0D01C080E0811102C00E94440598
S1131C00DF91CF91089580915C0D882321F081E0CC
S1131C108093630D08951092630D2091660D01C0A9
S1131C202150822F90E0FC01EE0FFF1FEE0FFF1FEB
S1131C30EE0FFF1FE80FF91FE757F24F30813323F0
S1131C4079F3AC01440F551F440F551F440F551F22
S1131C50480F591FDF010180F281E02D0280F381DA
S1131C60E02D1296FC93EE9311974457524FE417CC
S1131C70F50729F442815381FD0152834183FC011C
S1131C80EE0FFF1FEE0FFF1FEE0FFF1F8E0F9F1FA4
S1131C90FC01E757F24F0180F281E02D86819781A4
S1131CA09093AE0D8093AD0D2093660D0895CF9360
S1131CB0DF93EB016091AD0D7091AE0D645F7F4FCA
S1131CC00E94470461E0CE010E948F0BDF91CF9107
S1131CD00895CF93DF93EA01E091AD0DF091AE0D3D
S1131CE07068758764876091AD0D7091AE0D645F07
S1131CF07F4F0E94260461E0CE010E948F0BDF918A
S1131D00CF9108950F931F93CF93DF93DC01159622
S1131D10ED91FC911697C681D7818E01045F1F4F08
S1131D20C8010E94780480915C0D81111CC00A5086
S1131D301109C8010E9478048E899091660D981744
S1131D4010F48093660D90E09C01220F331F220F44
S1131D50331F220F331F820F931FB8018757924FEF
S1131D600E94260405C0B8018AE69DE00E9426046C
S1131D709E89E091AD0DF091AE0D8689891720F40E
S1131D8081E08093630D01C080E0DF91CF911F91CA
S1131D900F9108950F931F93CF93DF937068FC0105
S1131DA071836083C681D7810E9478048E010E5F9F
S1131DB01F4FC8010E9478048E899091660D981770
S1131DC010F48093660D90E09C01220F331F220FC4
S1131DD0331F220F331F820F931FB8018757924F6F
S1131DE00E9426049E89E091AD0DF091AE0D868986
S1131DF0891720F481E08093630D01C080E0DF91B6
S1131E00CF911F910F9108952091620DFC012083C1
S1131E102091670D3091680D328321830895CF930B
S1131E20DF93FC010FB6F8940F924091670D509127
S1131E30680D90818091620D981729F081819281BB
S1131E4048175907B0F421813281CA01821B930BD0
S1131E50EB01A881B9818A179B0768F4CF01241B81
S1131E60350B2A0F3B1F398328830E94040F80E01F
S1131E7003C081E001C081E00F900FBEDF91CF91DC
S1131E80089581E08093630D0895E091AD0DF09184
S1131E90AE0D84859585E091AD0DF091AE0DA091C8
S1131EA0AD0DB091AE0D56964C9124E030E0241B5C
S1131EB031093587248708950F931F93CF93C82F33
S1131EC0CB010FB6F8940F92E091AD0DF091AE0DE9
S1131ED041A152A163A174A1452B462B472B69F460
S1131EE0E091AD0DF091AE0D21E025A3009729F00E
S1131EF061E00E948F0B0E9444050F900FBE0FB645
S1131F00F8940F92E091AD0DF091AE0D61A172A124
S1131F1083A194A16115710581059105C9F0CC23B4
S1131F2049F0E091AD0DF091AE0D11A212A213A2F1
S1131F3014A20EC0E091AD0DF091AE0D8B019C0189
S1131F40015011092109310901A312A323A334A3C8
S1131F50E091AD0DF091AE0D15A20F900FBECF9193
S1131F601F910F9108954F925F926F927F928F927B
S1131F709F92AF92BF92EF92FF920F931F934901EA
S1131F805A010FB6F8940F92E091AD0DF091AE0D99
S1131F9025A1223029F1E091AD0DF091AE0D41A0C3
S1131FA052A063A074A0DC01CB0180959095A0950C
S1131FB0B09584219521A621B72181A392A3A3A33F
S1131FC0B4A3E091AD0DF091AE0D81E085A3E114D1
S1131FD0F10431F061E0C7010E948F0B0E944405B7
S1131FE00F900FBE0FB6F8940F920115110569F00A
S1131FF0E091AD0DF091AE0D81A192A1A3A1B4A188
S1132000F80180839183A283B383E091AD0DF091B5
S1132010AE0D85A18130B1F0E091AD0DF091AE0D22
S113202081A192A1A3A1B4A180949094A094B0940E
S113203088229922AA22BB2281A292A2A3A2B4A29C
S113204081E001C080E0E091AD0DF091AE0D15A2EC
S11320500F900FBE1F910F91FF90EF90BF90AF9024
S11320609F908F907F906F905F904F900895EF9224
S1132070FF920F931F93CF93DF93FC010FB6F89455
S11320800F920115110549F081A192A1A3A1B4A158
S1132090E80188839983AA83BB8385A192E095A3F1
S11320A02230B9F018F4213031F02FC02330F9F088
S11320B0243019F12AC001A112A123A134A1402B7B
S11320C0512B622B732B41A352A363A374A311E07E
S11320D01FC041A152A163A174A14F5F5F4F6F4F15
S11320E07F4F41A352A363A374A311E011C041A382
S11320F052A363A374A311E00BC0823041F041A347
S113210052A363A374A311E003C011E001C010E063
S1132110813041F5EF017F0182E0E80EF11CC70137
S11321200E9478048E899091660D981710F480931C
S1132130660D90E09C01220F331F220F331F220FE4
S1132140331F820F931FB7018757924F0E942604B3
S11321509E89E091AD0DF091AE0D8689891710F43A
S11321600E9444050F900FBE812FDF91CF911F91E4
S11321700F91FF90EF900895CF92DF92EF92FF922C
S11321800F931F93CF93DF93FC010115110549F0C1
S113219081A192A1A3A1B4A1E80188839983AA8310
S11321A0BB8385A192E095A32230B9F018F42130C5
S11321B031F02FC02330F9F0243019F12AC001A1E5
S11321C012A123A134A1402B512B622B732B41A3C9
S11321D052A363A374A311E01FC041A152A163A140
S11321E074A14F5F5F4F6F4F7F4F41A352A363A30F
S11321F074A311E011C041A352A363A374A311E01B
S11322000BC0823041F041A352A363A374A311E035
S113221003C011E001C010E08130E1F5EF018091CD
S11322205C0D81111EC06F01E2E0CE0ED11CC6010F
S11322300E9478048E899091660D981710F480930B
S1132240660D90E09C01220F331F220F331F220FD3
S1132250331F820F931FB6018757924F0E942604A3
S113226007C0BF01645F7F4F8AE69DE00E94260499
S11322709E89E091AD0DF091AE0D8689891750F4D9
S1132280E114F10421F081E0E701888303C081E0D7
S11322908093630D812FDF91CF911F910F91FF9058
S11322A0EF90DF90CF900895EF92FF920F931F93DA
S11322B0CF93DF93FC0125A182E085A381A192A1A4
S11322C0A3A1B4A10196A11DB11D81A392A3A3A3AF
S11322D0B4A32130E9F58B01EF0180915C0D8111EC
S11322E01EC07F0182E0E80EF11CC7010E94780441
S11322F08E899091660D981710F48093660D90E086
S11323009C01220F331F220F331F220F331F820F12
S1132310931FB7018757924F0E94260407C0BF013D
S1132320645F7F4F8AE69DE00E9426049E89E091C7
S1132330AD0DF091AE0D8689891750F40115110584
S113234021F081E0F801808303C081E08093630D74
S1132350DF91CF911F910F91FF90EF900895009717
S113236021F48091AD0D9091AE0D0FB6F8940F92BB
S1132370FC0125A1223019F415A281E001C080E0FE
S11323800F900FBE089520E04FEF5FEF6CE970E00F
S11323908091D40D9091D50D0E946A0880919B0084
S11323A085FFFCCFF0CF20E04FEF5FEF6CE270E0F1
S11323B08091D20D9091D30D0E946A085D9BFECF4F
S11323C0F2CFCF93DF931F92CDB7DEB78983CB01D2
S11323D020E041E050E0BE016F5F7F4F0E9475072F
S11323E00F90DF91CF910895CF93DF9300D0CDB7B5
S11323F0DEB720E04FEF5FEFBE016F5F7F4F80914C
S1132400B30D9091B40D0E946A08898190E8980FE9
S1132410903178F7482F50E0FA01E058F109E031A3
S1132420F10568F4EA5BFF4F0C947F1411E007C0D8
S113243013E005C013E003C014E001C010E0609194
S1132440D20D7091D30D0E94E11114C020E040E040
S113245050E0BE016E5F7F4F8091B30D9091B40D3B
S11324600E946A086091D20D7091D30D8A810E94F6
S1132470E11111501111EACFBCCFEF92FF920F93EB
S113248040E061E080E20E944B079093D30D80937B
S1132490D20D40E061E080E20E944B079093D10DA1
S11324A08093D00D40E061E080E20E944B0790935E
S11324B0D50D8093D40D40E061E080E20E944B078B
S11324C09093B40D8093B30D87B3816087BB87B3BA
S11324D0826087BB0E94F9128AB180688AB9EAE9EE
S11324E0F0E08081806880837894E12CF12C02E014
S11324F020E030E045E550E065E071E083ED91E1F6
S11325000E94DC0B20E030E045E550E06DE071E036
S113251083EC91E10E94DC0B20E030E045E550E0E3
S113252065E171E084EF91E10E94DC0B0E94300CC4
S113253080E090E00F91FF90EF90089508951F922E
S11325400F920FB60F9211242F933F934F935F93E3
S11325506F937F938F939F93AF93BF93EF93FF9367
S113256020E040E050E06CE270E08091D00D90916A
S1132570D10D0E940708FF91EF91BF91AF919F91F8
S11325808F917F916F915F914F913F912F910F9018
S11325900FBE0F901F9018951F920F920FB60F92B7
S11325A011242F933F934F935F936F937F938F9354
S11325B09F93AF93BF93EF93FF9320E040E050E0ED
S11325C06CE970E08091B30D9091B40D0E940708FE
S11325D0FF91EF91BF91AF919F918F917F916F91F7
S11325E05F914F913F912F910F900FBE0F901F90CD
S11325F018951092900085E089B91092980087E4AC
S11326008093990088E18AB980939A0008958CB9DF
S113261008958CB90895AC0190E004C05D9BFECF91
S11326202CB99F5FFA01E90FF11D20812111F6CF2A
S113263008955F9BFECF8CB10895FC0160834183B4
S1132640338322830895CF93DF93EC01DB018BE77F
S11326508C93888111968C931197898112968C930F
S113266012978881813449F013C0FD01E90FF11DEF
S113267040832F5F3F4F9F5F03C020E030E093E033
S1132680EA81FB81E20FF31F40814111EECF07C0C5
S1132690EA81FB81808113968C93139794E081E007
S11326A0890FFD01E90FF11D9DE79083A80FB11D6E
S11326B01C92DF91CF910895CF92DF92EF92FF9217
S11326C0CF936B017C01C42F0FB6F8940F9240E0B6
S11326D061E08C2F0E944B079093B20D8093B10D53
S11326E040E061E08C2F0E944B079093B00D8093E3
S11326F0AF0DD701C601880F991FAA1FBB1F880FF2
S1132700991FAA1FBB1F9C01AD01220F331F441F39
S1132710551F220F331F441F551F60E070EC88EAD9
S113272090E00E945D14DA01C9010197A109B10981
S113273089B9892F9A2FAB2FBB278093900088E902
S11327408AB986E8809395000F900FBE80E090E0F0
S1132750CF91FF90EF90DF90CF90089520E080918B
S1132760B10D9091B20D0E946A08811181E0089523
S1132770CF93DF931F92CDB7DEB7698320E0BE010C
S11327806F5F7F4F8091AF0D9091B00D0E947507E0
S1132790813021F49AB190629AB901C080E00F901F
S11327A0DF91CF9108950FB6F8940F928AB18F7D7F
S11327B08AB98AB18F778AB90F900FBE08951F9294
S11327C00F920FB60F9211242F933F934F935F9361
S11327D06F937F938F939F93AF93BF93EF93FF93E5
S11327E0CF93DF9300D0CDB7DEB71A828CB1898343
S11327F020E0AE014E5F5F4FBE016F5F7F4F80915F
S1132800B10D9091B20D0E9407088A8181110E9436
S113281044050F900F90DF91CF91FF91EF91BF91FD
S1132820AF919F918F917F916F915F914F913F9164
S11328302F910F900FBE0F901F9018951F920F921B
S11328400FB60F9211242F933F934F935F936F937F
S11328507F938F939F93AF93BF93EF93FF93CF9304
S1132860DF9300D0CDB7DEB7AE014E5F5F4FBE0140
S11328706F5F7F4F8091AF0D9091B00D0E9413094F
S1132880813019F489818CB903C08AB18F7D8AB9EA
S11328900F900F90DF91CF91FF91EF91BF91AF9186
S11328A09F918F917F916F915F914F913F912F9164
S11328B00F900FBE0F901F901895A1E21A2EAA1B1D
S11328C0BB1BFD010DC0AA1FBB1FEE1FFF1FA217DC
S11328D0B307E407F50720F0A21BB30BE40BF50BD9
S11328E0661F771F881F991F1A9469F76095709562
S11328F0809590959B01AC01BD01CF010895EE0F29
S1132900FF1F0590F491E02D0994FB01DC0102C046
S113291001900D9241505040D8F70895F894FFCF9C
S113292049444C4500554152543054780055415265
S111293054315478005541525431527800000D
S9030000FC
