:100000000C94B7000C94D4000C94D4000C94D4003D
:100010000C94D4000C94D4000C94D4000C94D40010
:100020000C94D4000C94D4000C94D4000C94D40000
:100030000C945A060C94D4000C94D4000C94D40064
:100040000C94D4000C94D4000C9417150C94D40088
:100050000C94D4000C94D4000C94D4000C94D400D0
:100060000C94D4000C94D4000C94D4000C94D400C0
:100070000C94D4000C94D4000C9444150C94D4002B
:100080000C94D4000C94D4000C94D40056145A143C
:100090005614561456145614561456145614621404
:1000A0005A145E1469145A14661456143D143D14FF
:1000B0003D143D143D143D143D143D143D143D14B8
:1000C0003D143D143D143D143D143D143D143D14A8
:1000D0003D143D143D143D143D143D143D143D1498
:1000E0003D143D143D143D143D143D143D143D1488
:1000F0003D143D143D143D143D143D143D143D1478
:100100003D143D143D143D143D143D143D143D1467
:100110003D143D143D143D143D143D143D143D1457
:100120003D143D143D143D143D143D143D143D1447
:100130003D143D143D143D143D143D143D143D1437
:100140003D143D143D143D143D143D143D143D1427
:100150003D143D143D143D143D143D143D143D1417
:100160003D143D143D143D143D143D146C141124F4
:100170001FBECFEFD0E1DEBFCDBF11E0A0E0B1E008
:10018000E4E0FBE202C005900D92AA32B107D9F774
:100190002DE0AAE2B1E001C01D92A73EB207E1F74F
:1001A0000E948E140C9480150C940000CF93C0E034
:1001B00010C08C2F90E09C01220F331F220F331FA1
:1001C000220F331F820F931F8E5A9E4F0E94750479
:1001D000CF5FC23070F389E491E00E94750480E43F
:1001E00091E00E94750483E391E00E94750489E424
:1001F00091E090933F0180933E0180E491E09093E1
:100200003D0180933C01CF9108950F931F93CF93AD
:10021000DF9328C0F894E0913801F0913901C6814C
:10022000D781CE010C960E94D90478948E010E5F7E
:100230001F4FC8010E94D9048E89909130019817F0
:1002400010F48093300190E09C01220F331F220FA5
:10025000331F220F331F820F931FB8018E5A9E4FF8
:100260000E948704809133018111D4CFDF91CF9117
:100270001F910F9108950F931F93CF93DF930E94C7
:10028000150D20912C0130912D01821B930B909321
:100290002B0180932A015EC020912E0130912F0105
:1002A0002F5F3F4F30932F0120932E0101979093A2
:1002B0002B0180932A01232B09F045C080913E0138
:1002C00090913F0120913C0130913D0130933F01DD
:1002D00020933E0190933D0180933C0134C0058002
:1002E000F681E02DC681D7812A813B8180912E0144
:1002F00090912F018217930768F1F8948E010E5F99
:100300001F4FC8010E94D9048C899D89892B21F037
:10031000CE010C960E94D90478948E899091300178
:10032000981710F48093300190E09C01220F331F46
:10033000220F331F220F331F820F931FB8018E5AD3
:100340009E4F0E948704E0913E01F0913F01808121
:100350008111C5CF80912A0190912B01009709F05E
:100360009BCF80912E0190912F0190932D0180932E
:100370002C01DF91CF911F910F910895CF92DF92C1
:10038000FF920F931F93CF93DF936C01F62E142FE0
:100390008AE190E00E945D06EC01892B09F442C0DD
:1003A0008091310190913201892B31F4D093320147
:1003B000C09331010E94D60081E08F1510F4FF2414
:1003C000F394198E188EFE8A1F8BFE01C192D19272
:1003D0008F01CF010E948304CE010C960E948304FA
:1003E000D987C887DB8BCA8B82E090E08F1991098F
:1003F0009D878C878E8990913001981710F4809397
:10040000300190E09C01220F331F220F331F220F77
:10041000331F820F931FB8018E5A9E4F0E9487048C
:1004200081E001C08FEFDF91CF911F910F91FF907D
:10043000DF90CF9008950F931F93CF93DF938B019D
:10044000C0912E01D0912F01C80FD91F8091310189
:100450009091320102960E94D904E0913101F0910D
:100460003201D383C28380912E0190912F01C8174E
:10047000D90750F4BF016E5F7F4F80913C0190918E
:100480003D010E94A80409C0BF016E5F7F4F8091AB
:100490003E0190913F010E94A8040115110549F009
:1004A0006091310170913201645F7F4FC8010E94F9
:1004B000A804DF91CF911F910F9108950E9405012B
:1004C0000E943B0106C0882309F44FC081508093ED
:1004D000300180913001282F30E0F901EE0FFF1F2D
:1004E000EE0FFF1FEE0FFF1FE20FF31FEE5AFE4F3E
:1004F0009081992341F3C901880F991F880F991F93
:10050000880F991F820F931FDF010180F281E02D78
:100510000280F381E02D1296FC93EE9311978B5A93
:100520009E4FE817F90729F482819381FD01928398
:100530008183F901EE0FFF1FEE0FFF1FEE0FFF1F6C
:100540002E0F3F1FF901EE5AFE4F0180F281E02D80
:10055000868197819093320180933101DC01ED9186
:10056000FC91119757966C91099508950F931F93DD
:10057000CF93DF93DC011596ED91FC911697C68120
:10058000D7818E01045F1F4FC8010E94D904B801B2
:1005900083E391E00E9487049E89E0913101F0910C
:1005A00032018689981710F081E001C080E0DF9168
:1005B000CF911F910F910895411106C068237923AF
:1005C000672B49F480E008958623972368177907FD
:1005D00021F080E0089581E0089581E00895CF93AF
:1005E000DF938BE090E00E945D06EC01009731F014
:1005F000FC0111921192CF010E947504CE01DF918E
:10060000CF910895AF92BF92CF92DF92EF92FF9277
:100610000F931F93CF93DF937C015B01C42ED22EE7
:100620000E940F0DF701C081D1814D2DB501CE0182
:100630000E94DC02882369F0CC2009F1C501809575
:1006400090958C239D23F7019183808300E010E037
:1006500018C001151105A9F0C11003C060E070E0D9
:1006600002C060E071E0D11074606A297B29A801A2
:10067000C70102960E94180FC0E0D0E002C000E05F
:1006800010E00E94E90D012B19F1811102C00E94B6
:10069000A5050E949B10EC0191FD19C00FB6F894BE
:1006A0000F92F701C081D1814D2DB501CE010E947D
:1006B000DC02882351F0CC2041F0B50160957095A3
:1006C0006C237D23F701718360830F900FBEDD27BC
:1006D000CE01DF91CF911F910F91FF90EF90DF90AE
:1006E000CF90BF90AF900895FC010FB6F8940F9291
:1006F00080819181609570956823792371836083EF
:100700000F900FBE0895FC01808191810895CF92D2
:10071000DF92EF92FF920F931F93CF93DF937C01B1
:100720008B01EC0125960E940F0DD7011796ED91D4
:10073000FC9118978D919C911197082B192B0D9373
:100740001C9300E010E02DC0C280D3808081918195
:100750009C01332792FD09C0D7014D915C91422342
:100760005323452B61F440E00DC0D7014D915C91BE
:10077000422353232417350721F040E003C041E012
:1007800001C041E0442359F090FF02C0022B132B1B
:10079000D7016D917C917260CF010E94790FEC2D91
:1007A000FD2DEC17FD0781F600951095F70180816E
:1007B000918108231923118300830E94E90DD70139
:1007C0008D919C91DF91CF911F910F91FF90EF90B0
:1007D000DF90CF900895AF92BF92CF92DF92EF92C9
:1007E000FF920F931F93CF93DF938C01EB017A015C
:1007F00069010E940F0DF801A080B180BE01C801FF
:100800000E948703CA29DB29CE018E219F21E81689
:10081000F90669F4F80120813181C701809590952E
:100820008223932391838083C12CD12C10C0C114C7
:10083000D10451F0A601B7017560C80102960E946B
:10084000180FC0E0D0E003C0F801C081D1810E9440
:10085000E90DCD28F9F0811102C00E94A5050E9482
:100860009B1091FD15C00FB6F8940F92F80180818E
:100870009181970128233923E216F30639F4A70161
:100880004095509548235923518340830F900FBEC4
:10089000EC01DD27CE01DF91CF911F910F91FF90E9
:1008A000EF90DF90CF90BF90AF900895CF93DF93FC
:1008B000EC010E940F0D06C060E072E08F81988508
:1008C0000E94790F8A818111F7CFCE010E94920692
:1008D0000E94E90DDF91CF910895BA010E9487032C
:1008E0000895BA010E9474030895FC01039692834F
:1008F00081832FEF3FEF3483238396838583908713
:10090000878310820895FC01118610860895CF9385
:10091000DF939C01FB01DC011196CD91DC911297D4
:10092000D383C2838C819D81958384838C819D81B7
:10093000DC0113967C936E9312977D836C833187D1
:100940002087F90180818F5F8083DF91CF910895A7
:10095000CF93DF93EB01488159814F3F2FEF52072F
:1009600021F4FC01A781B0850DC0DC01139601C004
:10097000DF011296ED91FC9113972081318142178E
:100980005307B0F71296ED91FC911397FB83EA831E
:10099000D583C483BD83AC831396DC93CE93129727
:1009A00099878887FC0120812F5F2083DF91CF9179
:1009B0000895CF93DF93FC01A085B185C281D381D7
:1009C000848195819D838C83C481D581828193812B
:1009D0009B838A8311968D919C911297E817F90752
:1009E00031F48481958112969C938E931197118690
:1009F00010868C9181508C93DF91CF91089586E081
:100A00008BBD8FEB8ABD8BE08EBD87B7806187BFC2
:100A1000089531E1FC013083319722E22083319740
:100A2000A3E3A0833197608331977083319710825D
:100A3000319760E8608331971082319762E060837C
:100A4000319763E06083319764E06083319765E0BC
:100A50006083319766E06083319767E06083319708
:100A600068E06083319769E06083319760E160837B
:100A700031973083319732E13083319733E13083DE
:100A8000319734E13083319735E13083319736E166
:100A90003083319737E13083319738E130833197B4
:100AA00039E13083319730E23083319731E230835E
:100AB00031972083319723E2208331974083319708
:100AC0005083319726E22083319727E220833197A4
:100AD00028E22083319729E22083319720E3208385
:100AE000319721E32083869708950E94FF04A09107
:100AF000B90DB091BA0DCD91CDBFDD91DEBFFF91A3
:100B0000EF91DF91CF91BF91AF919F918F917F91A5
:100B10006F915F914F913F912F911F910F91FF9096
:100B2000EF90DF90CF90BF90AF909F908F907F908D
:100B30006F905F904F903F902F901F900F900FBE3F
:100B40000F90089581E0089508950F920FB6F894DC
:100B50000F921F9211242F923F924F925F926F92A9
:100B60007F928F929F92AF92BF92CF92DF92EF923D
:100B7000FF920F931F932F933F934F935F936F9326
:100B80007F938F939F93AF93BF93CF93DF93EF9315
:100B9000FF93A091B90DB091BA0D0DB60D920EB69E
:100BA0000D920E94B20EA091B90DB091BA0DCD91E7
:100BB000CDBFDD91DEBFFF91EF91DF91CF91BF916E
:100BC000AF919F918F917F916F915F914F913F91E5
:100BD0002F911F910F91FF90EF90DF90CF90BF90DA
:100BE000AF909F908F907F906F905F904F903F90CD
:100BF0002F901F900F900FBE0F9008950F920FB679
:100C0000F8940F921F9211242F923F924F925F926D
:100C10006F927F928F929F92AF92BF92CF92DF920C
:100C2000EF92FF920F931F932F933F934F935F93F6
:100C30006F937F938F939F93AF93BF93CF93DF93E4
:100C4000EF93FF93A091B90DB091BA0D0DB60D922F
:100C50000EB60D920E942F0D81110E94B20EA0912E
:100C6000B90DB091BA0DCD91CDBFDD91DEBFFF9131
:100C7000EF91DF91CF91BF91AF919F918F917F9134
:100C80006F915F914F913F912F911F910F91FF9025
:100C9000EF90DF90CF90BF90AF909F908F907F901C
:100CA0006F905F904F903F902F901F900F900FBECE
:100CB0000F9008950E94FE051895CF93DF93EC01E5
:100CC0000E940F0D8091640190916501892B31F490
:100CD00089E691E09093650180936401209166011B
:100CE00030916701C9018C0F9D1F8F3F4BE0940726
:100CF00070F42817390770F4C0916401D091650130
:100D0000C20FD31F909367018093660105C0C0E0B6
:100D1000D0E002C0C0E0D0E00E94E90DCE01DF913A
:100D2000CF91089508951092670110926601089579
:100D300020916601309167018FEF9BE0821B930B3E
:100D400008950FB6F8940F92FC01828D811102C0B4
:100D500081E001C080E00F900FBE08950FB6F894B7
:100D60000F92FC01228D838D281302C081E001C007
:100D700080E00F900FBE08950F931F93CF93DF93E2
:100D8000EC01042F1A8D4C8D41110CC08881998182
:100D9000892B09F042C08A819B810E945B101B82D3
:100DA0001A8242C0011117C050E08C819D810E94BF
:100DB00077152C8D8C819D81820F911D9D838C8355
:100DC0002A813B818217930750F1888199819D8305
:100DD0008C8380E029C050E08E819F810E9477152E
:100DE0008C8D90E09195819591092E813F81280FFE
:100DF000391F3F832E83488159812417350730F4EA
:100E00002A813B81820F931F9F838E83023049F496
:100E1000112349F0115080E007C080E005C080E058
:100E200003C080E001C080E01F5F1A8FDF91CF9187
:100E30001F910F910895FC01448D4423A9F050E0C7
:100E400026813781240F351F378326838281938142
:100E50002817390720F08081918197838683CB0101
:100E6000668177810E94771508951F93CF93DF9352
:100E7000EC010FB6F8940F921E8D0BC08989882360
:100E800051F0CE0141960E94310F81110E94F00F66
:100E9000115011169CF38FEF8E8F0F900FBE0FB66F
:100EA000F8940F921D8D0BC08885882351F0CE01D8
:100EB00008960E94310F81110E94F00F11501116F7
:100EC0009CF38FEF8D8F0F900FBEDF91CF911F910D
:100ED0000895CF93DF93EC010FB6F8940F92E88159
:100EE000F9818B8D90E02C8D30E0829FA001839F53
:100EF000500D929F500D11244E0F5F1F5B834A834C
:100F00001A8EFD83EC830197289FA001299F500D25
:100F1000389F500D1124CF01840F951F9F838E831E
:100F20008FEF8D8F8E8F61110CC08885882389F09B
:100F3000CE0108960E94310F882359F00E94A50522
:100F400008C0CE0108960E947504CE0141960E9409
:100F500075040F900FBE81E0DF91CF9108950F933C
:100F60001F93F801611103C01183008302C05183F4
:100F70004083838F648F61E0CF010E9469071F91D6
:100F80000F910895DF92EF92FF920F931F93CF93EB
:100F9000DF93E82EF62ED42E662321F0869FC00123
:100FA000112402C080E090E04F960E945D06EC01A3
:100FB000009749F08C012D2DAC01415E5F4F6F2DE4
:100FC0008E2D0E94AF07CE01DF91CF911F910F911F
:100FD000FF90EF90DF900895CF92DF92EF92FF9213
:100FE0000F931F93CF93DF9300D000D01F92CDB704
:100FF000DEB78C017B015D834C83C22ED12C0FB6F2
:10100000F8940F92F801928D838D981718F0F2E002
:10101000CF1219C04C2DB701C8010E94BC06F801BF
:101020009189992349F0C80141960E94310F882384
:1010300031F00E94A50503C081110E94A5050F9003
:101040000FBE81E04DC08C819D81892B21F40F90D2
:101050000FBE80E045C0D11006C0CE0101960E94AF
:10106000B30FDD24D3940F900FBE0E940F0D0FB667
:10107000F8940F92F801858D8F3F09F4158EF801D1
:10108000868D8F3F09F4168E0F900FBEBE016C5FE8
:101090007F4FCE0101960E94BE0F81111BC0C80177
:1010A0000E94AE06882381F06C817D81C80108967C
:1010B0000E94060FC8010E9435070E94E90D8111A8
:1010C0009ECF0E94A5059BCFC8010E9435070E94B4
:1010D000E90D95CFC8010E9435070E94E90D80E017
:1010E0000F900F900F900F900F90DF91CF911F9165
:1010F0000F91FF90EF90DF90CF900895009769F0E7
:10110000FC011382128211821082168220E040E0DC
:1011100050E060E070E00E94EC070895CF93DF9309
:10112000482F60E081E00E94C207EC010E947E0827
:10113000CE01DF91CF910895EF92FF920F931F930D
:10114000CF93DF938A01FC01528D338D531710F03A
:101150002230F1F4422F7801EC011E8D0E94BC0672
:101160001F3F81F489898823A9F0CE0141960E940E
:10117000310F882389F0E114F10481F081E0F70157
:1011800080830DC0FF24F394F10EFE8E81E007C032
:1011900080E005C081E003C081E001C081E0DF9113
:1011A000CF911F910F91FF90EF900895CF93DF9310
:1011B000FC01828D938D8917C0F4968D8F5F828F8D
:1011C0009F3F79F48189882391F0EB01CF0141960B
:1011D0000E94310F882369F0209769F081E08883AD
:1011E0000BC09F5F968F81E007C080E005C081E063
:1011F00003C081E001C081E0DF91CF9108958F921B
:101200009F92BF92CF92DF92EF92FF920F931F9324
:10121000CF93DF9300D000D01F92CDB7DEB78C0103
:101220006B015D834C83B22EE12C0FB6F8940F92C4
:10123000F801F28CFF2091F186809780B601C801F9
:101240000E941B07B11019C0FA94F801F28E808138
:101250009181892B29F40E94B210F8019383828333
:10126000F80180858823B1F0C80108960E94310FEB
:10127000882381F00E94A5050DC0F801978286821F
:101280008189882339F0C80141960E94310F81116C
:101290000E94A5050F900FBE81E061C08C819D81E9
:1012A000892B21F40F900FBE80E059C0E11006C0D9
:1012B000CE0101960E94B30FEE24E3940F900FBE6F
:1012C0000E940F0D0FB6F8940F92F801858D8F3F95
:1012D00009F4158EF801868D8F3F09F4168E0F9054
:1012E0000FBEBE016C5F7F4FCE0101960E94BE0F04
:1012F000811129C0C8010E94A1068823F1F0F801DC
:1013000080819181892B49F40FB6F8940F928281E4
:1013100093810E94F90F0F900FBE6C817D81C801EF
:1013200041960E94060FC8010E9435070E94E90DF0
:1013300081117BCF0E94A50578CFC8010E94350797
:101340000E94E90D72CFC8010E9435070E94E90D85
:10135000C8010E94A106882309F467CF80E00F909E
:101360000F900F900F900F90DF91CF911F910F91E1
:10137000FF90EF90DF90CF90BF909F908F90089557
:10138000EF92FF920F931F93CF93DF93FC01C28DD7
:10139000CC23F9F07A018C01D58D0E941B07C15036
:1013A000F801C28FDF3F81F480858823A1F0C80156
:1013B00008960E94310F882381F0E114F10479F03E
:1013C00081E0F70180830CC0DF5FF801D58F81E0F9
:1013D00007C080E005C081E003C081E001C081E07A
:1013E000DF91CF911F910F91FF90EF9008950F9390
:1013F0001F93CF93DF93FC01228D222349F0EC0150
:10140000068117810E941B071F830E8381E001C0A4
:1014100080E0DF91CF911F910F9108950FB6F8945E
:101420000F92FC01828D0F900FBE0895FC010FB644
:10143000F8940F92938D828D981B892F0F900FBE79
:101440000895FC01828D08950E9492060895FC0182
:10145000828D811102C081E0089580E00895FC0131
:10146000228D838D281302C081E0089580E00895C5
:10147000EF92FF920F931F93CF93DF93EC017B01C9
:101480008A01F8940E94AE06882379F001151105AF
:1014900049F0BE01685F7F4FC8010E941B0278942B
:1014A0008CEF1FC0789480E01CC07894F8949A8DDB
:1014B0008B8D981780F440E0B701CE010E94BC06E6
:1014C0008989882351F0CE0141960E94B60281118C
:1014D00006C081E005C080E003C081E001C08BEF61
:1014E0007894DF91CF911F910F91FF90EF90089525
:1014F000CF93DF93EC019B01F8949A8D91110FC06B
:101500004115510549F0BE016F5E7F4FCA010E942F
:101510001B0278948CEF32C0789480E02FC07894CE
:10152000F8948A8D882321F14C8D50E08E819F8123
:10153000840F951F9F838E836A817B81861797070F
:1015400020F0888199819F838E838A8D81508A8F34
:101550006E817F81C9010E9477158885882351F0AB
:10156000CE0108960E94B602811106C081E005C036
:1015700080E003C081E001C08BEF7894DF91CF91D0
:1015800008950F931F93CF93FC01328D238D321753
:1015900098F4C42F8C0140E00E94BC06C1110EC01B
:1015A000F8018189882361F0C80141960E94B60242
:1015B000882341F081E007C0842F05C08C2F03C031
:1015C0008C2F01C08C2FCF911F910F9108950F93F5
:1015D0001F93CF93DF93FC01828D882369F1248DC3
:1015E00030E0A681B781A20FB31FB783A6838281A3
:1015F0009381A817B90720F0808191819783868312
:101600008A01CB01EF01428D4150428F6681778183
:10161000A9010E947715F801808181110FC088858A
:10162000882371F0CE0108960E94B602882351F0FB
:1016300081E0F801808307C080E005C081E003C03D
:1016400081E001C081E0DF91CF911F910F9108955A
:10165000E091810DF091820D8081811107C08FEFA3
:101660009FEF90936C0D80936B0D0895E091810D29
:10167000F091820D0580F681E02D0680F781E02D46
:101680008281938190936C0D80936B0D08956F927E
:101690007F928F929F92AF92BF92CF92DF92EF9202
:1016A0000F931F93CF93DF93CDB7DEB74C01F501B6
:1016B0008789908D215031093C01620E731E20E014
:1016C0000FC0822F90E0FB01E80FF91F3081D50198
:1016D000A80FB91F59963C938081882319F02F5F7A
:1016E000283078F3F50110A2F3E0FE1520F40F2E58
:1016F000F3E0EF2EF02DF501E68AE1A212A2C5017A
:1017000002960E948304C5010C960E948304F50191
:10171000B186A08684E090E08E1991099587848730
:10172000B38AA28A13A214A215A216A217A2A80114
:10173000B401C3010E940905F50191838083C1149E
:10174000D10419F0F601B182A082DF91CF911F91EF
:101750000F91EF90DF90CF90BF90AF909F908F90C0
:101760007F906F900895CF93C0E010C08C2F90E0D1
:101770009C01220F331F220F331F220F331F820FB2
:10178000931F8B56924F0E947504CF5FC43070F345
:101790008CE89DE00E94750483E89DE00E9475043A
:1017A00086E79DE00E9475048CE89DE09093820D91
:1017B0008093810D83E89DE09093800D80937F0D51
:1017C000CF910895CF93DF93EC010FB6F8940F9269
:1017D0008091750D8F5F8093750D8091B90D9091FB
:1017E000BA0D892B59F4D093BA0DC093B90D8091DD
:1017F000750D813099F40E94B30B10C08091710D6A
:1018000081110CC0E091B90DF091BA0D96898E89C5
:10181000891720F0D093BA0DC093B90D80916D0D4A
:101820008F5F80936D0D8E899091720D981710F4D3
:101830008093720D90E09C01220F331F220F331F03
:10184000220F331F820F931FBE016E5F7F4F8B5697
:10185000924F0E9487040F900FBE8091710D8823D4
:1018600051F0E091B90DF091BA0D96898E899817D3
:1018700010F40E94A505DF91CF9108950F931F9357
:10188000CF93DF93EC010091730D1091740D809153
:10189000B90D9091BA0D02960E94D904C00FD11FC4
:1018A000E091B90DF091BA0DD383C283C017D1076F
:1018B00068F46091B90D7091BA0D80917F0D90918F
:1018C000800D6E5F7F4F0E94A80417C06091B90D14
:1018D0007091BA0D8091810D9091820D6E5F7F4F56
:1018E0000E94A80480916B0D90916C0DC817D907C8
:1018F00020F4D0936C0DC0936B0DDF91CF911F91AD
:101900000F9108958091950D823010F00E94A505E9
:101910000E941615F7CF2F923F924F925F926F92CF
:101920007F928F929F92AF92BF92CF92DF92EF926F
:10193000FF920F931F93CF93DF933C011B015A013A
:101940002901CA010E945D066C01892B71F088E2B1
:1019500090E00E945D06EC01892B19F0D88ECF8AA9
:1019600006C0C6010E94920602C0C0E0D0E02097E7
:1019700091F0950140E050E0812C912C5E016701CF
:10198000E02E8201B101C3010E94470BCE010E94EB
:10199000E20B81E001C08FEFDF91CF911F910F919A
:1019A000FF90EF90DF90CF90BF90AF909F908F907F
:1019B0007F906F905F904F903F902F900895EF929F
:1019C000FF920F930F2EF9E6EF2EFDE0FF2EF02D84
:1019D00000E020E030E045E550E060E071E082E8C2
:1019E0009CE00E948B0C813081F4F8948FEF9FEF84
:1019F00090936C0D80936B0D81E08093710D10922C
:101A0000740D1092730D0E9475050F91FF90EF9069
:101A10000895F8941092710D0E94A4050895809184
:101A2000680D8F5F8093680D08950FB6F8940F923C
:101A30008091730D9091740D0F900FBE0895809159
:101A4000730D9091740D08958091750D0895009710
:101A500021F48091B90D9091BA0D49960895DF92C5
:101A6000EF92FF920F931F93CF93DF938091680DB6
:101A7000811197C0E090730DF090740D8FEFE81A0C
:101A8000F80AF092740DE092730DE114F104B9F4C8
:101A90008091810D9091820D20917F0D3091800D6C
:101AA0003093820D2093810D9093800D80937F0D54
:101AB00080916E0D8F5F80936E0D0E94280B809138
:101AC0006B0D90916C0DE816F90628F4D12C53C0DB
:101AD000DD24D39401C0D12CE091810DF091820DD1
:101AE0008081811107C08FEF9FEF90936C0D8093E1
:101AF0006B0D41C0E091810DF091820D0580F68162
:101B0000E02DC681D7818A819B81E816F90628F4E9
:101B100090936C0D80936B0D2EC08E010E5F1F4F46
:101B2000C8010E94D9048C899D89892B21F0CE019E
:101B30000C960E94D9048E899091720D981710F41A
:101B40008093720D90E09C01220F331F220F331FF0
:101B5000220F331F820F931FB8018B56924F0E94A2
:101B600087049E89E091B90DF091BA0D8689981786
:101B700008F0AECFB1CFE091B90DF091BA0D8689E2
:101B800090E0FC01EE0FFF1FEE0FFF1FEE0FFF1F97
:101B90008E0F9F1FFC01EB56F24F8081823040F484
:101BA00009C08091700D8F5F8093700DD12C02C0A1
:101BB000DD24D39480916F0D882311F0DD24D3941C
:101BC0008D2DDF91CF911F910F91FF90EF90DF90BE
:101BD00008950F931F93CF93DF930FB6F8940F924E
:101BE0008091680D81508093680D8091680D8111FE
:101BF00058C08091750D811133C056C0E0917B0DA6
:101C0000F0917C0DC681D781CE010C960E94D9043B
:101C10008E010E5F1F4FC8010E94D9048E899091DA
:101C2000720D981710F48093720D90E09C01220FB2
:101C3000331F220F331F220F331F820F931FB80150
:101C40008B56924F0E9487049E89E091B90DF091C6
:101C5000BA0D8689981730F081E080936F0D02C02D
:101C6000C0E0D0E08091760D8111C8CFCD2B11F06E
:101C70000E94280BC091700DCC2359F00E942F0DAB
:101C8000882319F081E080936F0DC150B9F710924D
:101C9000700D80916F0D882331F00E94A50581E0C1
:101CA00003C080E001C080E00F900FBEDF91CF91B4
:101CB0001F910F9108950F931F93CF93DF938C0182
:101CC000EB010E940F0D4091730D5091740DF801BE
:101CD00020813181C9018C0F9D1F4217530740F4A9
:101CE0008217930768F44817590760F020E00FC087
:101CF0008217930748F04817590740F020E007C0C3
:101D000020E005C021E003C021E001C021E0F8018E
:101D100091838083222329F060E0841B950B0E942D
:101D20003E0C0E94E90D811102C00E94A505DF91C1
:101D3000CF911F910F910895CF93DF93EC01892BE1
:101D400049F00E940F0D60E0CE010E943E0C0E94FF
:101D5000E90D01C080E0811102C00E94A505DF915C
:101D6000CF9108958091680D882321F081E08093C0
:101D70006F0D089510926F0D2091720D01C02150CA
:101D8000822F90E0FC01EE0FFF1FEE0FFF1FEE0F02
:101D9000FF1FE80FF91FEB56F24F3081332379F321
:101DA000AC01440F551F440F551F440F551F480FDA
:101DB000591FDF010180F281E02D0280F381E02DC7
:101DC0001296FC93EE9311974856524FE417F5077D
:101DD00029F442815381FD0152834183FC01EE0FBE
:101DE000FF1FEE0FFF1FEE0FFF1F8E0F9F1FFC0147
:101DF000EB56F24F0180F281E02D8681978190931E
:101E0000BA0D8093B90D2093720D0895CF93DF938F
:101E1000EB016091B90D7091BA0D645F7F4F0E9424
:101E2000A80461E0CE010E943E0CDF91CF9108959D
:101E3000CF93DF93EA01E091B90DF091BA0D70688C
:101E4000758764876091B90D7091BA0D645F7F4F9B
:101E50000E94870461E0CE010E943E0CDF91CF9189
:101E600008950F931F93CF93DF93DC011596ED91A7
:101E7000FC911697C681D7818E01045F1F4FC80160
:101E80000E94D9048091680D81111CC00A5011096B
:101E9000C8010E94D9048E899091720D981710F490
:101EA0008093720D90E09C01220F331F220F331F8D
:101EB000220F331F820F931FB8018B56924F0E943F
:101EC000870405C0B80186E79DE00E9487049E89CB
:101ED000E091B90DF091BA0D8689891720F481E05F
:101EE00080936F0D01C080E0DF91CF911F910F9122
:101EF00008950F931F93CF93DF937068FC01718354
:101F00006083C681D7810E94D9048E010E5F1F4F66
:101F1000C8010E94D9048E899091720D981710F40F
:101F20008093720D90E09C01220F331F220F331F0C
:101F3000220F331F820F931FB8018B56924F0E94BE
:101F400087049E89E091B90DF091BA0D86898917B1
:101F500020F481E080936F0D01C080E0DF91CF918C
:101F60001F910F91089520916E0DFC012083209107
:101F7000730D3091740D328321830895CF93DF93D5
:101F8000FC010FB6F8940F924091730D5091740DAF
:101F9000908180916E0D981729F081819281481768
:101FA0005907B0F421813281CA01821B930BEB01E6
:101FB000A881B9818A179B0768F4CF01241B350BD0
:101FC0002A0F3B1F398328830E94B30F80E003C090
:101FD00081E001C081E00F900FBEDF91CF910895A5
:101FE00081E080936F0D08958091B90D9091BA0DA5
:101FF00008950F931F93CF93DF93FC01892B09F46E
:1020000055C02689A091B90DB091BA0D56968C9104
:10201000281708F04BC084859585992364F0A0911A
:10202000B90DB091BA0D56963C9184E090E0831BB7
:102030009109958784878285938530E0A901440FB3
:10204000551F440F551F440F551F240F351F2B5686
:10205000324F8217930719F58F01EF012296CE01B7
:102060000E94D904E091B90DF091BA0D8689F8016A
:10207000868B9091720D981710F48093720D90E0FA
:102080009C01220F331F220F331F220F331F820F99
:10209000931FBE018B56924F0E94870407C0A091E8
:1020A000B90DB091BA0D56968C91868BDF91CF9178
:1020B0001F910F9108950F931F93CF93DF93FC010E
:1020C000892B79F182A1815082A3268991A12917B8
:1020D00051F181112AC0EF018F010E5F1F4FC8011E
:1020E0000E94D90489A18E8B24E030E0281B31099D
:1020F0003D872C879091720D981710F48093720D84
:1021000090E09C01220F331F220F331F220F331F39
:10211000820F931FB8018B56924F0E94870481E073
:1021200005C080E003C080E001C080E0DF91CF9176
:102130001F910F910895E091B90DF091BA0D84852A
:102140009585E091B90DF091BA0DA091B90DB091BE
:10215000BA0D56964C9124E030E0241B31093587A6
:10216000248708958091B90D9091BA0D892B39F08B
:10217000E091B90DF091BA0D82A18F5F82A3809199
:10218000B90D9091BA0D08950F931F93CF93C82F57
:10219000CB010FB6F8940F92E091B90DF091BA0D02
:1021A00043A154A165A176A1452B462B472B69F489
:1021B000E091B90DF091BA0D21E027A3009729F025
:1021C00061E00E943E0C0E94A5050F900FBE0FB665
:1021D000F8940F92E091B90DF091BA0D63A174A13A
:1021E00085A196A16115710581059105C9F0CC23E2
:1021F00049F0E091B90DF091BA0D13A214A215A205
:1022000016A20EC0E091B90DF091BA0D8B019C01A0
:10221000015011092109310903A314A325A336A3F1
:10222000E091B90DF091BA0D17A20F900FBECF91AA
:102230001F910F9108954F925F926F927F928F92AC
:102240009F92AF92BF92EF92FF920F931F9349011B
:102250005A010FB6F8940F92E091B90DF091BA0DB2
:1022600027A1223029F1E091B90DF091BA0D43A0D8
:1022700054A065A076A0DC01CB0180959095A09537
:10228000B09584219521A621B72183A394A3A5A36A
:10229000B6A3E091B90DF091BA0D81E087A3E114E6
:1022A000F10431F061E0C7010E943E0C0E94A505D7
:1022B0000F900FBE0FB6F8940F920115110569F03B
:1022C000E091B90DF091BA0D83A194A1A5A1B6A199
:1022D000F80180839183A283B383E091B90DF091DB
:1022E000BA0D87A18130B1F0E091B90DF091BA0D2E
:1022F00083A194A1A5A1B6A180949094A094B09438
:1023000088229922AA22BB2283A294A2A5A2B6A2C5
:1023100081E001C080E0E091B90DF091BA0D17A203
:102320000F900FBE1F910F91FF90EF90BF90AF9055
:102330009F908F907F906F905F904F900895EF9255
:10234000FF920F931F93CF93DF93FC010FB6F89486
:102350000F920115110549F083A194A1A5A1B6A181
:10236000E80188839983AA83BB8387A192E097A31E
:102370002230B9F018F4213031F02FC02330F9F0B9
:10238000243019F12AC003A114A125A136A1402BA4
:10239000512B622B732B43A354A365A376A311E0A7
:1023A0001FC043A154A165A176A14F5F5F4F6F4F3E
:1023B0007F4F43A354A365A376A311E011C043A3A9
:1023C00054A365A376A311E00BC0823041F043A370
:1023D00054A365A376A311E003C011E001C010E08F
:1023E000813041F5EF017F0182E0E80EF11CC70169
:1023F0000E94D9048E899091720D981710F48093E1
:10240000720D90E09C01220F331F220F331F220F09
:10241000331F820F931FB7018B56924F0E94870480
:102420009E89E091B90DF091BA0D8689891710F453
:102430000E94A5050F900FBE812FDF91CF911F91B4
:102440000F91FF90EF900895CF92DF92EF92FF925D
:102450000F931F93CF93DF93FC010115110549F0F2
:1024600083A194A1A5A1B6A1E80188839983AA8339
:10247000BB8387A192E097A32230B9F018F42130F2
:1024800031F02FC02330F9F0243019F12AC003A114
:1024900014A125A136A1402B512B622B732B43A3F2
:1024A00054A365A376A311E01FC043A154A165A165
:1024B00076A14F5F5F4F6F4F7F4F43A354A365A338
:1024C00076A311E011C043A354A365A376A311E042
:1024D0000BC0823041F043A354A365A376A311E05F
:1024E00003C011E001C010E08130E1F5EF018091FF
:1024F000680D81111EC06F01E2E0CE0ED11CC60135
:102500000E94D9048E899091720D981710F48093CF
:10251000720D90E09C01220F331F220F331F220FF8
:10252000331F820F931FB6018B56924F0E94870470
:1025300007C0BF01645F7F4F86E79DE00E9487046C
:102540009E89E091B90DF091BA0D8689891750F4F2
:10255000E114F10421F081E0E701888303C081E008
:1025600080936F0D812FDF91CF911F910F91FF907D
:10257000EF90DF90CF900895EF92FF920F931F930B
:10258000CF93DF93FC0127A182E087A383A194A1CD
:10259000A5A1B6A10196A11DB11D83A394A3A5A3D6
:1025A000B6A32130E9F58B01EF018091680D81110F
:1025B0001EC07F0182E0E80EF11CC7010E94D90411
:1025C0008E899091720D981710F48093720D90E09F
:1025D0009C01220F331F220F331F220F331F820F44
:1025E000931FB7018B56924F0E94870407C0BF010B
:1025F000645F7F4F86E79DE00E9487049E89E0919B
:10260000B90DF091BA0D8689891750F4011511059D
:1026100021F081E0F801808303C081E080936F0D99
:10262000DF91CF911F910F91FF90EF900895009748
:1026300021F48091B90D9091BA0D0FB6F8940F92D4
:10264000FC0127A1223019F417A281E001C080E02B
:102650000F900FBE0895FFCF20E04FEF5FEF6CE9C2
:1026600070E08091BD0D9091BE0D0E94FF08809199
:102670009B0085FFFCCFF0CF20E04FEF5FEF6CE2D7
:1026800070E08091BB0D9091BC0D0E94FF085D9B96
:10269000FECFF2CFCF93DF931F92CDB7DEB7898302
:1026A00020E040E050E0BE016F5F7F4F8091BF0DA2
:1026B0009091C00D0E94EC070F90DF91CF9108958B
:1026C000CF93DF931F92CDB7DEB720E043E050E019
:1026D000BE016F5F7F4F8091C10D9091C20D0E942E
:1026E000FF08811103C086E00E944A1389810F9080
:1026F000DF91CF910895CF93DF931F92CDB7DEB7CF
:1027000020E043E050E0BE016F5F7F4F8091E50D18
:102710009091E60D0E94FF08811103C086E00E949F
:102720004A1389810F90DF91CF910895CF93DF9362
:102730001F92CDB7DEB7898320E043E050E0BE01B1
:102740006F5F7F4F8091BB0D9091BC0D0E94EC0795
:10275000811103C083E00E944A130F90DF91CF9153
:102760000895CF93DF93C62F0E94961305C00E9451
:1027700060130E949613CD2FDFEFDC0FC111F7CF4E
:10278000DF91CF910895CF93DF930E9496130E941B
:1027900060130E9496130E946013D82F0E94961314
:1027A000DD0FC0E005C00E9460130E949613CF5F4A
:1027B000CD17C8F3DF91CF910895CF93DF931F9288
:1027C000CDB7DEB7898320E043E050E0BE016F5F04
:1027D0007F4F8091BD0D9091BE0D0E94EC0781113D
:1027E00003C084E00E944A130F90DF91CF910895B7
:1027F0000F931F93CF93DF930E9496130E94601351
:10280000C82F0E949613C13071F058F0C23019F0F1
:10281000C33049F002C006E007C087E00E944A13B7
:1028200013C00AE101C00AE010E00CC0C12FD0E0E3
:102830000E947B13FE01E553F24F808380810E944A
:10284000DD131F5F101790F3DF91CF911F910F9150
:102850000895CF93C0E008C0EC2FF0E0ED53F24FA5
:1028600080810E94DD13CF5FC830B0F3CF9108950F
:10287000CF93DF931F92CDB7DEB720E04FEF5FEF2E
:10288000BE016F5F7F4F8091C10D9091C20D0E947C
:10289000FF088981482F50E0FA01E058F109E1373B
:1028A000F10558F7EA5BFF4F0C94711560E00E9448
:1028B000B113E3CF61E00E94B113DFCF63E00E9468
:1028C000B113DBCF64E00E94B113D7CF0E94F8139D
:1028D000D4CF0E94C313D1CF0E942914CECF84E855
:1028E00086B980E687B980E012C097B1907F97B92A
:1028F00097B1982B97B996B1906496B93699FECF57
:10290000E82FF0E095B1ED53F24F90838F5F88236D
:1029100061F38AE090E00E949C0EE5CFEF92FF9277
:102920000F9387B3816087BB87B3826087BB1092A8
:10293000900085E089B91092980087E4809399000F
:1029400088E18AB9EAE9F0E080838AB180688AB9CF
:10295000808180688083789440E061E080E20E941A
:10296000C2079093BC0D8093BB0D40E061E080E214
:102970000E94C2079093E60D8093E50D40E061E070
:1029800080E20E94C2079093BE0D8093BD0D40E08F
:1029900061E080E20E94C2079093C20D8093C10D56
:1029A00040E061E081E00E94C2079093C00D8093F7
:1029B000BF0DE12CF12C02E020E030E045E550E0D5
:1029C00065E071E08FE694E10E948B0C20E030E03E
:1029D00045E550E06EE071E088E394E10E948B0CE5
:1029E00020E030E045E550E064E171E08CE393E104
:1029F0000E948B0C20E030E045E550E06CE171E096
:102A00008CE293E10E948B0C20E030E045E550E041
:102A100064E271E08BE293E10E948B0C0E94DF0C78
:102A200080E090E00F91FF90EF90089508951F923D
:102A30000F920FB60F9211242F933F934F935F93F2
:102A40006F937F938F939F93AF93BF93EF93FF9376
:102A500020E040E050E06CE270E08091E50D909164
:102A6000E60D0E949C08FF91EF91BF91AF919F915D
:102A70008F917F916F915F914F913F912F910F9027
:102A80000FBE0F901F9018951F920F920FB60F92C6
:102A900011242F933F934F935F936F937F938F9363
:102AA0009F93AF93BF93EF93FF9320E040E050E0FC
:102AB0006CE970E08091C10D9091C20D0E949C085C
:102AC000FF91EF91BF91AF919F918F917F916F9106
:102AD0005F914F913F912F910F900FBE0F901F90DC
:102AE0001895EE0FFF1F0590F491E02D0994FB015E
:102AF000DC0102C001900D9241505040D8F708957A
:042B0000F894FFCF77
:102B040049444C4500506572696F646963004254DE
:102B1400636D640055415254305478005541525409
:0A2B2400315478004572726F7200A0
:00000001FF
