S0200000526F6F6D6261436F6D6D616E6465725F41546D65676136342E7372656316
S11300000C9456000C9473000C9473000C947300BD
S11300100C9473000C9473000C9473000C94730090
S11300200C9473000C9473000C9473000C94730080
S11300300C94F9050C9473000C9473000C947300E5
S11300400C9473000C9473000C947D140C94730042
S11300500C9473000C9473000C9473000C94730050
S11300600C9473000C9473000C9473000C94730040
S11300700C9473000C9473000C94AA140C947300E5
S11300800C9473000C9473000C947300E613EA133D
S1130090E613E613E613E613E613E613E613F21388
S11300A0EA13EE13F913EA13F613E61311241FBE31
S11300B0CFEFD0E1DEBFCDBF11E0A0E0B1E0E0EDD5
S11300C0F9E202C005900D92A232B107D9F72DE0F2
S11300D0A2E2B1E001C01D92AF3DB207E1F70E9478
S11300E0FC130C94E6140C940000CF93C0E010C0F1
S11300F08C2F90E09C01220F331F220F331F220FFD
S1130100331F820F931F865B9E4F0E941404CF5FA0
S1130110C23070F381E491E00E94140488E391E01A
S11301200E9414048BE291E00E94140481E491E0A3
S1130130909337018093360188E391E090933501E1
S113014080933401CF9108950F931F93CF93DF933E
S113015028C0F894E0913001F0913101C681D78133
S1130160CE010C960E94780478948E010E5F1F4F86
S1130170C8010E9478048E8990912801981710F480
S11301808093280190E09C01220F331F220F331F1C
S1130190220F331F820F931FB801865B9E4F0E946C
S11301A0260480912B018111D4CFDF91CF911F912F
S11301B00F9108950F931F93CF93DF930E94B40C74
S11301C02091240130912501821B930B90932301EC
S11301D0809322015EC020912601309127012F5F78
S11301E03F4F3093270120932601019790932301D9
S11301F080932201232B09F045C080913601909110
S11302003701209134013091350130933701209327
S11302103601909335018093340134C00580F68112
S1130220E02DC681D7812A813B818091260190915E
S113023027018217930768F1F8948E010E5F1F4F10
S1130240C8010E9478048C899D89892B21F0CE01F4
S11302500C960E94780478948E89909128019817BE
S113026010F48093280190E09C01220F331F220F89
S1130270331F220F331F820F931FB801865B9E4FDB
S11302800E942604E0913601F091370180818111AA
S1130290C5CF8091220190912301009709F09BCF53
S11302A08091260190912701909325018093240148
S11302B0DF91CF911F910F910895CF92DF92FF921A
S11302C00F931F93CF93DF936C01F62E142F8AE1C3
S11302D090E00E94FC05EC01892B09F442C0809156
S11302E0290190912A01892B31F4D0932A01C093DA
S11302F029010E94750081E08F1510F4FF24F39406
S1130300198E188EFE8A1F8BFE01C192D1928F0125
S1130310CF010E942204CE010C960E942204D987A8
S1130320C887DB8BCA8B82E090E08F1991099D8787
S11303308C878E8990912801981710F48093280156
S113034090E09C01220F331F220F331F220F331F13
S1130350820F931FB801865B9E4F0E94260481E0A2
S113036001C08FEFDF91CF911F910F91FF90DF902C
S1130370CF9008950F931F93CF93DF938B01C09178
S11303802601D0912701C80FD91F8091290190918E
S11303902A0102960E947804E0912901F0912A0131
S11303A0D383C2838091260190912701C817D9076E
S11303B050F4BF016E5F7F4F8091340190913501FD
S11303C00E94470409C0BF016E5F7F4F80913601D0
S11303D0909137010E9447040115110549F060917D
S11303E0290170912A01645F7F4FC8010E9447046C
S11303F0DF91CF911F910F9108950E94A4000E9454
S1130400DA0006C0882309F44FC081508093280184
S113041080912801282F30E0F901EE0FFF1FEE0F25
S1130420FF1FEE0FFF1FE20FF31FE65BFE4F9081ED
S1130430992341F3C901880F991F880F991F880FC9
S1130440991F820F931FDF010180F281E02D02804A
S1130450F381E02D1296FC93EE931197835B9E4FEC
S1130460E817F90729F482819381FD01928381833E
S1130470F901EE0FFF1FEE0FFF1FEE0FFF1F2E0FF0
S11304803F1FF901E65BFE4F0180F281E02D86817A
S1130490978190932A0180932901DC01ED91FC91CD
S11304A0119757966C91099508950F931F93CF93C5
S11304B0DF93DC011596ED91FC911697C681D781E7
S11304C08E01045F1F4FC8010E947804B8018BE2BB
S11304D091E00E9426049E89E0912901F0912A016D
S11304E08689981710F081E001C080E0DF91CF91F8
S11304F01F910F910895411106C068237923672B3A
S113050049F480E00895862397236817790721F03A
S113051080E0089581E0089581E00895CF93DF930A
S11305208BE090E00E94FC05EC01009731F0FC01A7
S113053011921192CF010E941404CE01DF91CF9148
S11305400895AF92BF92CF92DF92EF92FF920F93F2
S11305501F93CF93DF937C015B01C42ED22E0E94A4
S1130560AE0CF701C081D1814D2DB501CE010E94A1
S11305707B02882369F0CC2009F1C5018095909510
S11305808C239D23F7019183808300E010E018C041
S113059001151105A9F0C11003C060E070E002C0AC
S11305A060E071E0D11074606A297B29A801C70159
S11305B002960E94B70EC0E0D0E002C000E010E056
S11305C00E94880D012B19F1811102C00E9444057B
S11305D00E943A10EC0191FD19C00FB6F8940F92E5
S11305E0F701C081D1814D2DB501CE010E947B025E
S11305F0882351F0CC2041F0B501609570956C23AF
S11306007D23F701718360830F900FBEDD27CE0138
S1130610DF91CF911F910F91FF90EF90DF90CF90DA
S1130620BF90AF900895FC010FB6F8940F928081AB
S113063091816095709568237923718360830F900D
S11306400FBE0895FC01808191810895CF92DF92BD
S1130650EF92FF920F931F93CF93DF937C018B0153
S1130660EC0125960E94AE0CD7011796ED91FC91F2
S113067018978D919C911197082B192B0D931C930E
S113068000E010E02DC0C280D380808191819C0164
S1130690332792FD09C0D7014D915C914223532326
S11306A0452B61F440E00DC0D7014D915C9142238C
S11306B053232417350721F040E003C041E001C073
S11306C041E0442359F090FF02C0022B132BD701C1
S11306D06D917C917260CF010E94180FEC2DFD2D5D
S11306E0EC17FD0781F600951095F7018081918143
S11306F008231923118300830E94880DD7018D914B
S11307009C91DF91CF911F910F91FF90EF90DF901B
S1130710CF900895AF92BF92CF92DF92EF92FF9263
S11307200F931F93CF93DF938C01EB017A0169013F
S11307300E94AE0CF801A080B180BE01C8010E94E5
S11307402603CA29DB29CE018E219F21E816F9064A
S113075069F4F80120813181C70180959095822345
S1130760932391838083C12CD12C10C0C114D10454
S113077051F0A601B7017560C80102960E94B70E38
S1130780C0E0D0E003C0F801C081D1810E94880D8F
S1130790CD28F9F0811102C00E9444050E943A104C
S11307A091FD15C00FB6F8940F92F80180819181E4
S11307B0970128233923E216F30639F4A70140955B
S11307C0509548235923518340830F900FBEEC0169
S11307D0DD27CE01DF91CF911F910F91FF90EF9014
S11307E0DF90CF90BF90AF900895CF93DF93EC014B
S11307F00E94AE0C06C060E072E08F8198850E9472
S1130800180F8A818111F7CFCE010E9431060E9410
S1130810880DDF91CF910895BA010E9426030895AF
S1130820BA010E9413030895FC0103969283818305
S11308302FEF3FEF348323839683858390878783C9
S113084010820895FC01118610860895CF93DF93DA
S11308509C01FB01DC011196CD91DC911297D383AD
S1130860C2838C819D81958384838C819D81DC01ED
S113087013967C936E9312977D836C8331872087C4
S1130880F90180818F5F8083DF91CF910895CF93A9
S1130890DF93EB01488159814F3F2FEF520721F439
S11308A0FC01A781B0850DC0DC01139601C0DF01F6
S11308B01296ED91FC9113972081318142175307D1
S11308C0B0F71296ED91FC911397FB83EA83D583DD
S11308D0C483BD83AC831396DC93CE93129799871C
S11308E08887FC0120812F5F2083DF91CF910895B9
S11308F0CF93DF93FC01A085B185C281D38184812C
S113090095819D838C83C481D581828193819B83CE
S11309108A8311968D919C911297E817F90731F407
S11309208481958112969C938E93119711861086DB
S11309308C9181508C93DF91CF91089586E08BBD8B
S11309408FEB8ABD8BE08EBD87B7806187BF08952A
S113095031E1FC013083319722E220833197A3E314
S1130960A0833197608331977083319710823197D8
S113097060E8608331971082319762E06083319739
S113098063E06083319764E06083319765E060835E
S1130990319766E06083319767E06083319768E060
S11309A06083319769E06083319760E160833197B8
S11309B03083319732E13083319733E1308331979B
S11309C034E13083319735E13083319736E1308338
S11309D0319737E13083319738E13083319739E10A
S11309E03083319730E23083319731E2308331976D
S11309F02083319723E220833197408331975083BA
S1130A00319726E22083319727E22083319728E229
S1130A102083319729E22083319720E32083319783
S1130A2021E32083869708950E949E04A091B10D2E
S1130A30B091B20DCD91CDBFDD91DEBFFF91EF91AD
S1130A40DF91CF91BF91AF919F918F917F916F91E2
S1130A505F914F913F912F911F910F91FF90EF90D4
S1130A60DF90CF90BF90AF909F908F907F906F90CA
S1130A705F904F903F902F901F900F900FBE0F905C
S1130A80089581E0089508950F920FB6F8940F9297
S1130A901F9211242F923F924F925F926F927F92F6
S1130AA08F929F92AF92BF92CF92DF92EF92FF927A
S1130AB00F931F932F933F934F935F936F937F9362
S1130AC08F939F93AF93BF93CF93DF93EF93FF9352
S1130AD0A091B10DB091B20D0DB60D920EB60D925E
S1130AE00E94510EA091B10DB091B20DCD91CDBF28
S1130AF0DD91DEBFFF91EF91DF91CF91BF91AF9177
S1130B009F918F917F916F915F914F913F912F9121
S1130B101F910F91FF90EF90DF90CF90BF90AF9017
S1130B209F908F907F906F905F904F903F902F9009
S1130B301F900F900FBE0F9008950F920FB6F89468
S1130B400F921F9211242F923F924F925F926F92B5
S1130B507F928F929F92AF92BF92CF92DF92EF9249
S1130B60FF920F931F932F933F934F935F936F9332
S1130B707F938F939F93AF93BF93CF93DF93EF9321
S1130B80FF93A091B10DB091B20D0DB60D920EB6BA
S1130B900D920E94CE0C81110E94510EA091B10DB4
S1130BA0B091B20DCD91CDBFDD91DEBFFF91EF913C
S1130BB0DF91CF91BF91AF919F918F917F916F9171
S1130BC05F914F913F912F911F910F91FF90EF9063
S1130BD0DF90CF90BF90AF909F908F907F906F9059
S1130BE05F904F903F902F901F900F900FBE0F90EB
S1130BF008950E949D051895CF93DF93EC010E9400
S1130C00AE0C80915C0190915D01892B31F481E6F9
S1130C1091E090935D0180935C0120915E0130919D
S1130C205F01C9018C0F9D1F8F3F4BE0940770F447
S1130C302817390770F4C0915C01D0915D01C20F8F
S1130C40D31F90935F0180935E0105C0C0E0D0E0A4
S1130C5002C0C0E0D0E00E94880DCE01DF91CF91A8
S1130C600895089510925F0110925E0108952091F5
S1130C705E0130915F018FEF9BE0821B930B08951F
S1130C800FB6F8940F92FC01828D811102C081E0AD
S1130C9001C080E00F900FBE08950FB6F8940F9234
S1130CA0FC01228D838D281302C081E001C080E005
S1130CB00F900FBE08950F931F93CF93DF93EC0112
S1130CC0042F1A8D4C8D41110CC088819981892B78
S1130CD009F042C08A819B810E94FA0F1B821A820A
S1130CE042C0011117C050E08C819D810E94DD1427
S1130CF02C8D8C819D81820F911D9D838C832A81F3
S1130D003B818217930750F1888199819D838C835D
S1130D1080E029C050E08E819F810E94DD148C8D7B
S1130D2090E09195819591092E813F81280F391F7B
S1130D303F832E83488159812417350730F42A8153
S1130D403B81820F931F9F838E83023049F41123CA
S1130D5049F0115080E007C080E005C080E003C086
S1130D6080E001C080E01F5F1A8FDF91CF911F9157
S1130D700F910895FC01448D4423A9F050E026818D
S1130D803781240F351F3783268382819381281767
S1130D90390720F08081918197838683CB01668116
S1130DA077810E94DD1408951F93CF93DF93EC01A4
S1130DB00FB6F8940F921E8D0BC08989882351F0C9
S1130DC0CE0141960E94D00E81110E948F0F1150C6
S1130DD011169CF38FEF8E8F0F900FBE0FB6F89401
S1130DE00F921D8D0BC08885882351F0CE01089683
S1130DF00E94D00E81110E948F0F115011169CF386
S1130E008FEF8D8F0F900FBEDF91CF911F910895BB
S1130E10CF93DF93EC010FB6F8940F92E881F98138
S1130E208B8D90E02C8D30E0829FA001839F500D2C
S1130E30929F500D11244E0F5F1F5B834A831A8EBD
S1130E40FD83EC830197289FA001299F500D389FB3
S1130E50500D1124CF01840F951F9F838E838FEF34
S1130E608D8F8E8F61110CC08885882389F0CE0107
S1130E7008960E94D00E882359F00E94440508C0A9
S1130E80CE0108960E941404CE0141960E941404D7
S1130E900F900FBE81E0DF91CF9108950F931F93C0
S1130EA0F801611103C01183008302C051834083A0
S1130EB0838F648F61E0CF010E9408071F910F9117
S1130EC00895DF92EF92FF920F931F93CF93DF93D6
S1130ED0E82EF62ED42E662321F0869FC00111241D
S1130EE002C080E090E04F960E94FC05EC01009760
S1130EF049F08C012D2DAC01415E5F4F6F2D8E2D7D
S1130F000E944E07CE01DF91CF911F910F91FF9068
S1130F10EF90DF900895CF92DF92EF92FF920F93BC
S1130F201F93CF93DF9300D000D01F92CDB7DEB7CD
S1130F308C017B015D834C83C22ED12C0FB6F894B7
S1130F400F92F801928D838D981718F0F2E0CF126A
S1130F5019C04C2DB701C8010E945B06F8019189A4
S1130F60992349F0C80141960E94D00E882331F09C
S1130F700E94440503C081110E9444050F900FBED6
S1130F8081E04DC08C819D81892B21F40F900FBE8F
S1130F9080E045C0D11006C0CE0101960E94520FD8
S1130FA0DD24D3940F900FBE0E94AE0C0FB6F894BC
S1130FB00F92F801858D8F3F09F4158EF801868D07
S1130FC08F3F09F4168E0F900FBEBE016C5F7F4FEA
S1130FD0CE0101960E945D0F81111BC0C8010E94C1
S1130FE04D06882381F06C817D81C80108960E949A
S1130FF0A50EC8010E94D4060E94880D81119ECFBF
S11310000E9444059BCFC8010E94D4060E94880D0B
S113101095CFC8010E94D4060E94880D80E00F90ED
S11310200F900F900F900F90DF91CF911F910F9120
S1131030FF90EF90DF90CF900895009769F0FC0146
S11310401382128211821082168220E040E050E066
S113105060E070E00E948B070895CF93DF93482FE0
S113106060E081E00E946107EC010E941D08CE014E
S1131070DF91CF910895EF92FF920F931F93CF9337
S1131080DF938A01FC01528D338D531710F0223007
S1131090F1F4422F7801EC011E8D0E945B061F3F84
S11310A081F489898823A9F0CE0141960E94D00E4B
S11310B0882389F0E114F10481F081E0F701808351
S11310C00DC0FF24F394F10EFE8E81E007C080E092
S11310D005C081E003C081E001C081E0DF91CF91D0
S11310E01F910F91FF90EF900895CF93DF93FC0130
S11310F0828D938D8917C0F4968D8F5F828F9F3F69
S113110079F48189882391F0EB01CF0141960E9403
S1131110D00E882369F0209769F081E088830BC0A2
S11311209F5F968F81E007C080E005C081E003C027
S113113081E001C081E0DF91CF9108958F929F9269
S1131140BF92CF92DF92EF92FF920F931F93CF93B0
S1131150DF9300D000D01F92CDB7DEB78C016B01B6
S11311605D834C83B22EE12C0FB6F8940F92F801F4
S1131170F28CFF2091F186809780B601C8010E940D
S1131180BA06B11019C0FA94F801F28E80819181E7
S1131190892B29F40E945110F80193838283F8016A
S11311A080858823B1F0C80108960E94D00E882358
S11311B081F00E9444050DC0F801978286828189DE
S11311C0882339F0C80141960E94D00E81110E94F3
S11311D044050F900FBE81E061C08C819D81892BF5
S11311E021F40F900FBE80E059C0E11006C0CE017B
S11311F001960E94520FEE24E3940F900FBE0E94BA
S1131200AE0C0FB6F8940F92F801858D8F3F09F458
S1131210158EF801868D8F3F09F4168E0F900FBE40
S1131220BE016C5F7F4FCE0101960E945D0F81115C
S113123029C0C8010E9440068823F1F0F80180818A
S11312409181892B49F40FB6F8940F92828193818E
S11312500E94980F0F900FBE6C817D81C80141964A
S11312600E94A50EC8010E94D4060E94880D811117
S11312707BCF0E94440578CFC8010E94D4060E9407
S1131280880D72CFC8010E94D4060E94880DC8013F
S11312900E944006882309F467CF80E00F900F90E6
S11312A00F900F900F90DF91CF911F910F91FF90AE
S11312B0EF90DF90CF90BF909F908F900895EF9222
S11312C0FF920F931F93CF93DF93FC01C28DCC2326
S11312D0F9F07A018C01D58D0E94BA06C150F8014B
S11312E0C28FDF3F81F480858823A1F0C80108966E
S11312F00E94D00E882381F0E114F10479F081E09A
S1131300F70180830CC0DF5FF801D58F81E007C04F
S113131080E005C081E003C081E001C081E0DF918D
S1131320CF911F910F91FF90EF9008950F931F930A
S1131330CF93DF93FC01228D222349F0EC01068137
S113134017810E94BA061F830E8381E001C080E0EA
S1131350DF91CF911F910F9108950FB6F8940F92DA
S1131360FC01828D0F900FBE0895FC010FB6F89416
S11313700F92938D828D981B892F0F900FBE089525
S1131380FC01828D08950E9431060895FC01828D2E
S1131390811102C081E0089580E00895FC01228D4E
S11313A0838D281302C081E0089580E00895EF92B0
S11313B0FF920F931F93CF93DF93EC017B018A017C
S11313C0F8940E944D06882379F00115110549F01F
S11313D0BE01685F7F4FC8010E94BA0178948CEF08
S11313E01FC0789480E01CC07894F8949A8D8B8DFB
S11313F0981780F440E0B701CE010E945B0689890A
S1131400882351F0CE0141960E945502811106C0F5
S113141081E005C080E003C081E001C08BEF7894D7
S1131420DF91CF911F910F91FF90EF900895CF938B
S1131430DF93EC019B01F8949A8D91110FC0411533
S1131440510549F0BE016F5E7F4FCA010E94BA0187
S113145078948CEF32C0789480E02FC07894F8941C
S11314608A8D882321F14C8D50E08E819F81840FD9
S1131470951F9F838E836A817B818617970720F04F
S1131480888199819F838E838A8D81508A8F6E8112
S11314907F81C9010E94DD148885882351F0CE0123
S11314A008960E945502811106C081E005C080E0C3
S11314B003C081E001C08BEF7894DF91CF91089550
S11314C00F931F93CF93FC01328D238D321798F421
S11314D0C42F8C0140E00E945B06C1110EC0F801CC
S11314E08189882361F0C80141960E9455028823AE
S11314F041F081E007C0842F05C08C2F03C08C2FDE
S113150001C08C2FCF911F910F9108950F931F93BA
S1131510CF93DF93FC01828D882369F1248D30E021
S1131520A681B781A20FB31FB783A683828193815B
S1131530A817B90720F080819181978386838A0157
S1131540CB01EF01428D4150428F66817781A90121
S11315500E94DD14F801808181110FC088858823E1
S113156071F0CE0108960E945502882351F081E063
S1131570F801808307C080E005C081E003C081E0FA
S113158001C081E0DF91CF911F910F910895E09107
S1131590790DF0917A0D8081811107C08FEF9FEF53
S11315A09093640D8093630D0895E091790DF0910B
S11315B07A0D0580F681E02D0680F781E02D828189
S11315C093819093640D8093630D08956F927F923D
S11315D08F929F92AF92BF92CF92DF92EF920F932E
S11315E01F93CF93DF93CDB7DEB74C01F501878905
S11315F0908D215031093C01620E731E20E00FC012
S1131600822F90E0FB01E80FF91F3081D501A80F6C
S1131610B91F59963C938081882319F02F5F283095
S113162078F3F50110A2F3E0FE1520F40F2EF3E099
S1131630EF2EF02DF501E68AE1A212A2C501029671
S11316400E942204C5010C960E942204F501B18671
S1131650A08684E090E08E19910995878487B38AE7
S1131660A28A13A214A215A216A217A2A801B40159
S1131670C3010E94A804F50191838083C114D1049D
S113168019F0F601B182A082DF91CF911F910F91E1
S1131690EF90DF90CF90BF90AF909F908F907F900E
S11316A06F900895CF93C0E010C08C2F90E09C0100
S11316B0220F331F220F331F220F331F820F931F5A
S11316C08357924F0E941404CF5FC43070F384E8B0
S11316D09DE00E9414048BE79DE00E9414048EE6B2
S11316E09DE00E94140484E89DE090937A0D809319
S11316F0790D8BE79DE09093780D8093770DCF91D2
S11317000895CF93DF93EC010FB6F8940F92809174
S11317106D0D8F5F80936D0D8091B10D9091B20D21
S1131720892B59F4D093B20DC093B10D80916D0DF6
S1131730813099F40E94520B10C08091690D81117F
S11317400CC0E091B10DF091B20D96898E89891784
S113175020F0D093B20DC093B10D8091650D8F5FD1
S11317608093650D8E8990916A0D981710F480937B
S11317706A0D90E09C01220F331F220F331F220FAA
S1131780331F820F931FBE016E5F7F4F8357924FAB
S11317900E9426040F900FBE8091690D882351F09A
S11317A0E091B10DF091B20D96898E89981710F4DD
S11317B00E944405DF91CF9108950F931F93CF9317
S11317C0DF93EC0100916B0D10916C0D8091B10DC4
S11317D09091B20D02960E947804C00FD11FE0913F
S11317E0B10DF091B20DD383C283C017D10768F451
S11317F06091B10D7091B20D8091770D9091780D3B
S11318006E5F7F4F0E94470417C06091B10D7091C5
S1131810B20D8091790D90917A0D6E5F7F4F0E9489
S113182047048091630D9091640DC817D90720F483
S1131830D093640DC093630DDF91CF911F910F91ED
S1131840089580918D0D823010F00E9444050E940D
S11318507C14F7CF2F923F924F925F926F927F92B8
S11318608F929F92AF92BF92CF92DF92EF92FF92AC
S11318700F931F93CF93DF933C011B015A0129015E
S1131880CA010E94FC056C01892B71F088E290E08A
S11318900E94FC05EC01892B19F0D88ECF8A06C072
S11318A0C6010E94310602C0C0E0D0E0209791F04A
S11318B0950140E050E0812C912C5E016701E02EFF
S11318C08201B101C3010E94E60ACE010E94810B8C
S11318D081E001C08FEFDF91CF911F910F91FF90B5
S11318E0EF90DF90CF90BF90AF909F908F907F90BC
S11318F06F905F904F903F902F900895EF92FF92DA
S11319000F930F2EF1E6EF2EFDE0FF2EF02D00E0F9
S113191020E030E045E550E060E071E081E29CE0E9
S11319200E942A0C813081F4F8948FEF9FEF9093FA
S1131930640D8093630D81E08093690D10926C0DAA
S113194010926B0D0E9414050F91FF90EF90089573
S1131950F8941092690D0E94430508958091600DDA
S11319608F5F8093600D08950FB6F8940F92809165
S11319706B0D90916C0D0F900FBE089580916B0DBF
S113198090916C0D089580916D0D0895009721F448
S11319908091B10D9091B20D49960895DF92EF9226
S11319A0FF920F931F93CF93DF938091600D81116A
S11319B097C0E0906B0DF0906C0D8FEFE81AF80A69
S11319C0F0926C0DE0926B0DE114F104B9F4809186
S11319D0790D90917A0D2091770D3091780D309397
S11319E07A0D2093790D9093780D8093770D8091E3
S11319F0660D8F5F8093660D0E94C70A8091630D08
S1131A009091640DE816F90628F4D12C53C0DD2416
S1131A10D39401C0D12CE091790DF0917A0D80819D
S1131A20811107C08FEF9FEF9093640D8093630D36
S1131A3041C0E091790DF0917A0D0580F681E02D99
S1131A40C681D7818A819B81E816F90628F4909390
S1131A50640D8093630D2EC08E010E5F1F4FC8016D
S1131A600E9478048C899D89892B21F0CE010C96E3
S1131A700E9478048E8990916A0D981710F48093CF
S1131A806A0D90E09C01220F331F220F331F220F97
S1131A90331F820F931FB8018357924F0E9426046D
S1131AA09E89E091B10DF091B20D8689981708F0E6
S1131AB0AECFB1CFE091B10DF091B20D868990E037
S1131AC0FC01EE0FFF1FEE0FFF1FEE0FFF1F8E0F27
S1131AD09F1FFC01E357F24F8081823040F409C01C
S1131AE08091680D8F5F8093680DD12C02C0DD2436
S1131AF0D3948091670D882311F0DD24D3948D2D28
S1131B00DF91CF911F910F91FF90EF90DF90089597
S1131B100F931F93CF93DF930FB6F8940F92809196
S1131B20600D81508093600D8091600D811158C0CB
S1131B3080916D0D811133C056C0E091730DF09109
S1131B40740DC681D781CE010C960E9478048E0153
S1131B500E5F1F4FC8010E9478048E8990916A0D10
S1131B60981710F480936A0D90E09C01220F331FA4
S1131B70220F331F220F331F820F931FB801835785
S1131B80924F0E9426049E89E091B10DF091B20D0E
S1131B908689981730F081E08093670D02C0C0E019
S1131BA0D0E080916E0D8111C8CFCD2B11F00E9431
S1131BB0C70AC091680DCC2359F00E94CE0C88232B
S1131BC019F081E08093670DC150B9F71092680D48
S1131BD08091670D882331F00E94440581E003C0A1
S1131BE080E001C080E00F900FBEDF91CF911F9184
S1131BF00F9108950F931F93CF93DF938C01EB0103
S1131C000E94AE0C40916B0D50916C0DF801208137
S1131C103181C9018C0F9D1F4217530740F482176D
S1131C20930768F44817590760F020E00FC0821743
S1131C30930748F04817590740F020E007C020E018
S1131C4005C021E003C021E001C021E0F801918337
S1131C508083222329F060E0841B950B0E94DD0B16
S1131C600E94880D811102C00E944405DF91CF912A
S1131C701F910F910895CF93DF93EC01892B49F0C5
S1131C800E94AE0C60E0CE010E94DD0B0E94880D24
S1131C9001C080E0811102C00E944405DF91CF9110
S1131CA008958091600D882321F081E08093670D71
S1131CB008951092670D20916A0D01C02150822F62
S1131CC090E0FC01EE0FFF1FEE0FFF1FEE0FFF1F52
S1131CD0E80FF91FE357F24F3081332379F3AC0156
S1131CE0440F551F440F551F440F551F480F591FCC
S1131CF0DF010180F281E02D0280F381E02D129654
S1131D00FC93EE9311974057524FE417F50729F4CB
S1131D1042815381FD0152834183FC01EE0FFF1F79
S1131D20EE0FFF1FEE0FFF1F8E0F9F1FFC01E357E7
S1131D30F24F0180F281E02D868197819093B20D5C
S1131D408093B10D20936A0D0895CF93DF93EB0137
S1131D506091B10D7091B20D645F7F4F0E94470492
S1131D6061E0CE010E94DD0BDF91CF910895CF9306
S1131D70DF93EA01E091B10DF091B20D70687587BF
S1131D8064876091B10D7091B20D645F7F4F0E94C2
S1131D90260461E0CE010E94DD0BDF91CF9108950E
S1131DA00F931F93CF93DF93DC011596ED91FC9174
S1131DB01697C681D7818E01045F1F4FC8010E9408
S1131DC078048091600D81111CC00A501109C8016A
S1131DD00E9478048E8990916A0D981710F480936C
S1131DE06A0D90E09C01220F331F220F331F220F34
S1131DF0331F820F931FB8018357924F0E9426040A
S1131E0005C0B8018EE69DE00E9426049E89E091FB
S1131E10B10DF091B20D8689891720F481E0809389
S1131E20670D01C080E0DF91CF911F910F9108955C
S1131E300F931F93CF93DF937068FC0171836083CA
S1131E40C681D7810E9478048E010E5F1F4FC8019E
S1131E500E9478048E8990916A0D981710F48093EB
S1131E606A0D90E09C01220F331F220F331F220FB3
S1131E70331F820F931FB8018357924F0E94260489
S1131E809E89E091B10DF091B20D8689891720F4F5
S1131E9081E08093670D01C080E0DF91CF911F91B5
S1131EA00F9108952091660DFC01208320916B0D04
S1131EB030916C0D328321830895CF93DF93FC011D
S1131EC00FB6F8940F9240916B0D50916C0D908168
S1131ED08091660D981729F08181928148175907DE
S1131EE0B0F421813281CA01821B930BEB01A881DA
S1131EF0B9818A179B0768F4CF01241B350B2A0F7D
S1131F003B1F398328830E94520F80E003C081E085
S1131F1001C081E00F900FBEDF91CF91089581E061
S1131F208093670D08958091B10D9091B20D08953D
S1131F300F931F93CF93DF93FC01892B09F455C0B2
S1131F402689A091B10DB091B20D56968C912817A7
S1131F5008F04BC084859585992364F0A091B10D58
S1131F60B091B20D56963C9184E090E0831B9109A8
S1131F70958784878285938530E0A901440F551F96
S1131F80440F551F440F551F240F351F2357324F3D
S1131F908217930719F58F01EF012296CE010E9453
S1131FA07804E091B10DF091B20D8689F801868B29
S1131FB090916A0D981710F480936A0D90E09C013B
S1131FC0220F331F220F331F220F331F820F931F41
S1131FD0BE018357924F0E94260407C0A091B10D01
S1131FE0B091B20D56968C91868BDF91CF911F9153
S1131FF00F9108950F931F93CF93DF93FC01892BC7
S113200079F182A1815082A3268991A1291751F1E6
S113201081112AC0EF018F010E5F1F4FC8010E947A
S1132020780489A18E8B24E030E0281B31093D8798
S11320302C8790916A0D981710F480936A0D90E0A4
S11320409C01220F331F220F331F220F331F820FD5
S1132050931FB8018357924F0E94260481E005C064
S113206080E003C080E001C080E0DF91CF911F9148
S11320700F910895E091B10DF091B20D848595858D
S1132080E091B10DF091B20DA091B10DB091B20DEE
S113209056964C9124E030E0241B3109358724877F
S11320A008958091B10D9091B20D892B39F0E09192
S11320B0B10DF091B20D82A18F5F82A38091B10D19
S11320C09091B20D08950F931F93CF93C82FCB0116
S11320D00FB6F8940F92E091B10DF091B20D43A1B7
S11320E054A165A176A1452B462B472B69F4E091B9
S11320F0B10DF091B20D21E027A3009729F061E022
S11321000E94DD0B0E9444050F900FBE0FB6F89499
S11321100F92E091B10DF091B20D63A174A185A16C
S113212096A16115710581059105C9F0CC2349F08B
S1132130E091B10DF091B20D13A214A215A216A252
S11321400EC0E091B10DF091B20D8B019C010150D4
S113215011092109310903A314A325A336A3E0918E
S1132160B10DF091B20D17A20F900FBECF911F9138
S11321700F9108954F925F926F927F928F929F92E8
S1132180AF92BF92EF92FF920F931F9349015A01AE
S11321900FB6F8940F92E091B10DF091B20D27A112
S11321A0223029F1E091B10DF091B20D43A054A079
S11321B065A076A0DC01CB0180959095A095B095A3
S11321C084219521A621B72183A394A3A5A3B6A313
S11321D0E091B10DF091B20D81E087A3E114F10417
S11321E031F061E0C7010E94DD0B0E9444050F90AD
S11321F00FBE0FB6F8940F920115110569F0E09126
S1132200B10DF091B20D83A194A1A5A1B6A1F801DD
S113221080839183A283B383E091B10DF091B20DD9
S113222087A18130B1F0E091B10DF091B20D83A19D
S113223094A1A5A1B6A180949094A094B09488226E
S11322409922AA22BB2283A294A2A5A2B6A281E0CB
S113225001C080E0E091B10DF091B20D17A20F9092
S11322600FBE1F910F91FF90EF90BF90AF909F9082
S11322708F907F906F905F904F900895EF92FF92B0
S11322800F931F93CF93DF93FC010FB6F8940F9233
S11322900115110549F083A194A1A5A1B6A1E801F6
S11322A088839983AA83BB8387A192E097A3223072
S11322B0B9F018F4213031F02FC02330F9F0243074
S11322C019F12AC003A114A125A136A1402B512B39
S11322D0622B732B43A354A365A376A311E01FC001
S11322E043A154A165A176A14F5F5F4F6F4F7F4F0C
S11322F043A354A365A376A311E011C043A354A33D
S113230065A376A311E00BC0823041F043A354A32C
S113231065A376A311E003C011E001C010E0813091
S113232041F5EF017F0182E0E80EF11CC7010E9434
S113233078048E8990916A0D981710F480936A0D31
S113234090E09C01220F331F220F331F220F331FF3
S1132350820F931FB7018357924F0E9426049E89D0
S1132360E091B10DF091B20D8689891710F40E94A5
S113237044050F900FBE812FDF91CF911F910F91D4
S1132380FF90EF900895CF92DF92EF92FF920F9318
S11323901F93CF93DF93FC010115110549F083A12D
S11323A094A1A5A1B6A1E80188839983AA83BB83DC
S11323B087A192E097A32230B9F018F4213031F0CC
S11323C02FC02330F9F0243019F12AC003A114A13D
S11323D025A136A1402B512B622B732B43A354A36D
S11323E065A376A311E01FC043A154A165A176A102
S11323F04F5F5F4F6F4F7F4F43A354A365A376A3F3
S113240011E011C043A354A365A376A311E00BC04C
S1132410823041F043A354A365A376A311E003C023
S113242011E001C010E08130E1F5EF018091600D11
S113243081111EC06F01E2E0CE0ED11CC6010E94C4
S113244078048E8990916A0D981710F480936A0D20
S113245090E09C01220F331F220F331F220F331FE2
S1132460820F931FB6018357924F0E94260407C020
S1132470BF01645F7F4F8EE69DE00E9426049E8923
S1132480E091B10DF091B20D8689891750F4E114F1
S1132490F10421F081E0E701888303C081E08093A7
S11324A0670D812FDF91CF911F910F91FF90EF90D6
S11324B0DF90CF900895EF92FF920F931F93CF93E5
S11324C0DF93FC0127A182E087A383A194A1A5A1A6
S11324D0B6A10196A11DB11D83A394A3A5A3B6A380
S11324E02130E9F58B01EF018091600D81111EC04F
S11324F07F0182E0E80EF11CC7010E9478048E89F6
S113250090916A0D981710F480936A0D90E09C01E5
S1132510220F331F220F331F220F331F820F931FEB
S1132520B7018357924F0E94260407C0BF01645F1E
S11325307F4F8EE69DE00E9426049E89E091B10DB6
S1132540F091B20D8689891750F40115110521F017
S113255081E0F801808303C081E08093670DDF91FF
S1132560CF911F910F91FF90EF900895009721F460
S11325708091B10D9091B20D0FB6F8940F92FC01B9
S113258027A1223019F417A281E001C080E00F9046
S11325900FBE0895FFCF20E04FEF5FEF6CE970E0CE
S11325A08091B50D9091B60D0E949E0880919B007C
S11325B085FFFCCFF0CF20E04FEF5FEF6CE270E0DF
S11325C08091B30D9091B40D0E949E085D9BFECF47
S11325D0F2CFCF93DF931F92CDB7DEB7898320E08C
S11325E040E050E0BE016F5F7F4F8091B70D909146
S11325F0B80D0E948B070F90DF91CF910895CF9370
S1132600DF931F92CDB7DEB720E043E050E0BE0178
S11326106F5F7F4F8091B90D9091BA0D0E949E0813
S1132620811103C086E00E94E91289810F90DF9135
S1132630CF910895CF93DF931F92CDB7DEB720E0FB
S113264043E050E0BE016F5F7F4F8091DD0D9091BC
S1132650DE0D0E949E08811103C086E00E94E912EB
S113266089810F90DF91CF910895CF93DF931F92CB
S1132670CDB7DEB7898320E043E050E0BE016F5F51
S11326807F4F8091B30D9091B40D0E948B078111FF
S113269003C083E00E94E9120F90DF91CF91089567
S11326A0CF93DF93C62F0E94351305C00E94FF12FB
S11326B00E943513CD2FDFEFDC0FC111F7CFDF916F
S11326C0CF910895CF93DF930E9435130E94FF1298
S11326D00E9435130E94FF12D82F0E943513DD0F7C
S11326E0C0E005C00E94FF120E943513CF5FCD17D2
S11326F0C8F3DF91CF910895CF93DF931F92CDB7A5
S1132700DEB7898320E043E050E0BE016F5F7F4F76
S11327108091B50D9091B60D0E948B07811103C075
S113272084E00E94E9120F90DF91CF9108950F93F6
S11327301F93CF93DF930E9435130E94FF12C82F7B
S11327400E943513C13071F058F0C23019F0C33013
S113275049F002C006E007C087E00E94E91213C0F6
S11327600AE101C00AE010E00CC0C12FD0E00E94D1
S11327701A13FE01ED53F24F808380810E947C1373
S11327801F5F101790F3DF91CF911F910F91089560
S1132790CF93DF931F92CDB7DEB720E04FEF5FEF0B
S11327A0BE016F5F7F4F8091B90D9091BA0D0E9469
S11327B09E088981482F50E0FA01E058F109E03180
S11327C0F10558F7EA5BFF4F0C94D71460E00E94C0
S11327D05013E3CF61E00E945013DFCF63E00E9407
S11327E05013DBCF64E00E945013D7CF0E9497139D
S11327F0D4CF0E946213D1CFEF92FF920F9387B38D
S1132800816087BB87B3826087BB1092900085E0AC
S113281089B91092980087E48093990088E18AB975
S1132820EAE9F0E080838AB180688AB980818068AF
S11328308083789440E061E080E20E946107909395
S1132840B40D8093B30D40E061E080E20E94610723
S11328509093DE0D8093DD0D40E061E080E20E9404
S113286061079093B60D8093B50D40E061E080E27E
S11328700E9461079093BA0D8093B90D40E061E026
S113288081E00E9461079093B80D8093B70DE12C0D
S1132890F12C02E020E030E045E550E065E071E035
S11328A088EC93E10E942A0C03E020E030E045E547
S11328B050E06BE071E08BED92E10E942A0C20E085
S11328C030E045E550E063E171E08BEC92E10E9479
S11328D02A0C04E020E030E045E550E06BE171E0D3
S11328E08AEC92E10E942A0C0E947E0C80E090E027
S11328F00F91FF90EF90089508951F920F920FB6D5
S11329000F9211242F933F934F935F936F937F9371
S11329108F939F93AF93BF93EF93FF9320E040E097
S113292050E06CE270E08091DD0D9091DE0D0E942C
S11329303B08FF91EF91BF91AF919F918F917F9150
S11329406F915F914F913F912F910F900FBE0F9018
S11329501F9018951F920F920FB60F9211242F9368
S11329603F934F935F936F937F938F939F93AF9313
S1132970BF93EF93FF9320E040E050E06CE970E0F8
S11329808091B90D9091BA0D0E943B08FF91EF918F
S1132990BF91AF919F918F917F916F915F914F9173
S11329A03F912F910F900FBE0F901F901895EE0F2F
S11329B0FF1F0590F491E02D0994FB01DC0102C096
S11329C001900D9241505040D8F70895F894FFCFEC
S11329D049444C45004254636D640055415254309F
S11329E054780055415254315478004572726F72D4
S10529F00000E1
S9030000FC
